{
  "contractName": "ProxyAdmin",
  "abi": [
    {
      "inputs": [
        {
          "internalType": "address",
          "name": "initialOwner",
          "type": "address"
        }
      ],
      "stateMutability": "nonpayable",
      "type": "constructor"
    },
    {
      "inputs": [
        {
          "internalType": "address",
          "name": "owner",
          "type": "address"
        }
      ],
      "name": "OwnableInvalidOwner",
      "type": "error"
    },
    {
      "inputs": [
        {
          "internalType": "address",
          "name": "account",
          "type": "address"
        }
      ],
      "name": "OwnableUnauthorizedAccount",
      "type": "error"
    },
    {
      "anonymous": false,
      "inputs": [
        {
          "indexed": true,
          "internalType": "address",
          "name": "previousOwner",
          "type": "address"
        },
        {
          "indexed": true,
          "internalType": "address",
          "name": "newOwner",
          "type": "address"
        }
      ],
      "name": "OwnershipTransferred",
      "type": "event"
    },
    {
      "inputs": [
        {
          "internalType": "address",
          "name": "proxyAddress",
          "type": "address"
        },
        {
          "internalType": "bytes",
          "name": "data",
          "type": "bytes"
        }
      ],
      "name": "callProxy",
      "outputs": [
        {
          "internalType": "bytes",
          "name": "",
          "type": "bytes"
        }
      ],
      "stateMutability": "nonpayable",
      "type": "function"
    },
    {
      "inputs": [],
      "name": "owner",
      "outputs": [
        {
          "internalType": "address",
          "name": "",
          "type": "address"
        }
      ],
      "stateMutability": "view",
      "type": "function"
    },
    {
      "inputs": [],
      "name": "renounceOwnership",
      "outputs": [],
      "stateMutability": "nonpayable",
      "type": "function"
    },
    {
      "inputs": [
        {
          "internalType": "address",
          "name": "newOwner",
          "type": "address"
        }
      ],
      "name": "transferOwnership",
      "outputs": [],
      "stateMutability": "nonpayable",
      "type": "function"
    },
    {
      "inputs": [
        {
          "internalType": "address",
          "name": "newOwner",
          "type": "address"
        }
      ],
      "name": "transferProxyAdminOwnership",
      "outputs": [],
      "stateMutability": "nonpayable",
      "type": "function"
    },
    {
      "inputs": [
        {
          "internalType": "address",
          "name": "proxyAddress",
          "type": "address"
        },
        {
          "internalType": "address",
          "name": "newImplementation",
          "type": "address"
        }
      ],
      "name": "upgrade",
      "outputs": [],
      "stateMutability": "nonpayable",
      "type": "function"
    },
    {
      "inputs": [
        {
          "internalType": "address",
          "name": "proxy",
          "type": "address"
        },
        {
          "internalType": "address",
          "name": "implementation",
          "type": "address"
        },
        {
          "internalType": "bytes",
          "name": "data",
          "type": "bytes"
        }
      ],
      "name": "upgradeAndCall",
      "outputs": [],
      "stateMutability": "payable",
      "type": "function"
    }
  ],
  "bytecode": "0x608060405234801561000f575f80fd5b50d3801561001b575f80fd5b50d28015610027575f80fd5b506040516109a53803806109a5833981016040819052610046916100d3565b806001600160a01b03811661007457604051631e4fbdf760e01b81525f600482015260240160405180910390fd5b61007d81610084565b5050610109565b5f80546001600160a01b038381166001600160a01b0319831681178455604051919092169283917f8be0079c531659141344cd1fd0a4f28419497f9722a3daafe3b4186f6b6457e09190a35050565b5f602082840312156100e3575f80fd5b81516001600160a81b03811681146100f9575f80fd5b6001600160a01b03169392505050565b61088f806101165f395ff3fe60806040526004361061006e575f3560e01c806399a88ec41161004c57806399a88ec4146100f6578063ec245d9b1461012d578063f2fde38b14610164578063f3dfd9c51461019b575f80fd5b8063715018a6146100725780638da5cb5b146100a05780639623609d146100e3575b5f80fd5b34801561007d575f80fd5b50d38015610089575f80fd5b50d28015610095575f80fd5b5061009e6101df565b005b3480156100ab575f80fd5b50d380156100b7575f80fd5b50d280156100c3575f80fd5b505f546040516001600160a01b0390911681526020015b60405180910390f35b61009e6100f136600461060d565b6101f2565b348015610101575f80fd5b50d3801561010d575f80fd5b50d28015610119575f80fd5b5061009e6101283660046106d8565b6102f6565b348015610138575f80fd5b50d38015610144575f80fd5b50d28015610150575f80fd5b5061009e61015f366004610709565b6103e3565b34801561016f575f80fd5b50d3801561017b575f80fd5b50d28015610187575f80fd5b5061009e610196366004610709565b61045f565b3480156101a6575f80fd5b50d380156101b2575f80fd5b50d280156101be575f80fd5b506101d26101cd366004610729565b610499565b6040516100da91906107f2565b6101e7610558565b6101f05f610584565b565b6101fa610558565b5f836001600160a01b03168383604051602401610218929190610804565b60408051601f198184030181529181526020820180516001600160e01b0316631b2ce7f360e11b1790525161024d919061082f565b5f604051808303815f865af19150503d805f8114610286576040519150601f19603f3d011682016040523d82523d5f602084013e61028b565b606091505b50509050806102f05760405162461bcd60e51b815260206004820152602660248201527f50726f787941646d696e3a2075706772616465416e6443616c6c2063616c6c2060448201526519985a5b195960d21b60648201526084015b60405180910390fd5b50505050565b6102fe610558565b6040516001600160a01b0382811660248301525f919084169060440160408051601f198184030181529181526020820180516001600160e01b0316631b2ce7f360e11b1790525161034f919061082f565b5f604051808303815f865af19150503d805f8114610388576040519150601f19603f3d011682016040523d82523d5f602084013e61038d565b606091505b50509050806103de5760405162461bcd60e51b815260206004820152601f60248201527f50726f787941646d696e3a20757067726164652063616c6c206661696c65640060448201526064016102e7565b505050565b6103eb610558565b6001600160a01b0381166104535760405162461bcd60e51b815260206004820152602960248201527f50726f787941646d696e3a206e6577206f776e657220697320746865207a65726044820152686f206164647265737360b81b60648201526084016102e7565b61045c8161045f565b50565b610467610558565b6001600160a01b03811661049057604051631e4fbdf760e01b81525f60048201526024016102e7565b61045c81610584565b60606104a3610558565b5f80856001600160a01b031685856040516104bf92919061084a565b5f604051808303815f865af19150503d805f81146104f8576040519150601f19603f3d011682016040523d82523d5f602084013e6104fd565b606091505b50915091508161054f5760405162461bcd60e51b815260206004820152601c60248201527f50726f787941646d696e3a2063616c6c50726f7879206661696c65640000000060448201526064016102e7565b95945050505050565b5f546001600160a01b031633146101f05760405163118cdaa760e01b81523360048201526024016102e7565b5f80546001600160a01b038381166001600160a01b0319831681178455604051919092169283917f8be0079c531659141344cd1fd0a4f28419497f9722a3daafe3b4186f6b6457e09190a35050565b5f81356001600160a81b03811681146105ea575f80fd5b6001600160a01b031692915050565b634e487b7160e01b5f52604160045260245ffd5b5f805f6060848603121561061f575f80fd5b610628846105d3565b9250610636602085016105d3565b9150604084013567ffffffffffffffff80821115610652575f80fd5b818601915086601f830112610665575f80fd5b813581811115610677576106776105f9565b604051601f8201601f19908116603f0116810190838211818310171561069f5761069f6105f9565b816040528281528960208487010111156106b7575f80fd5b826020860160208301375f6020848301015280955050505050509250925092565b5f80604083850312156106e9575f80fd5b6106f2836105d3565b9150610700602084016105d3565b90509250929050565b5f60208284031215610719575f80fd5b610722826105d3565b9392505050565b5f805f6040848603121561073b575f80fd5b610744846105d3565b9250602084013567ffffffffffffffff80821115610760575f80fd5b818601915086601f830112610773575f80fd5b813581811115610781575f80fd5b876020828501011115610792575f80fd5b6020830194508093505050509250925092565b5f5b838110156107bf5781810151838201526020016107a7565b50505f910152565b5f81518084526107de8160208601602086016107a5565b601f01601f19169290920160200192915050565b602081525f61072260208301846107c7565b6001600160a01b03831681526040602082018190525f90610827908301846107c7565b949350505050565b5f82516108408184602087016107a5565b9190910192915050565b818382375f910190815291905056fea26474726f6e58221220406a41437c8514353335be2a7f783a5d970a3100d099beca8f4ee2de6514c3a864736f6c63430008160033",
  "source": "// SPDX-License-Identifier: MIT\npragma solidity ^0.8.22;\n\nimport \"@openzeppelin/contracts/access/Ownable.sol\";\n\n/**\n * @title ProxyAdmin\n * @dev A minimal admin contract to manage a TransparentUpgradeableProxy:\n *      - Upgrades to new implementations\n *      - Calls functions on the proxy (e.g., new initializer)\n */\ncontract ProxyAdmin is Ownable {\n    /**\n     * @dev Sets the deployer (msg.sender) as the initial owner \n     *      due to the older Ownable that needs a constructor parameter.\n     */\n    constructor(address initialOwner) Ownable(initialOwner) {}\n\n    /**\n     * @dev Allows the admin to call a function on the proxy (e.g. initializeV2()). Very unlikely.\n     * @param proxyAddress The proxy that will receive the call.\n     * @param data The encoded function call data.\n     */\n    function callProxy(address proxyAddress, bytes calldata data)\n        external\n        onlyOwner\n        returns (bytes memory)\n    {\n        (bool success, bytes memory result) = proxyAddress.call(data);\n        require(success, \"ProxyAdmin: callProxy failed\");\n        return result;\n    }\n\n    /**\n     * @dev Explicit function for transferring the ownership\n     *      of this ProxyAdmin contract to a new account.\n     *      This calls the inherited Ownable's transferOwnership(...)\n     *\n     * @param newOwner The address of the new owner\n     */\n    function transferProxyAdminOwnership(address newOwner) external onlyOwner {\n        require(newOwner != address(0), \"ProxyAdmin: new owner is the zero address\");\n        transferOwnership(newOwner);  // Inherited from Ownable\n    }\n\n    /**\n     * @dev Upgrades the proxy to a new implementation.\n     * @param proxyAddress The TransparentUpgradeableProxy address.\n     * @param newImplementation The address of the new logic contract.\n     */\n    function upgrade(address proxyAddress, address newImplementation) external onlyOwner {\n        (bool success, ) = proxyAddress.call(\n            abi.encodeWithSignature(\"upgradeTo(address)\", newImplementation)\n        );\n        require(success, \"ProxyAdmin: upgrade call failed\");\n    }\n    \n     /*\n     * @dev upgrade\n     * @param proxy \n     * @param implementation \n     * @param data \n     */\n    function upgradeAndCall(\n        address proxy,\n        address implementation,\n        bytes memory data\n    ) public payable virtual onlyOwner {\n        (bool success, ) = proxy.call(\n            abi.encodeWithSignature(\"upgradeTo(address)\", implementation, data)\n        );\n        require(success, \"ProxyAdmin: upgradeAndCall call failed\");\n    }\n}\n",
  "sourcePath": "contracts/ProxyAdmin.sol",
  "compiler": {
    "name": "solc",
    "version": "0.8.22+commit.5ed3e10f.Emscripten.clang"
  },
  "schemaVersion": "2.0.1",
  "updatedAt": "2025-12-25T12:44:43.522Z"
}