{
  "contractName": "Stablecoin",
  "abi": [
    {
      "inputs": [],
      "stateMutability": "nonpayable",
      "type": "constructor"
    },
    {
      "inputs": [
        {
          "internalType": "address",
          "name": "caller",
          "type": "address"
        }
      ],
      "name": "CallerNotAutoOwner",
      "type": "error"
    },
    {
      "inputs": [
        {
          "internalType": "address",
          "name": "spender",
          "type": "address"
        },
        {
          "internalType": "uint256",
          "name": "allowance",
          "type": "uint256"
        },
        {
          "internalType": "uint256",
          "name": "needed",
          "type": "uint256"
        }
      ],
      "name": "ERC20InsufficientAllowance",
      "type": "error"
    },
    {
      "inputs": [
        {
          "internalType": "address",
          "name": "sender",
          "type": "address"
        },
        {
          "internalType": "uint256",
          "name": "balance",
          "type": "uint256"
        },
        {
          "internalType": "uint256",
          "name": "needed",
          "type": "uint256"
        }
      ],
      "name": "ERC20InsufficientBalance",
      "type": "error"
    },
    {
      "inputs": [
        {
          "internalType": "address",
          "name": "approver",
          "type": "address"
        }
      ],
      "name": "ERC20InvalidApprover",
      "type": "error"
    },
    {
      "inputs": [
        {
          "internalType": "address",
          "name": "receiver",
          "type": "address"
        }
      ],
      "name": "ERC20InvalidReceiver",
      "type": "error"
    },
    {
      "inputs": [
        {
          "internalType": "address",
          "name": "sender",
          "type": "address"
        }
      ],
      "name": "ERC20InvalidSender",
      "type": "error"
    },
    {
      "inputs": [
        {
          "internalType": "address",
          "name": "spender",
          "type": "address"
        }
      ],
      "name": "ERC20InvalidSpender",
      "type": "error"
    },
    {
      "inputs": [],
      "name": "EnforcedPause",
      "type": "error"
    },
    {
      "inputs": [],
      "name": "ExpectedPause",
      "type": "error"
    },
    {
      "inputs": [
        {
          "internalType": "address",
          "name": "addr",
          "type": "address"
        }
      ],
      "name": "FrozenAddress",
      "type": "error"
    },
    {
      "inputs": [
        {
          "internalType": "uint256",
          "name": "amount",
          "type": "uint256"
        }
      ],
      "name": "InvalidAmount",
      "type": "error"
    },
    {
      "inputs": [],
      "name": "InvalidInitialization",
      "type": "error"
    },
    {
      "inputs": [
        {
          "internalType": "uint256",
          "name": "nonce",
          "type": "uint256"
        }
      ],
      "name": "InvalidNonce",
      "type": "error"
    },
    {
      "inputs": [
        {
          "internalType": "uint256",
          "name": "amount",
          "type": "uint256"
        },
        {
          "internalType": "uint256",
          "name": "limit",
          "type": "uint256"
        }
      ],
      "name": "MintLimitExceeded",
      "type": "error"
    },
    {
      "inputs": [
        {
          "internalType": "address",
          "name": "addr",
          "type": "address"
        }
      ],
      "name": "NotAllowedAddress",
      "type": "error"
    },
    {
      "inputs": [],
      "name": "NotInitializing",
      "type": "error"
    },
    {
      "inputs": [
        {
          "internalType": "address",
          "name": "owner",
          "type": "address"
        }
      ],
      "name": "OwnableInvalidOwner",
      "type": "error"
    },
    {
      "inputs": [
        {
          "internalType": "address",
          "name": "account",
          "type": "address"
        }
      ],
      "name": "OwnableUnauthorizedAccount",
      "type": "error"
    },
    {
      "anonymous": false,
      "inputs": [
        {
          "indexed": true,
          "internalType": "address",
          "name": "owner",
          "type": "address"
        },
        {
          "indexed": true,
          "internalType": "address",
          "name": "spender",
          "type": "address"
        },
        {
          "indexed": false,
          "internalType": "uint256",
          "name": "value",
          "type": "uint256"
        }
      ],
      "name": "Approval",
      "type": "event"
    },
    {
      "anonymous": false,
      "inputs": [
        {
          "indexed": true,
          "internalType": "address",
          "name": "caller",
          "type": "address"
        },
        {
          "indexed": true,
          "internalType": "address",
          "name": "from",
          "type": "address"
        },
        {
          "indexed": true,
          "internalType": "uint256",
          "name": "seq",
          "type": "uint256"
        },
        {
          "indexed": false,
          "internalType": "uint256",
          "name": "amount",
          "type": "uint256"
        }
      ],
      "name": "AutoBurn",
      "type": "event"
    },
    {
      "anonymous": false,
      "inputs": [
        {
          "indexed": true,
          "internalType": "address",
          "name": "caller",
          "type": "address"
        },
        {
          "indexed": true,
          "internalType": "address",
          "name": "to",
          "type": "address"
        },
        {
          "indexed": true,
          "internalType": "uint256",
          "name": "seq",
          "type": "uint256"
        },
        {
          "indexed": false,
          "internalType": "uint256",
          "name": "amount",
          "type": "uint256"
        }
      ],
      "name": "AutoMint",
      "type": "event"
    },
    {
      "anonymous": false,
      "inputs": [
        {
          "indexed": true,
          "internalType": "address",
          "name": "previousOwner",
          "type": "address"
        },
        {
          "indexed": true,
          "internalType": "address",
          "name": "newOwner",
          "type": "address"
        }
      ],
      "name": "AutoOwnerTransferred",
      "type": "event"
    },
    {
      "anonymous": false,
      "inputs": [
        {
          "indexed": true,
          "internalType": "address",
          "name": "caller",
          "type": "address"
        },
        {
          "indexed": true,
          "internalType": "address",
          "name": "from",
          "type": "address"
        },
        {
          "indexed": false,
          "internalType": "uint256",
          "name": "amount",
          "type": "uint256"
        }
      ],
      "name": "Burn",
      "type": "event"
    },
    {
      "anonymous": false,
      "inputs": [
        {
          "indexed": true,
          "internalType": "address",
          "name": "caller",
          "type": "address"
        },
        {
          "indexed": true,
          "internalType": "address",
          "name": "account",
          "type": "address"
        }
      ],
      "name": "Freeze",
      "type": "event"
    },
    {
      "anonymous": false,
      "inputs": [
        {
          "indexed": false,
          "internalType": "uint64",
          "name": "version",
          "type": "uint64"
        }
      ],
      "name": "Initialized",
      "type": "event"
    },
    {
      "anonymous": false,
      "inputs": [
        {
          "indexed": true,
          "internalType": "address",
          "name": "caller",
          "type": "address"
        },
        {
          "indexed": true,
          "internalType": "address",
          "name": "to",
          "type": "address"
        },
        {
          "indexed": false,
          "internalType": "uint256",
          "name": "amount",
          "type": "uint256"
        }
      ],
      "name": "Mint",
      "type": "event"
    },
    {
      "anonymous": false,
      "inputs": [
        {
          "indexed": true,
          "internalType": "address",
          "name": "previousOwner",
          "type": "address"
        },
        {
          "indexed": true,
          "internalType": "address",
          "name": "newOwner",
          "type": "address"
        }
      ],
      "name": "OwnershipTransferStarted",
      "type": "event"
    },
    {
      "anonymous": false,
      "inputs": [
        {
          "indexed": true,
          "internalType": "address",
          "name": "previousOwner",
          "type": "address"
        },
        {
          "indexed": true,
          "internalType": "address",
          "name": "newOwner",
          "type": "address"
        }
      ],
      "name": "OwnershipTransferred",
      "type": "event"
    },
    {
      "anonymous": false,
      "inputs": [
        {
          "indexed": false,
          "internalType": "address",
          "name": "account",
          "type": "address"
        }
      ],
      "name": "Paused",
      "type": "event"
    },
    {
      "anonymous": false,
      "inputs": [
        {
          "indexed": false,
          "internalType": "uint256",
          "name": "previousLimit",
          "type": "uint256"
        },
        {
          "indexed": false,
          "internalType": "uint256",
          "name": "newLimit",
          "type": "uint256"
        }
      ],
      "name": "SetAutoMintMaxLimit",
      "type": "event"
    },
    {
      "anonymous": false,
      "inputs": [
        {
          "indexed": true,
          "internalType": "address",
          "name": "from",
          "type": "address"
        },
        {
          "indexed": true,
          "internalType": "address",
          "name": "to",
          "type": "address"
        },
        {
          "indexed": false,
          "internalType": "uint256",
          "name": "value",
          "type": "uint256"
        }
      ],
      "name": "Transfer",
      "type": "event"
    },
    {
      "anonymous": false,
      "inputs": [
        {
          "indexed": true,
          "internalType": "address",
          "name": "caller",
          "type": "address"
        },
        {
          "indexed": true,
          "internalType": "address",
          "name": "account",
          "type": "address"
        }
      ],
      "name": "Unfreeze",
      "type": "event"
    },
    {
      "anonymous": false,
      "inputs": [
        {
          "indexed": false,
          "internalType": "address",
          "name": "account",
          "type": "address"
        }
      ],
      "name": "Unpaused",
      "type": "event"
    },
    {
      "inputs": [],
      "name": "acceptOwnership",
      "outputs": [],
      "stateMutability": "nonpayable",
      "type": "function"
    },
    {
      "inputs": [
        {
          "internalType": "address",
          "name": "owner",
          "type": "address"
        },
        {
          "internalType": "address",
          "name": "spender",
          "type": "address"
        }
      ],
      "name": "allowance",
      "outputs": [
        {
          "internalType": "uint256",
          "name": "",
          "type": "uint256"
        }
      ],
      "stateMutability": "view",
      "type": "function"
    },
    {
      "inputs": [
        {
          "internalType": "address",
          "name": "spender",
          "type": "address"
        },
        {
          "internalType": "uint256",
          "name": "amount",
          "type": "uint256"
        }
      ],
      "name": "approve",
      "outputs": [
        {
          "internalType": "bool",
          "name": "",
          "type": "bool"
        }
      ],
      "stateMutability": "nonpayable",
      "type": "function"
    },
    {
      "inputs": [
        {
          "internalType": "uint256",
          "name": "amount",
          "type": "uint256"
        },
        {
          "internalType": "uint256",
          "name": "seq",
          "type": "uint256"
        }
      ],
      "name": "autoBurn",
      "outputs": [
        {
          "internalType": "bool",
          "name": "",
          "type": "bool"
        }
      ],
      "stateMutability": "nonpayable",
      "type": "function"
    },
    {
      "inputs": [
        {
          "internalType": "address",
          "name": "to",
          "type": "address"
        },
        {
          "internalType": "uint256",
          "name": "amount",
          "type": "uint256"
        },
        {
          "internalType": "uint256",
          "name": "seq",
          "type": "uint256"
        }
      ],
      "name": "autoMint",
      "outputs": [
        {
          "internalType": "bool",
          "name": "",
          "type": "bool"
        }
      ],
      "stateMutability": "nonpayable",
      "type": "function"
    },
    {
      "inputs": [],
      "name": "autoMintMaxLimit",
      "outputs": [
        {
          "internalType": "uint256",
          "name": "",
          "type": "uint256"
        }
      ],
      "stateMutability": "view",
      "type": "function"
    },
    {
      "inputs": [],
      "name": "autoOwner",
      "outputs": [
        {
          "internalType": "address",
          "name": "",
          "type": "address"
        }
      ],
      "stateMutability": "view",
      "type": "function"
    },
    {
      "inputs": [
        {
          "internalType": "address",
          "name": "account",
          "type": "address"
        }
      ],
      "name": "balanceOf",
      "outputs": [
        {
          "internalType": "uint256",
          "name": "",
          "type": "uint256"
        }
      ],
      "stateMutability": "view",
      "type": "function"
    },
    {
      "inputs": [
        {
          "internalType": "uint256",
          "name": "amount",
          "type": "uint256"
        }
      ],
      "name": "burn",
      "outputs": [
        {
          "internalType": "bool",
          "name": "",
          "type": "bool"
        }
      ],
      "stateMutability": "nonpayable",
      "type": "function"
    },
    {
      "inputs": [],
      "name": "decimals",
      "outputs": [
        {
          "internalType": "uint8",
          "name": "",
          "type": "uint8"
        }
      ],
      "stateMutability": "view",
      "type": "function"
    },
    {
      "inputs": [
        {
          "internalType": "address",
          "name": "account",
          "type": "address"
        }
      ],
      "name": "freezeAccount",
      "outputs": [],
      "stateMutability": "nonpayable",
      "type": "function"
    },
    {
      "inputs": [
        {
          "internalType": "address",
          "name": "",
          "type": "address"
        }
      ],
      "name": "frozen",
      "outputs": [
        {
          "internalType": "bool",
          "name": "",
          "type": "bool"
        }
      ],
      "stateMutability": "view",
      "type": "function"
    },
    {
      "inputs": [
        {
          "internalType": "string",
          "name": "_name",
          "type": "string"
        },
        {
          "internalType": "string",
          "name": "_symbol",
          "type": "string"
        },
        {
          "internalType": "address",
          "name": "_initOwner",
          "type": "address"
        }
      ],
      "name": "initialize",
      "outputs": [],
      "stateMutability": "nonpayable",
      "type": "function"
    },
    {
      "inputs": [
        {
          "internalType": "address",
          "name": "to",
          "type": "address"
        },
        {
          "internalType": "uint256",
          "name": "amount",
          "type": "uint256"
        }
      ],
      "name": "mint",
      "outputs": [
        {
          "internalType": "bool",
          "name": "",
          "type": "bool"
        }
      ],
      "stateMutability": "nonpayable",
      "type": "function"
    },
    {
      "inputs": [
        {
          "internalType": "uint256",
          "name": "amount",
          "type": "uint256"
        }
      ],
      "name": "mint",
      "outputs": [
        {
          "internalType": "bool",
          "name": "",
          "type": "bool"
        }
      ],
      "stateMutability": "nonpayable",
      "type": "function"
    },
    {
      "inputs": [],
      "name": "name",
      "outputs": [
        {
          "internalType": "string",
          "name": "",
          "type": "string"
        }
      ],
      "stateMutability": "view",
      "type": "function"
    },
    {
      "inputs": [],
      "name": "nonce",
      "outputs": [
        {
          "internalType": "uint256",
          "name": "",
          "type": "uint256"
        }
      ],
      "stateMutability": "view",
      "type": "function"
    },
    {
      "inputs": [],
      "name": "owner",
      "outputs": [
        {
          "internalType": "address",
          "name": "",
          "type": "address"
        }
      ],
      "stateMutability": "view",
      "type": "function"
    },
    {
      "inputs": [],
      "name": "pause",
      "outputs": [],
      "stateMutability": "nonpayable",
      "type": "function"
    },
    {
      "inputs": [],
      "name": "paused",
      "outputs": [
        {
          "internalType": "bool",
          "name": "",
          "type": "bool"
        }
      ],
      "stateMutability": "view",
      "type": "function"
    },
    {
      "inputs": [],
      "name": "pendingOwner",
      "outputs": [
        {
          "internalType": "address",
          "name": "",
          "type": "address"
        }
      ],
      "stateMutability": "view",
      "type": "function"
    },
    {
      "inputs": [],
      "name": "renounceAutoOwnership",
      "outputs": [],
      "stateMutability": "nonpayable",
      "type": "function"
    },
    {
      "inputs": [],
      "name": "renounceOwnership",
      "outputs": [],
      "stateMutability": "view",
      "type": "function"
    },
    {
      "inputs": [
        {
          "internalType": "uint256",
          "name": "limit",
          "type": "uint256"
        }
      ],
      "name": "setAutoMintMaxLimit",
      "outputs": [],
      "stateMutability": "nonpayable",
      "type": "function"
    },
    {
      "inputs": [],
      "name": "symbol",
      "outputs": [
        {
          "internalType": "string",
          "name": "",
          "type": "string"
        }
      ],
      "stateMutability": "view",
      "type": "function"
    },
    {
      "inputs": [],
      "name": "totalSupply",
      "outputs": [
        {
          "internalType": "uint256",
          "name": "",
          "type": "uint256"
        }
      ],
      "stateMutability": "view",
      "type": "function"
    },
    {
      "inputs": [
        {
          "internalType": "address",
          "name": "to",
          "type": "address"
        },
        {
          "internalType": "uint256",
          "name": "amount",
          "type": "uint256"
        }
      ],
      "name": "transfer",
      "outputs": [
        {
          "internalType": "bool",
          "name": "",
          "type": "bool"
        }
      ],
      "stateMutability": "nonpayable",
      "type": "function"
    },
    {
      "inputs": [
        {
          "internalType": "address",
          "name": "_newAutoOwner",
          "type": "address"
        }
      ],
      "name": "transferAutoOwnership",
      "outputs": [],
      "stateMutability": "nonpayable",
      "type": "function"
    },
    {
      "inputs": [
        {
          "internalType": "address",
          "name": "from",
          "type": "address"
        },
        {
          "internalType": "address",
          "name": "to",
          "type": "address"
        },
        {
          "internalType": "uint256",
          "name": "amount",
          "type": "uint256"
        }
      ],
      "name": "transferFrom",
      "outputs": [
        {
          "internalType": "bool",
          "name": "",
          "type": "bool"
        }
      ],
      "stateMutability": "nonpayable",
      "type": "function"
    },
    {
      "inputs": [
        {
          "internalType": "address",
          "name": "newOwner",
          "type": "address"
        }
      ],
      "name": "transferOwnership",
      "outputs": [],
      "stateMutability": "nonpayable",
      "type": "function"
    },
    {
      "inputs": [
        {
          "internalType": "address",
          "name": "account",
          "type": "address"
        }
      ],
      "name": "unfreezeAccount",
      "outputs": [],
      "stateMutability": "nonpayable",
      "type": "function"
    },
    {
      "inputs": [],
      "name": "unpause",
      "outputs": [],
      "stateMutability": "nonpayable",
      "type": "function"
    }
  ],
  "bytecode": "0x608060405234801561000f575f80fd5b50d3801561001b575f80fd5b50d28015610027575f80fd5b50610030610035565b6100e7565b7ff0c57e16840df040f15088dc2f81fe391c3923bec73e23a9662efc9c229c6a00805468010000000000000000900460ff16156100855760405163f92ee8a960e01b815260040160405180910390fd5b80546001600160401b03908116146100e45780546001600160401b0319166001600160401b0390811782556040519081527fc7f505b2f371ae2175ee4913f4499e1f2633a7b5936321eed1cdaeb6115181d29060200160405180910390a15b50565b611b6d80620000f55f395ff3fe608060405234801561000f575f80fd5b50d3801561001b575f80fd5b50d28015610027575f80fd5b50600436106101ff575f3560e01c806379ba509711610121578063d0516650116100b6578063e76784bf11610086578063e76784bf1461042e578063f26c159f14610441578063f2fde38b14610454578063fdc86aa014610467575f80fd5b8063d0516650146103de578063dd62ed3e14610400578063dfdcfc3714610413578063e30c397814610426575f80fd5b80639dcc9d2a116100f15780639dcc9d2a146103a7578063a0712d68146103af578063a9059cbb146103c2578063affed0e0146103d5575f80fd5b806379ba50971461036f5780638456cb59146103775780638da5cb5b1461037f57806395d89b411461039f575f80fd5b80633f4ba83a116101975780636ca9e202116101675780636ca9e2021461030d57806370a0823114610320578063715018a614610354578063788649ea1461035c575f80fd5b80633f4ba83a146102c857806340c10f19146102d057806342966c68146102e35780635c975abb146102f6575f80fd5b806318160ddd116101d257806318160ddd1461026c57806323b872dd1461029d578063268cbc27146102b0578063313ce567146102b9575f80fd5b806306fdde0314610203578063077f224a1461022157806307c81df014610236578063095ea7b314610249575b5f80fd5b61020b61047a565b60405161021891906116e5565b60405180910390f35b61023461022f3660046117f4565b61053a565b005b610234610244366004611863565b610658565b61025c61025736600461187a565b6106a1565b6040519015158152602001610218565b7f52c63247e1f47db19d5ce0460030c497f067ca4cebf71ba98eeadabe20bace02545b604051908152602001610218565b61025c6102ab3660046118a2565b610748565b61028f60035481565b60405160128152602001610218565b610234610801565b61025c6102de36600461187a565b610813565b61025c6102f1366004611863565b6108be565b5f80516020611b188339815191525460ff1661025c565b61025c61031b3660046118db565b610911565b61028f61032e36600461190b565b6001600160a01b03165f9081525f80516020611af8833981519152602052604090205490565b610234610abd565b61023461036a36600461190b565b610afb565b610234610b4c565b610234610b94565b610387610ba4565b6040516001600160a01b039091168152602001610218565b61020b610bd8565b610234610c16565b61025c6103bd366004611863565b610c67565b61025c6103d036600461187a565b610cae565b61028f60015481565b61025c6103ec36600461190b565b5f6020819052908152604090205460ff1681565b61028f61040e36600461192b565b610d44565b600254610387906001600160a01b031681565b610387610d8f565b61025c61043c36600461195c565b610db7565b61023461044f36600461190b565b610ef3565b61023461046236600461190b565b610f5c565b61023461047536600461190b565b610fe1565b7f52c63247e1f47db19d5ce0460030c497f067ca4cebf71ba98eeadabe20bace0380546060915f80516020611af8833981519152916104b89061197c565b80601f01602080910402602001604051908101604052809291908181526020018280546104e49061197c565b801561052f5780601f106105065761010080835404028352916020019161052f565b820191905f5260205f20905b81548152906001019060200180831161051257829003601f168201915b505050505091505090565b5f610543611076565b805490915060ff600160401b820416159067ffffffffffffffff165f8115801561056a5750825b90505f8267ffffffffffffffff1660011480156105865750303b155b905081158015610594575080155b156105b25760405163f92ee8a960e01b815260040160405180910390fd5b845467ffffffffffffffff1916600117855583156105dc57845460ff60401b1916600160401b1785555b6105e461109e565b6105ee88886110a6565b6105f7866110bc565b6105ff61109e565b610608866110cd565b831561064e57845460ff60401b19168555604051600181527fc7f505b2f371ae2175ee4913f4499e1f2633a7b5936321eed1cdaeb6115181d29060200160405180910390a15b5050505050505050565b6106606110d5565b60035460408051918252602082018390527f7a50a7cdd0cb8b1a12f7b5a18d811b9c8b415e05a60a875a6f917c2f465e97a8910160405180910390a1600355565b5f6106aa611107565b335f8181526020819052604090205460ff16156106ea57604051631d6e3c0160e21b81526001600160a01b03821660048201526024015b60405180910390fd5b6001600160a01b0384165f90815260208190526040902054849060ff161561073057604051631d6e3c0160e21b81526001600160a01b03821660048201526024016106e1565b3361073c818787611137565b50600195945050505050565b5f610751611107565b6001600160a01b0384165f90815260208190526040902054849060ff161561079757604051631d6e3c0160e21b81526001600160a01b03821660048201526024016106e1565b6001600160a01b0384165f90815260208190526040902054849060ff16156107dd57604051631d6e3c0160e21b81526001600160a01b03821660048201526024016106e1565b336107e9878287611149565b6107f48787876111ad565b5060019695505050505050565b6108096110d5565b61081161120a565b565b5f61081c611107565b6001600160a01b0383165f90815260208190526040902054839060ff161561086257604051631d6e3c0160e21b81526001600160a01b03821660048201526024016106e1565b61086a6110d5565b6108748484611269565b6040518381526001600160a01b0385169033907fab8530f87dc9b59234c4623bf917212bb2536d647574c8e7e5da92c2ede0c9f89060200160405180910390a35060019392505050565b5f6108c76110d5565b6108d1338361129d565b604051828152339081907fbac40739b0d4ca32fa2d82fc91630465ba3eddd1598da6fca393b26fb63b9453906020015b60405180910390a3506001919050565b5f61091a611107565b6001600160a01b0384165f90815260208190526040902054849060ff161561096057604051631d6e3c0160e21b81526001600160a01b03821660048201526024016106e1565b6002546001600160a01b0316331461098d57604051635c0d8a7360e01b81523360048201526024016106e1565b60015483146109b257604051632c4dce9b60e21b8152600481018490526024016106e1565b835f036109d557604051633728b83d60e01b8152600481018590526024016106e1565b836003541015610a065760035460405163494d91e960e01b81526106e1918691600401918252602082015260400190565b60018054905f610a15836119c8565b9190505550610a248585611269565b6040518481526001600160a01b0386169033907fab8530f87dc9b59234c4623bf917212bb2536d647574c8e7e5da92c2ede0c9f89060200160405180910390a3826001600160a01b038616336001600160a01b03167fecc1c2abe0b9e5b2981c11ea4430f5223ef5082cc28f017c458dbb273aed8e1287604051610aaa91815260200190565b60405180910390a4506001949350505050565b610ac56110d5565b60405162461bcd60e51b815260206004820152600b60248201526a155b9cdd5c1c1bdc9d195960aa1b60448201526064016106e1565b610b036110d5565b6001600160a01b0381165f81815260208190526040808220805460ff191690555133917f4f3ab9ff0cc4f039268532098e01239544b0420171876e36889d01c62c784c7991a350565b3380610b56610d8f565b6001600160a01b031614610b885760405163118cdaa760e01b81526001600160a01b03821660048201526024016106e1565b610b91816112d1565b50565b610b9c6110d5565b610811611309565b5f807f9016d09d72d40fdae2fd8ceac6b6234c7706214fd39c1cd1e609a0528c1993005b546001600160a01b031692915050565b7f52c63247e1f47db19d5ce0460030c497f067ca4cebf71ba98eeadabe20bace0480546060915f80516020611af8833981519152916104b89061197c565b610c1e6110d5565b6002546040515f916001600160a01b0316907f4dcfbb802c3ce803612559160f5d70539a491b5d0064b0d4d326788f0dec2730908390a3600280546001600160a01b0319169055565b5f610c706110d5565b610c7a3383611269565b604051828152339081907fab8530f87dc9b59234c4623bf917212bb2536d647574c8e7e5da92c2ede0c9f890602001610901565b5f610cb7611107565b335f8181526020819052604090205460ff1615610cf257604051631d6e3c0160e21b81526001600160a01b03821660048201526024016106e1565b6001600160a01b0384165f90815260208190526040902054849060ff1615610d3857604051631d6e3c0160e21b81526001600160a01b03821660048201526024016106e1565b3361073c8187876111ad565b6001600160a01b038281165f9081527f52c63247e1f47db19d5ce0460030c497f067ca4cebf71ba98eeadabe20bace0160209081526040808320938516835292905220545b92915050565b5f807f237e158222e3e6968b72b9db0d8043aacf074ad9f650f0d1606b4d82ee432c00610bc8565b5f610dc0611107565b6002546001600160a01b03163314610ded57604051635c0d8a7360e01b81523360048201526024016106e1565b6001548214610e1257604051632c4dce9b60e21b8152600481018390526024016106e1565b825f03610e3557604051633728b83d60e01b8152600481018490526024016106e1565b60018054905f610e44836119c8565b91905055505f610e52610ba4565b9050610e5e818561129d565b6002546040518581526001600160a01b038381169216907fbac40739b0d4ca32fa2d82fc91630465ba3eddd1598da6fca393b26fb63b94539060200160405180910390a360025460405185815284916001600160a01b03848116929116907f9a38373a0903562b0424db0a574e0d2fe56b79cc9e0f488a89d7bd3f28082bd49060200160405180910390a45060019392505050565b610efb6110d5565b6001600160a01b0381165f818152602081905260409020805460ff19166001179055610f243390565b6001600160a01b03167f51d18786e9cb144f87d46e7b796309ea84c7c687d91e09c97f051eacf59bc52860405160405180910390a350565b610f646110d5565b7f237e158222e3e6968b72b9db0d8043aacf074ad9f650f0d1606b4d82ee432c0080546001600160a01b0319166001600160a01b0383169081178255610fa8610ba4565b6001600160a01b03167f38d16b8cac22d99fc7c124b9cd0de2d3fa1faef420bfe791d8c362d765e2270060405160405180910390a35050565b610fe96110d5565b6001600160a01b03811661101b576040516303d0181b60e31b81526001600160a01b03821660048201526024016106e1565b6002546040516001600160a01b038084169216907f4dcfbb802c3ce803612559160f5d70539a491b5d0064b0d4d326788f0dec2730905f90a3600280546001600160a01b0319166001600160a01b0392909216919091179055565b5f807ff0c57e16840df040f15088dc2f81fe391c3923bec73e23a9662efc9c229c6a00610d89565b610811611351565b6110ae611351565b6110b88282611376565b5050565b6110c4611351565b610b91816113c6565b610fe9611351565b336110de610ba4565b6001600160a01b0316146108115760405163118cdaa760e01b81523360048201526024016106e1565b5f80516020611b188339815191525460ff16156108115760405163d93c066560e01b815260040160405180910390fd5b61114483838360016113f7565b505050565b5f6111548484610d44565b90505f198110156111a7578181101561119957604051637dc7a0d960e11b81526001600160a01b038416600482015260248101829052604481018390526064016106e1565b6111a784848484035f6113f7565b50505050565b6001600160a01b0383166111d657604051634b637e8f60e11b81525f60048201526024016106e1565b6001600160a01b0382166111ff5760405163ec442f0560e01b81525f60048201526024016106e1565b6111448383836114db565b6112126114e6565b5f80516020611b18833981519152805460ff191681557f5db9ee0a495bf2e6ff9c91a7834c1ba4fdd244a5e8aa4e537bd38aeae4b073aa335b6040516001600160a01b03909116815260200160405180910390a150565b6001600160a01b0382166112925760405163ec442f0560e01b81525f60048201526024016106e1565b6110b85f83836114db565b6001600160a01b0382166112c657604051634b637e8f60e11b81525f60048201526024016106e1565b6110b8825f836114db565b7f237e158222e3e6968b72b9db0d8043aacf074ad9f650f0d1606b4d82ee432c0080546001600160a01b03191681556110b882611515565b611311611107565b5f80516020611b18833981519152805460ff191660011781557f62e78cea01bee320cd4e420270b5ea74000d11b0c9f74754ebdbfc544b05a2583361124b565b611359611585565b61081157604051631afcd79f60e31b815260040160405180910390fd5b61137e611351565b5f80516020611af88339815191527f52c63247e1f47db19d5ce0460030c497f067ca4cebf71ba98eeadabe20bace036113b78482611a24565b50600481016111a78382611a24565b6113ce611351565b6001600160a01b038116610b8857604051631e4fbdf760e01b81525f60048201526024016106e1565b5f80516020611af88339815191526001600160a01b03851661142e5760405163e602df0560e01b81525f60048201526024016106e1565b6001600160a01b03841661145757604051634a1406b160e11b81525f60048201526024016106e1565b6001600160a01b038086165f908152600183016020908152604080832093881683529290522083905581156114d457836001600160a01b0316856001600160a01b03167f8c5be1e5ebec7d5bd14f71427d1e84f3dd0314c0f7b2291e5b200ac8c7c3b925856040516114cb91815260200190565b60405180910390a35b5050505050565b61114483838361159e565b5f80516020611b188339815191525460ff1661081157604051638dfc202b60e01b815260040160405180910390fd5b7f9016d09d72d40fdae2fd8ceac6b6234c7706214fd39c1cd1e609a0528c19930080546001600160a01b031981166001600160a01b03848116918217845560405192169182907f8be0079c531659141344cd1fd0a4f28419497f9722a3daafe3b4186f6b6457e0905f90a3505050565b5f61158e611076565b54600160401b900460ff16919050565b6115a6611107565b6111448383835f80516020611af88339815191526001600160a01b0384166115e65781816002015f8282546115db9190611ae4565b909155506116569050565b6001600160a01b0384165f90815260208290526040902054828110156116385760405163391434e360e21b81526001600160a01b038616600482015260248101829052604481018490526064016106e1565b6001600160a01b0385165f9081526020839052604090209083900390555b6001600160a01b038316611674576002810180548390039055611692565b6001600160a01b0383165f9081526020829052604090208054830190555b826001600160a01b0316846001600160a01b03167fddf252ad1be2c89b69c2b068fc378daa952ba7f163c4a11628f55a4df523b3ef846040516116d791815260200190565b60405180910390a350505050565b5f602080835283518060208501525f5b81811015611711578581018301518582016040015282016116f5565b505f604082860101526040601f19601f8301168501019250505092915050565b634e487b7160e01b5f52604160045260245ffd5b5f82601f830112611754575f80fd5b813567ffffffffffffffff8082111561176f5761176f611731565b604051601f8301601f19908116603f0116810190828211818310171561179757611797611731565b816040528381528660208588010111156117af575f80fd5b836020870160208301375f602085830101528094505050505092915050565b5f81356001600160a81b03811681146117e5575f80fd5b6001600160a01b031692915050565b5f805f60608486031215611806575f80fd5b833567ffffffffffffffff8082111561181d575f80fd5b61182987838801611745565b9450602086013591508082111561183e575f80fd5b5061184b86828701611745565b92505061185a604085016117ce565b90509250925092565b5f60208284031215611873575f80fd5b5035919050565b5f806040838503121561188b575f80fd5b611894836117ce565b946020939093013593505050565b5f805f606084860312156118b4575f80fd5b6118bd846117ce565b92506118cb602085016117ce565b9150604084013590509250925092565b5f805f606084860312156118ed575f80fd5b6118f6846117ce565b95602085013595506040909401359392505050565b5f6020828403121561191b575f80fd5b611924826117ce565b9392505050565b5f806040838503121561193c575f80fd5b611945836117ce565b9150611953602084016117ce565b90509250929050565b5f806040838503121561196d575f80fd5b50508035926020909101359150565b600181811c9082168061199057607f821691505b6020821081036119ae57634e487b7160e01b5f52602260045260245ffd5b50919050565b634e487b7160e01b5f52601160045260245ffd5b5f600182016119d9576119d96119b4565b5060010190565b601f82111561114457805f5260205f20601f840160051c81016020851015611a055750805b601f840160051c820191505b818110156114d4575f8155600101611a11565b815167ffffffffffffffff811115611a3e57611a3e611731565b611a5281611a4c845461197c565b846119e0565b602080601f831160018114611a85575f8415611a6e5750858301515b5f19600386901b1c1916600185901b178555611adc565b5f85815260208120601f198616915b82811015611ab357888601518255948401946001909101908401611a94565b5085821015611ad057878501515f19600388901b60f8161c191681555b505060018460011b0185555b505050505050565b80820180821115610d8957610d896119b456fe52c63247e1f47db19d5ce0460030c497f067ca4cebf71ba98eeadabe20bace00cd5ed15c6e187e77e9aee88184c21f4f2182ab5827cb3b7e07fbedcd63f03300a26474726f6e58221220778bfcdd9f54c476147d3c2b414893700c5fa1d6e8af7f98b1d1d4d594ae89c864736f6c63430008160033",
  "source": "// SPDX-License-Identifier: MIT\n\npragma solidity ^0.8.22;\n\nimport \"@openzeppelin/contracts-upgradeable/token/ERC20/ERC20Upgradeable.sol\";\nimport \"@openzeppelin/contracts-upgradeable/access/Ownable2StepUpgradeable.sol\";\nimport \"@openzeppelin/contracts-upgradeable/token/ERC20/extensions/ERC20PausableUpgradeable.sol\";\n\n\ncontract Stablecoin is ERC20Upgradeable, Ownable2StepUpgradeable, ERC20PausableUpgradeable {\n\n    error CallerNotAutoOwner(address caller);\n    error NotAllowedAddress(address addr);\n    error FrozenAddress(address addr);\n    error InvalidNonce(uint256 nonce);\n    error InvalidAmount(uint256 amount);\n    error MintLimitExceeded(uint256 amount, uint256 limit);\n   \n    event Mint(address indexed caller, address indexed to, uint256 amount);\n    event AutoMint(address indexed caller, address indexed to, uint256 indexed seq, uint256 amount);\n    event Burn(address indexed caller, address indexed from, uint256 amount);\n    event AutoBurn(address indexed caller, address indexed from, uint256 indexed seq, uint256 amount);\n    event Freeze(address indexed caller, address indexed account);\n    event Unfreeze(address indexed caller, address indexed account);\n    event AutoOwnerTransferred(address indexed previousOwner, address indexed newOwner);\n    event SetAutoMintMaxLimit(uint256 previousLimit, uint256 newLimit);\n\n    mapping(address => bool) public frozen;\n\n    uint256 public nonce;\n    address public autoOwner;\n    uint256 public autoMintMaxLimit;\n\n    modifier onlyAutoOwner(){\n        if(msg.sender != autoOwner) revert CallerNotAutoOwner(msg.sender);\n        _;\n    }\n\n   /**\n     * @dev Constructor\n     */\n    constructor() {\n        _disableInitializers();\n    }\n\n   /**\n     * @dev Initializer method\n     */\n    function initialize(string memory _name, string memory _symbol, address _initOwner) public initializer {\n        __Context_init();\n        __ERC20_init(_name, _symbol);\n        __Ownable_init(_initOwner); // v5 requires initial owner address\n        __Pausable_init();\n        __AutoOwnerInit(_initOwner);\n    }\n\n   /**\n     * @dev Init auto owner\n     */\n    function __AutoOwnerInit(address _autoOwner) internal onlyInitializing {\n        if(_autoOwner == address(0)) revert NotAllowedAddress(_autoOwner);\n        emit AutoOwnerTransferred(autoOwner, _autoOwner);\n        autoOwner = _autoOwner;\n    }\n    \n    /**\n     * @dev Transfer auto owner\n     * @param _newAutoOwner new auto owner address\n     */\n    function transferAutoOwnership(address _newAutoOwner) external onlyOwner {\n        if(_newAutoOwner == address(0)) revert NotAllowedAddress(_newAutoOwner);\n        emit AutoOwnerTransferred(autoOwner, _newAutoOwner);\n        autoOwner = _newAutoOwner;\n    }\n\n    \n    /**\n     * @dev Rennounce auto owner\n     */\n    function renounceAutoOwnership() external onlyOwner {\n        emit AutoOwnerTransferred(autoOwner, address(0));\n        autoOwner = address(0);\n    }\n\n    /**\n     * @dev Throws if account is frozen.\n     */\n    modifier notFrozen(address account) {\n        if(frozen[account]) revert FrozenAddress(account);\n        _;\n    }\n\n    /**\n    *  @dev set auto mint max limit\n     * @param limit auto mint max limit\n     * Can only be called by the auto owner.\n     */\n    function setAutoMintMaxLimit(uint256 limit) external onlyOwner {\n        emit SetAutoMintMaxLimit(autoMintMaxLimit, limit);\n        autoMintMaxLimit = limit;\n    }\n\n    /** \n     * @dev See {ERC20-_mint}.\n     * @param amount Mint amount\n     * @return True if successful\n     * Can only be called by the current owner.\n     */\n    function mint(uint256 amount) external onlyOwner returns (bool) {\n        _mint(_msgSender(), amount);\n        emit Mint(_msgSender(), _msgSender(), amount);\n        return true;\n    }\n\n    /** \n     * @dev See {ERC20-_mint}.\n     * @param to Mint to address\n     * @param amount Mint amount\n     * @return True if successful\n     * Can only be called by the current owner.\n     */\n    function mint(address to, uint256 amount) external whenNotPaused notFrozen(to) onlyOwner returns (bool) {\n        _mint(to, amount);\n        emit Mint(_msgSender(), to, amount);\n        return true;\n    }\n\n    /**\n     * @dev See {ERC20-_mint}.\n     * @param to Destination address\n     * @param amount Mint amount\n     * @param seq nonce\n     * @return True if successful\n     * Can only be called by the current auto owner.\n     */\n    function autoMint(address to, uint256 amount, uint256 seq) external whenNotPaused notFrozen(to) onlyAutoOwner returns (bool) {\n        if(seq != nonce) revert InvalidNonce(seq);\n        if(amount == 0) revert InvalidAmount(amount);  \n        if(autoMintMaxLimit < amount) revert MintLimitExceeded(amount, autoMintMaxLimit);\n        nonce++;\n        _mint(to, amount);\n        emit Mint(_msgSender(), to, amount);\n        emit AutoMint(_msgSender(), to, seq, amount);\n        return true;\n    }\n\n    /**\n     * @dev See {ERC20-_burn}.\n     * @param amount Burn amount\n     * @return True if successful\n     * Can only be called by the current owner.\n     */\n    function burn(uint256 amount) external onlyOwner returns (bool) {\n        _burn(_msgSender(), amount);\n        emit Burn(_msgSender(), _msgSender(), amount);\n        return true;\n    }\n\n    /**\n     * @dev See {ERC20-_burn}.\n     * @param amount Burn amount\n     * @param seq nonce\n     * @return True if successful\n     * Can only be called by the current auto owner.\n     */\n    function autoBurn(uint256 amount, uint256 seq) external whenNotPaused onlyAutoOwner returns (bool) {\n        if(seq != nonce) revert InvalidNonce(seq);\n        if(amount == 0) revert InvalidAmount(amount);\n        nonce++;\n        address contractOwner = owner();\n        _burn(contractOwner, amount);\n        emit Burn(autoOwner, contractOwner, amount);\n        emit AutoBurn(autoOwner, contractOwner, seq, amount);\n        return true;\n    }\n    \n    /**\n     * @dev Adds account to frozen state.\n     * Can only be called by the current owner.\n     */\n    function freezeAccount(address account) external onlyOwner {\n        frozen[account] = true;\n        emit Freeze(_msgSender(), account);\n    }\n\n    /**\n     * @dev Removes account from frozen state.\n     * Can only be called by the current owner.\n     */\n    function unfreezeAccount(address account) external onlyOwner {\n        delete frozen[account];\n        emit Unfreeze(_msgSender(), account);\n    }\n\n    /**\n     * @dev Triggers stopped state.\n     * Can only be called by the current owner.\n     */\n    function pause() external onlyOwner {\n        _pause();\n    }\n\n    /**\n     * @dev Returns to normal state.\n     * Can only be called by the current owner.\n     */\n    function unpause() external onlyOwner {\n        _unpause();\n    }\n\n    /**\n     * @dev Unsupported. Leaves the contract without owner.\n     */\n    function renounceOwnership() public view override onlyOwner {\n        revert(\"Unsupported\");\n    }\n\n    /**\n     * @dev See {ERC20-_transfer}.\n     * @param to Destination address\n     * @param amount Transfer amount\n     */\n    function transfer(address to, uint256 amount) public override whenNotPaused notFrozen(_msgSender()) notFrozen(to) returns (bool) {\n        address owner = _msgSender();\n        _transfer(owner, to, amount);\n        return true;\n    }\n\n\n    /**\n     * @dev See {ERC20-_approve}.\n     * @param spender Spender's address\n     * @param amount Allowance amount\n     */\n    function approve(address spender, uint256 amount) public override whenNotPaused notFrozen(_msgSender()) notFrozen(spender) returns (bool){\n        address owner = _msgSender();\n        _approve(owner, spender, amount);\n        return true;\n    }\n\n    /**\n     * @dev See {ERC20-_transferFrom}.\n     * @param from Source address\n     * @param to Destination address\n     * @param amount Transfer amount\n     */\n    function transferFrom(address from, address to, uint256 amount) public override whenNotPaused notFrozen(from) notFrozen(to) returns (bool) {\n        address spender = _msgSender();\n        _spendAllowance(from, spender, amount);\n        _transfer(from, to, amount);\n        return true;\n    }\n\n    /**\n     * @dev Hook that is called before any transfer of tokens.\n     * This includes minting and burning.\n     * Must override to resolve conflict between ERC20Upgradeable and ERC20PausableUpgradeable\n     */\n    function _update(address from, address to, uint256 value) internal virtual override(ERC20Upgradeable, ERC20PausableUpgradeable) {\n        super._update(from, to, value);\n    }\n\n}\n",
  "sourcePath": "contracts/Stablecoin.sol",
  "compiler": {
    "name": "solc",
    "version": "0.8.22+commit.5ed3e10f.Emscripten.clang"
  },
  "schemaVersion": "2.0.1",
  "updatedAt": "2025-12-25T12:44:43.525Z"
}