{
  "contractName": "TransparentUpgradeableProxy",
  "abi": [
    {
      "inputs": [
        {
          "internalType": "address",
          "name": "_logic",
          "type": "address"
        },
        {
          "internalType": "address",
          "name": "admin_",
          "type": "address"
        },
        {
          "internalType": "bytes",
          "name": "_data",
          "type": "bytes"
        }
      ],
      "stateMutability": "payable",
      "type": "constructor"
    },
    {
      "anonymous": false,
      "inputs": [
        {
          "indexed": false,
          "internalType": "address",
          "name": "oldAdmin",
          "type": "address"
        },
        {
          "indexed": false,
          "internalType": "address",
          "name": "newAdmin",
          "type": "address"
        }
      ],
      "name": "AdminChanged",
      "type": "event"
    },
    {
      "anonymous": false,
      "inputs": [
        {
          "indexed": true,
          "internalType": "address",
          "name": "implementation",
          "type": "address"
        }
      ],
      "name": "Upgraded",
      "type": "event"
    },
    {
      "stateMutability": "payable",
      "type": "fallback"
    },
    {
      "inputs": [],
      "name": "admin",
      "outputs": [
        {
          "internalType": "address",
          "name": "",
          "type": "address"
        }
      ],
      "stateMutability": "view",
      "type": "function"
    },
    {
      "inputs": [
        {
          "internalType": "address",
          "name": "newAdmin",
          "type": "address"
        }
      ],
      "name": "changeAdmin",
      "outputs": [],
      "stateMutability": "nonpayable",
      "type": "function"
    },
    {
      "inputs": [],
      "name": "implementation",
      "outputs": [
        {
          "internalType": "address",
          "name": "",
          "type": "address"
        }
      ],
      "stateMutability": "view",
      "type": "function"
    },
    {
      "inputs": [
        {
          "internalType": "address",
          "name": "newImplementation",
          "type": "address"
        }
      ],
      "name": "upgradeTo",
      "outputs": [],
      "stateMutability": "nonpayable",
      "type": "function"
    },
    {
      "stateMutability": "payable",
      "type": "receive"
    }
  ],
  "bytecode": "0x60806040526040516107d83803806107d8833981016040819052610022916101c7565b61002b8261010b565b6100348361013e565b805115610103575f836001600160a01b0316826040516100549190610291565b5f60405180830381855af49150503d805f811461008c576040519150601f19603f3d011682016040523d82523d5f602084013e610091565b606091505b50509050806101015760405162461bcd60e51b815260206004820152603260248201527f5472616e73706172656e745570677261646561626c6550726f78793a20696e696044820152711d1a585b1a5e985d1a5bdb8819985a5b195960721b606482015260840160405180910390fd5b505b5050506102d1565b5f61013760017fb53127684a568b3173ae13b9f8a6016e243e63b6e8ee1178d6a717850b5d61046102ac565b9190915550565b5f61013760017f360894a13ba1a3210667c828492db98dca3e2076cc3735a920a3ca505d382bbd6102ac565b80515f906001600160a81b0381168114610182575f80fd5b6001600160a01b031692915050565b634e487b7160e01b5f52604160045260245ffd5b5f5b838110156101bf5781810151838201526020016101a7565b50505f910152565b5f805f606084860312156101d9575f80fd5b6101e28461016a565b92506101f06020850161016a565b60408501519092506001600160401b038082111561020c575f80fd5b818601915086601f83011261021f575f80fd5b81518181111561023157610231610191565b604051601f8201601f19908116603f0116810190838211818310171561025957610259610191565b81604052828152896020848701011115610271575f80fd5b6102828360208301602088016101a5565b80955050505050509250925092565b5f82516102a28184602087016101a5565b9190910192915050565b818103818111156102cb57634e487b7160e01b5f52601160045260245ffd5b92915050565b6104fa806102de5f395ff3fe608060405260043610610042575f3560e01c80633659cfe6146100e05780635c60da1b146101175780638f2839701461015f578063f851a44014610196576100d8565b366100d85761004f6101c2565b6001600160a01b031633036100c65760405162461bcd60e51b815260206004820152603260248201527f5472616e73706172656e745570677261646561626c6550726f78793a2061646d604482015271696e2063616e6e6f742066616c6c6261636b60701b60648201526084015b60405180910390fd5b6100d66100d16101f6565b610223565b005b61004f6101c2565b3480156100eb575f80fd5b50d380156100f7575f80fd5b50d28015610103575f80fd5b506100d6610112366004610469565b610241565b348015610122575f80fd5b50d3801561012e575f80fd5b50d2801561013a575f80fd5b50610143610301565b6040516001600160a01b03909116815260200160405180910390f35b34801561016a575f80fd5b50d38015610176575f80fd5b50d28015610182575f80fd5b506100d6610191366004610469565b61030f565b3480156101a1575f80fd5b50d380156101ad575f80fd5b50d280156101b9575f80fd5b50610143610401565b5f806101ef60017fb53127684a568b3173ae13b9f8a6016e243e63b6e8ee1178d6a717850b5d610461049f565b5492915050565b5f806101ef60017f360894a13ba1a3210667c828492db98dca3e2076cc3735a920a3ca505d382bbd61049f565b365f80375f80365f845af43d5f803e80801561023d573d5ff35b3d5ffd5b6102496101c2565b6001600160a01b0316336001600160a01b0316146102c25760405162461bcd60e51b815260206004820152603060248201527f5472616e73706172656e745570677261646561626c6550726f78793a2063616c60448201526f3632b91034b9903737ba1030b236b4b760811b60648201526084016100bd565b6102cb8161040a565b6040516001600160a01b038216907fbc7cd75a20ee27fd9adebab32041f755214dbc6bffa90cc0225b39da2e5c2d3b905f90a250565b5f61030a6101f6565b905090565b6103176101c2565b6001600160a01b0316336001600160a01b0316146103635760405162461bcd60e51b81526020600482015260096024820152683737ba1030b236b4b760b91b60448201526064016100bd565b6001600160a01b0381166103a65760405162461bcd60e51b815260206004820152600a6024820152693d32b9379030b236b4b760b11b60448201526064016100bd565b5f6103af6101c2565b90506103ba8261043d565b604080516001600160a01b038084168252841660208201527f7e644d79422f17c01e4894b5f4f588d331ebfa28653d42ae832dc59e38c9798f910160405180910390a15050565b5f61030a6101c2565b5f61043660017f360894a13ba1a3210667c828492db98dca3e2076cc3735a920a3ca505d382bbd61049f565b9190915550565b5f61043660017fb53127684a568b3173ae13b9f8a6016e243e63b6e8ee1178d6a717850b5d610461049f565b5f60208284031215610479575f80fd5b81356001600160a81b038116811461048f575f80fd5b6001600160a01b03169392505050565b818103818111156104be57634e487b7160e01b5f52601160045260245ffd5b9291505056fea26474726f6e58221220fdfccb0bbd38cad9a6e26e46ec4ba58000bbab75ca5ab6d0afd01087b6d7afb264736f6c63430008160033",
  "source": "// SPDX-License-Identifier: MIT\npragma solidity ^0.8.22;\n\n/**\n * @title TransparentUpgradeableProxy\n * @dev A minimal EIP1967 transparent upgradeable proxy:\n *      - Only the admin can call `upgradeTo()`\n *      - All other calls are delegated to the implementation\n */\ncontract TransparentUpgradeableProxy {\n    // EIP1967 Slots\n    bytes32 private constant _IMPLEMENTATION_SLOT = bytes32(uint256(keccak256(\"eip1967.proxy.implementation\")) - 1);\n    bytes32 private constant _ADMIN_SLOT = bytes32(uint256(keccak256(\"eip1967.proxy.admin\")) - 1);\n\n    event Upgraded(address indexed implementation);\n    event AdminChanged(address oldAdmin, address newAdmin);\n\n\n    /**\n     * @dev Constructor: sets admin, implementation, and calls _data (initializer).\n     * @param _logic The initial implementation contract.\n     * @param admin_ The admin address controlling upgrades.\n     * @param _data Data to delegatecall into the implementation (e.g., initialize()).\n     */\n    constructor(address _logic, address admin_, bytes memory _data) payable {\n        _setAdmin(admin_);\n        _setImplementation(_logic);\n\n        if (_data.length > 0) {\n            (bool success, ) = _logic.delegatecall(_data);\n            require(success, \"TransparentUpgradeableProxy: initialization failed\");\n        }\n    }\n\n     modifier onlyAdmin() {\n        require(msg.sender == _admin(), \"not admin\");\n        _;\n    }\n\n    // Optional: expose admin for external read\n    function admin() external view returns (address) {\n        return _admin();\n    }\n\n    function implementation() external view returns (address) {\n        return _implementation();\n    }\n\n    function changeAdmin(address newAdmin) external onlyAdmin {\n        require(newAdmin != address(0), \"zero admin\");\n        address old = _admin();\n        _setAdmin(newAdmin);\n        emit AdminChanged(old, newAdmin);\n    }\n\n    /**\n     * @dev Admin-only function to upgrade the implementation.\n     */\n    function upgradeTo(address newImplementation) external {\n        require(msg.sender == _admin(), \"TransparentUpgradeableProxy: caller is not admin\");\n        _setImplementation(newImplementation);\n        emit Upgraded(newImplementation);\n    }\n\n    /**\n     * @dev Transparent proxy pattern:\n     * - If caller is admin: block delegation to prevent function selector conflicts\n     * - If caller is not admin: delegate all calls to implementation\n     *\n     * This prevents the admin from accidentally calling implementation functions\n     * and\n     */\n    fallback() external payable {\n        // Admin can only call the explicit management functions defined above\n        // Admin cannot interact with the implementation contract\n        require(msg.sender != _admin(), \"TransparentUpgradeableProxy: admin cannot fallback\");\n        _delegate(_implementation());\n    }\n\n    receive() external payable {\n        // Admin should not send TRX directly to the proxy\n        require(msg.sender != _admin(), \"TransparentUpgradeableProxy: admin cannot fallback\");\n        _delegate(_implementation());\n    }\n\n    function _delegate(address impl) internal {\n        assembly {\n            // Copy msg.data\n            calldatacopy(0, 0, calldatasize())\n            // Delegatecall to the implementation\n            let result := delegatecall(gas(), impl, 0, calldatasize(), 0, 0)\n            // Retrieve return data\n            returndatacopy(0, 0, returndatasize())\n\n            switch result\n            // If delegatecall fails, revert\n            case 0 {\n                revert(0, returndatasize())\n            }\n            // If delegatecall succeeds, return data\n            default {\n                return(0, returndatasize())\n            }\n        }\n    }\n\n    function _implementation() internal view returns (address impl) {\n        bytes32 slot = _IMPLEMENTATION_SLOT;\n        assembly {\n            impl := sload(slot)\n        }\n    }\n\n    function _setImplementation(address newImplementation) private {\n        bytes32 slot = _IMPLEMENTATION_SLOT;\n        assembly {\n            sstore(slot, newImplementation)\n        }\n    }\n\n    function _admin() internal view returns (address adm) {\n        bytes32 slot = _ADMIN_SLOT;\n        assembly {\n            adm := sload(slot)\n        }\n    }\n\n    function _setAdmin(address newAdmin) private {\n        bytes32 slot = _ADMIN_SLOT;\n        assembly {\n            sstore(slot, newAdmin)\n        }\n    }\n}\n",
  "sourcePath": "contracts/TransparentUpgradeableProxy.sol",
  "compiler": {
    "name": "solc",
    "version": "0.8.22+commit.5ed3e10f.Emscripten.clang"
  },
  "schemaVersion": "2.0.1",
  "updatedAt": "2025-12-25T12:44:43.527Z"
}