{
  "contractName": "Stablecoin",
  "abi": [
    {
      "inputs": [],
      "stateMutability": "nonpayable",
      "type": "constructor"
    },
    {
      "inputs": [
        {
          "internalType": "address",
          "name": "caller",
          "type": "address"
        }
      ],
      "name": "CallerNotAutoOwner",
      "type": "error"
    },
    {
      "inputs": [],
      "name": "CannotRescueOwnToken",
      "type": "error"
    },
    {
      "inputs": [],
      "name": "ECDSAInvalidSignature",
      "type": "error"
    },
    {
      "inputs": [
        {
          "internalType": "uint256",
          "name": "length",
          "type": "uint256"
        }
      ],
      "name": "ECDSAInvalidSignatureLength",
      "type": "error"
    },
    {
      "inputs": [
        {
          "internalType": "bytes32",
          "name": "s",
          "type": "bytes32"
        }
      ],
      "name": "ECDSAInvalidSignatureS",
      "type": "error"
    },
    {
      "inputs": [
        {
          "internalType": "address",
          "name": "spender",
          "type": "address"
        },
        {
          "internalType": "uint256",
          "name": "allowance",
          "type": "uint256"
        },
        {
          "internalType": "uint256",
          "name": "needed",
          "type": "uint256"
        }
      ],
      "name": "ERC20InsufficientAllowance",
      "type": "error"
    },
    {
      "inputs": [
        {
          "internalType": "address",
          "name": "sender",
          "type": "address"
        },
        {
          "internalType": "uint256",
          "name": "balance",
          "type": "uint256"
        },
        {
          "internalType": "uint256",
          "name": "needed",
          "type": "uint256"
        }
      ],
      "name": "ERC20InsufficientBalance",
      "type": "error"
    },
    {
      "inputs": [
        {
          "internalType": "address",
          "name": "approver",
          "type": "address"
        }
      ],
      "name": "ERC20InvalidApprover",
      "type": "error"
    },
    {
      "inputs": [
        {
          "internalType": "address",
          "name": "receiver",
          "type": "address"
        }
      ],
      "name": "ERC20InvalidReceiver",
      "type": "error"
    },
    {
      "inputs": [
        {
          "internalType": "address",
          "name": "sender",
          "type": "address"
        }
      ],
      "name": "ERC20InvalidSender",
      "type": "error"
    },
    {
      "inputs": [
        {
          "internalType": "address",
          "name": "spender",
          "type": "address"
        }
      ],
      "name": "ERC20InvalidSpender",
      "type": "error"
    },
    {
      "inputs": [
        {
          "internalType": "uint256",
          "name": "deadline",
          "type": "uint256"
        }
      ],
      "name": "ERC2612ExpiredSignature",
      "type": "error"
    },
    {
      "inputs": [
        {
          "internalType": "address",
          "name": "signer",
          "type": "address"
        },
        {
          "internalType": "address",
          "name": "owner",
          "type": "address"
        }
      ],
      "name": "ERC2612InvalidSigner",
      "type": "error"
    },
    {
      "inputs": [],
      "name": "EnforcedPause",
      "type": "error"
    },
    {
      "inputs": [],
      "name": "ExpectedPause",
      "type": "error"
    },
    {
      "inputs": [
        {
          "internalType": "address",
          "name": "addr",
          "type": "address"
        }
      ],
      "name": "FrozenAddress",
      "type": "error"
    },
    {
      "inputs": [
        {
          "internalType": "address",
          "name": "account",
          "type": "address"
        },
        {
          "internalType": "uint256",
          "name": "currentNonce",
          "type": "uint256"
        }
      ],
      "name": "InvalidAccountNonce",
      "type": "error"
    },
    {
      "inputs": [
        {
          "internalType": "uint256",
          "name": "amount",
          "type": "uint256"
        }
      ],
      "name": "InvalidAmount",
      "type": "error"
    },
    {
      "inputs": [
        {
          "internalType": "uint256",
          "name": "chainId",
          "type": "uint256"
        }
      ],
      "name": "InvalidChainId",
      "type": "error"
    },
    {
      "inputs": [],
      "name": "InvalidInitialization",
      "type": "error"
    },
    {
      "inputs": [
        {
          "internalType": "uint256",
          "name": "nonce",
          "type": "uint256"
        }
      ],
      "name": "InvalidNonce",
      "type": "error"
    },
    {
      "inputs": [
        {
          "internalType": "uint256",
          "name": "amount",
          "type": "uint256"
        },
        {
          "internalType": "uint256",
          "name": "limit",
          "type": "uint256"
        }
      ],
      "name": "MintLimitExceeded",
      "type": "error"
    },
    {
      "inputs": [
        {
          "internalType": "address",
          "name": "addr",
          "type": "address"
        }
      ],
      "name": "NotAllowedAddress",
      "type": "error"
    },
    {
      "inputs": [],
      "name": "NotInitializing",
      "type": "error"
    },
    {
      "inputs": [
        {
          "internalType": "address",
          "name": "owner",
          "type": "address"
        }
      ],
      "name": "OwnableInvalidOwner",
      "type": "error"
    },
    {
      "inputs": [
        {
          "internalType": "address",
          "name": "account",
          "type": "address"
        }
      ],
      "name": "OwnableUnauthorizedAccount",
      "type": "error"
    },
    {
      "inputs": [],
      "name": "RescueTransferFailed",
      "type": "error"
    },
    {
      "inputs": [],
      "name": "ZeroAddress",
      "type": "error"
    },
    {
      "inputs": [],
      "name": "ZeroAmount",
      "type": "error"
    },
    {
      "anonymous": false,
      "inputs": [
        {
          "indexed": true,
          "internalType": "address",
          "name": "owner",
          "type": "address"
        },
        {
          "indexed": true,
          "internalType": "address",
          "name": "spender",
          "type": "address"
        },
        {
          "indexed": false,
          "internalType": "uint256",
          "name": "value",
          "type": "uint256"
        }
      ],
      "name": "Approval",
      "type": "event"
    },
    {
      "anonymous": false,
      "inputs": [
        {
          "indexed": true,
          "internalType": "address",
          "name": "caller",
          "type": "address"
        },
        {
          "indexed": true,
          "internalType": "address",
          "name": "from",
          "type": "address"
        },
        {
          "indexed": true,
          "internalType": "uint256",
          "name": "seq",
          "type": "uint256"
        },
        {
          "indexed": false,
          "internalType": "uint256",
          "name": "amount",
          "type": "uint256"
        }
      ],
      "name": "AutoBurn",
      "type": "event"
    },
    {
      "anonymous": false,
      "inputs": [
        {
          "indexed": true,
          "internalType": "address",
          "name": "caller",
          "type": "address"
        },
        {
          "indexed": true,
          "internalType": "address",
          "name": "to",
          "type": "address"
        },
        {
          "indexed": true,
          "internalType": "uint256",
          "name": "seq",
          "type": "uint256"
        },
        {
          "indexed": false,
          "internalType": "uint256",
          "name": "amount",
          "type": "uint256"
        }
      ],
      "name": "AutoMint",
      "type": "event"
    },
    {
      "anonymous": false,
      "inputs": [
        {
          "indexed": true,
          "internalType": "address",
          "name": "previousOwner",
          "type": "address"
        },
        {
          "indexed": true,
          "internalType": "address",
          "name": "newOwner",
          "type": "address"
        }
      ],
      "name": "AutoOwnerTransferred",
      "type": "event"
    },
    {
      "anonymous": false,
      "inputs": [
        {
          "indexed": true,
          "internalType": "address",
          "name": "caller",
          "type": "address"
        },
        {
          "indexed": true,
          "internalType": "address",
          "name": "from",
          "type": "address"
        },
        {
          "indexed": false,
          "internalType": "uint256",
          "name": "amount",
          "type": "uint256"
        }
      ],
      "name": "Burn",
      "type": "event"
    },
    {
      "anonymous": false,
      "inputs": [],
      "name": "EIP712DomainChanged",
      "type": "event"
    },
    {
      "anonymous": false,
      "inputs": [
        {
          "indexed": true,
          "internalType": "address",
          "name": "caller",
          "type": "address"
        },
        {
          "indexed": true,
          "internalType": "address",
          "name": "account",
          "type": "address"
        }
      ],
      "name": "Freeze",
      "type": "event"
    },
    {
      "anonymous": false,
      "inputs": [
        {
          "indexed": false,
          "internalType": "uint64",
          "name": "version",
          "type": "uint64"
        }
      ],
      "name": "Initialized",
      "type": "event"
    },
    {
      "anonymous": false,
      "inputs": [
        {
          "indexed": true,
          "internalType": "address",
          "name": "caller",
          "type": "address"
        },
        {
          "indexed": true,
          "internalType": "address",
          "name": "to",
          "type": "address"
        },
        {
          "indexed": false,
          "internalType": "uint256",
          "name": "amount",
          "type": "uint256"
        }
      ],
      "name": "Mint",
      "type": "event"
    },
    {
      "anonymous": false,
      "inputs": [
        {
          "indexed": true,
          "internalType": "address",
          "name": "to",
          "type": "address"
        },
        {
          "indexed": false,
          "internalType": "uint256",
          "name": "amount",
          "type": "uint256"
        }
      ],
      "name": "NativeTokenRescued",
      "type": "event"
    },
    {
      "anonymous": false,
      "inputs": [
        {
          "indexed": true,
          "internalType": "address",
          "name": "previousOwner",
          "type": "address"
        },
        {
          "indexed": true,
          "internalType": "address",
          "name": "newOwner",
          "type": "address"
        }
      ],
      "name": "OwnershipTransferStarted",
      "type": "event"
    },
    {
      "anonymous": false,
      "inputs": [
        {
          "indexed": true,
          "internalType": "address",
          "name": "previousOwner",
          "type": "address"
        },
        {
          "indexed": true,
          "internalType": "address",
          "name": "newOwner",
          "type": "address"
        }
      ],
      "name": "OwnershipTransferred",
      "type": "event"
    },
    {
      "anonymous": false,
      "inputs": [
        {
          "indexed": false,
          "internalType": "address",
          "name": "account",
          "type": "address"
        }
      ],
      "name": "Paused",
      "type": "event"
    },
    {
      "anonymous": false,
      "inputs": [
        {
          "indexed": false,
          "internalType": "uint256",
          "name": "previousLimit",
          "type": "uint256"
        },
        {
          "indexed": false,
          "internalType": "uint256",
          "name": "newLimit",
          "type": "uint256"
        }
      ],
      "name": "SetAutoMintMaxLimit",
      "type": "event"
    },
    {
      "anonymous": false,
      "inputs": [
        {
          "indexed": true,
          "internalType": "address",
          "name": "token",
          "type": "address"
        },
        {
          "indexed": true,
          "internalType": "address",
          "name": "to",
          "type": "address"
        },
        {
          "indexed": false,
          "internalType": "uint256",
          "name": "amount",
          "type": "uint256"
        }
      ],
      "name": "TokensRescued",
      "type": "event"
    },
    {
      "anonymous": false,
      "inputs": [
        {
          "indexed": true,
          "internalType": "address",
          "name": "from",
          "type": "address"
        },
        {
          "indexed": true,
          "internalType": "address",
          "name": "to",
          "type": "address"
        },
        {
          "indexed": false,
          "internalType": "uint256",
          "name": "value",
          "type": "uint256"
        }
      ],
      "name": "Transfer",
      "type": "event"
    },
    {
      "anonymous": false,
      "inputs": [
        {
          "indexed": true,
          "internalType": "address",
          "name": "caller",
          "type": "address"
        },
        {
          "indexed": true,
          "internalType": "address",
          "name": "account",
          "type": "address"
        }
      ],
      "name": "Unfreeze",
      "type": "event"
    },
    {
      "anonymous": false,
      "inputs": [
        {
          "indexed": false,
          "internalType": "address",
          "name": "account",
          "type": "address"
        }
      ],
      "name": "Unpaused",
      "type": "event"
    },
    {
      "stateMutability": "payable",
      "type": "fallback"
    },
    {
      "inputs": [],
      "name": "DOMAIN_SEPARATOR",
      "outputs": [
        {
          "internalType": "bytes32",
          "name": "",
          "type": "bytes32"
        }
      ],
      "stateMutability": "view",
      "type": "function"
    },
    {
      "inputs": [],
      "name": "acceptOwnership",
      "outputs": [],
      "stateMutability": "nonpayable",
      "type": "function"
    },
    {
      "inputs": [
        {
          "internalType": "address",
          "name": "owner",
          "type": "address"
        },
        {
          "internalType": "address",
          "name": "spender",
          "type": "address"
        }
      ],
      "name": "allowance",
      "outputs": [
        {
          "internalType": "uint256",
          "name": "",
          "type": "uint256"
        }
      ],
      "stateMutability": "view",
      "type": "function"
    },
    {
      "inputs": [
        {
          "internalType": "address",
          "name": "spender",
          "type": "address"
        },
        {
          "internalType": "uint256",
          "name": "amount",
          "type": "uint256"
        }
      ],
      "name": "approve",
      "outputs": [
        {
          "internalType": "bool",
          "name": "",
          "type": "bool"
        }
      ],
      "stateMutability": "nonpayable",
      "type": "function"
    },
    {
      "inputs": [
        {
          "internalType": "uint256",
          "name": "amount",
          "type": "uint256"
        },
        {
          "internalType": "uint256",
          "name": "seq",
          "type": "uint256"
        },
        {
          "internalType": "uint256",
          "name": "chainIdParam",
          "type": "uint256"
        }
      ],
      "name": "autoBurn",
      "outputs": [
        {
          "internalType": "bool",
          "name": "",
          "type": "bool"
        }
      ],
      "stateMutability": "nonpayable",
      "type": "function"
    },
    {
      "inputs": [
        {
          "internalType": "address",
          "name": "to",
          "type": "address"
        },
        {
          "internalType": "uint256",
          "name": "amount",
          "type": "uint256"
        },
        {
          "internalType": "uint256",
          "name": "seq",
          "type": "uint256"
        },
        {
          "internalType": "uint256",
          "name": "chainIdParam",
          "type": "uint256"
        }
      ],
      "name": "autoMint",
      "outputs": [
        {
          "internalType": "bool",
          "name": "",
          "type": "bool"
        }
      ],
      "stateMutability": "nonpayable",
      "type": "function"
    },
    {
      "inputs": [],
      "name": "autoMintMaxLimit",
      "outputs": [
        {
          "internalType": "uint256",
          "name": "",
          "type": "uint256"
        }
      ],
      "stateMutability": "view",
      "type": "function"
    },
    {
      "inputs": [],
      "name": "autoOwner",
      "outputs": [
        {
          "internalType": "address",
          "name": "",
          "type": "address"
        }
      ],
      "stateMutability": "view",
      "type": "function"
    },
    {
      "inputs": [
        {
          "internalType": "address",
          "name": "account",
          "type": "address"
        }
      ],
      "name": "balanceOf",
      "outputs": [
        {
          "internalType": "uint256",
          "name": "",
          "type": "uint256"
        }
      ],
      "stateMutability": "view",
      "type": "function"
    },
    {
      "inputs": [
        {
          "internalType": "uint256",
          "name": "amount",
          "type": "uint256"
        }
      ],
      "name": "burn",
      "outputs": [
        {
          "internalType": "bool",
          "name": "",
          "type": "bool"
        }
      ],
      "stateMutability": "nonpayable",
      "type": "function"
    },
    {
      "inputs": [],
      "name": "chainId",
      "outputs": [
        {
          "internalType": "uint256",
          "name": "",
          "type": "uint256"
        }
      ],
      "stateMutability": "view",
      "type": "function"
    },
    {
      "inputs": [],
      "name": "decimals",
      "outputs": [
        {
          "internalType": "uint8",
          "name": "",
          "type": "uint8"
        }
      ],
      "stateMutability": "view",
      "type": "function"
    },
    {
      "inputs": [],
      "name": "eip712Domain",
      "outputs": [
        {
          "internalType": "bytes1",
          "name": "fields",
          "type": "bytes1"
        },
        {
          "internalType": "string",
          "name": "name",
          "type": "string"
        },
        {
          "internalType": "string",
          "name": "version",
          "type": "string"
        },
        {
          "internalType": "uint256",
          "name": "chainId",
          "type": "uint256"
        },
        {
          "internalType": "address",
          "name": "verifyingContract",
          "type": "address"
        },
        {
          "internalType": "bytes32",
          "name": "salt",
          "type": "bytes32"
        },
        {
          "internalType": "uint256[]",
          "name": "extensions",
          "type": "uint256[]"
        }
      ],
      "stateMutability": "view",
      "type": "function"
    },
    {
      "inputs": [
        {
          "internalType": "address",
          "name": "account",
          "type": "address"
        }
      ],
      "name": "freezeAccount",
      "outputs": [],
      "stateMutability": "nonpayable",
      "type": "function"
    },
    {
      "inputs": [
        {
          "internalType": "address",
          "name": "",
          "type": "address"
        }
      ],
      "name": "frozen",
      "outputs": [
        {
          "internalType": "bool",
          "name": "",
          "type": "bool"
        }
      ],
      "stateMutability": "view",
      "type": "function"
    },
    {
      "inputs": [],
      "name": "getNativeBalance",
      "outputs": [
        {
          "internalType": "uint256",
          "name": "",
          "type": "uint256"
        }
      ],
      "stateMutability": "view",
      "type": "function"
    },
    {
      "inputs": [
        {
          "internalType": "address",
          "name": "token",
          "type": "address"
        }
      ],
      "name": "getTokenBalance",
      "outputs": [
        {
          "internalType": "uint256",
          "name": "",
          "type": "uint256"
        }
      ],
      "stateMutability": "view",
      "type": "function"
    },
    {
      "inputs": [
        {
          "internalType": "string",
          "name": "_name",
          "type": "string"
        },
        {
          "internalType": "string",
          "name": "_symbol",
          "type": "string"
        },
        {
          "internalType": "address",
          "name": "_initOwner",
          "type": "address"
        }
      ],
      "name": "initialize",
      "outputs": [],
      "stateMutability": "nonpayable",
      "type": "function"
    },
    {
      "inputs": [
        {
          "internalType": "address",
          "name": "to",
          "type": "address"
        },
        {
          "internalType": "uint256",
          "name": "amount",
          "type": "uint256"
        }
      ],
      "name": "mint",
      "outputs": [
        {
          "internalType": "bool",
          "name": "",
          "type": "bool"
        }
      ],
      "stateMutability": "nonpayable",
      "type": "function"
    },
    {
      "inputs": [
        {
          "internalType": "uint256",
          "name": "amount",
          "type": "uint256"
        }
      ],
      "name": "mint",
      "outputs": [
        {
          "internalType": "bool",
          "name": "",
          "type": "bool"
        }
      ],
      "stateMutability": "nonpayable",
      "type": "function"
    },
    {
      "inputs": [],
      "name": "name",
      "outputs": [
        {
          "internalType": "string",
          "name": "",
          "type": "string"
        }
      ],
      "stateMutability": "view",
      "type": "function"
    },
    {
      "inputs": [],
      "name": "nonce",
      "outputs": [
        {
          "internalType": "uint256",
          "name": "",
          "type": "uint256"
        }
      ],
      "stateMutability": "view",
      "type": "function"
    },
    {
      "inputs": [
        {
          "internalType": "address",
          "name": "owner",
          "type": "address"
        }
      ],
      "name": "nonces",
      "outputs": [
        {
          "internalType": "uint256",
          "name": "",
          "type": "uint256"
        }
      ],
      "stateMutability": "view",
      "type": "function"
    },
    {
      "inputs": [],
      "name": "owner",
      "outputs": [
        {
          "internalType": "address",
          "name": "",
          "type": "address"
        }
      ],
      "stateMutability": "view",
      "type": "function"
    },
    {
      "inputs": [],
      "name": "pause",
      "outputs": [],
      "stateMutability": "nonpayable",
      "type": "function"
    },
    {
      "inputs": [],
      "name": "paused",
      "outputs": [
        {
          "internalType": "bool",
          "name": "",
          "type": "bool"
        }
      ],
      "stateMutability": "view",
      "type": "function"
    },
    {
      "inputs": [],
      "name": "pendingOwner",
      "outputs": [
        {
          "internalType": "address",
          "name": "",
          "type": "address"
        }
      ],
      "stateMutability": "view",
      "type": "function"
    },
    {
      "inputs": [
        {
          "internalType": "address",
          "name": "owner",
          "type": "address"
        },
        {
          "internalType": "address",
          "name": "spender",
          "type": "address"
        },
        {
          "internalType": "uint256",
          "name": "value",
          "type": "uint256"
        },
        {
          "internalType": "uint256",
          "name": "deadline",
          "type": "uint256"
        },
        {
          "internalType": "uint8",
          "name": "v",
          "type": "uint8"
        },
        {
          "internalType": "bytes32",
          "name": "r",
          "type": "bytes32"
        },
        {
          "internalType": "bytes32",
          "name": "s",
          "type": "bytes32"
        }
      ],
      "name": "permit",
      "outputs": [],
      "stateMutability": "nonpayable",
      "type": "function"
    },
    {
      "inputs": [],
      "name": "renounceAutoOwnership",
      "outputs": [],
      "stateMutability": "nonpayable",
      "type": "function"
    },
    {
      "inputs": [],
      "name": "renounceOwnership",
      "outputs": [],
      "stateMutability": "view",
      "type": "function"
    },
    {
      "inputs": [
        {
          "internalType": "address payable",
          "name": "to",
          "type": "address"
        }
      ],
      "name": "rescueAllNativeToken",
      "outputs": [],
      "stateMutability": "nonpayable",
      "type": "function"
    },
    {
      "inputs": [
        {
          "internalType": "address",
          "name": "token",
          "type": "address"
        },
        {
          "internalType": "address",
          "name": "to",
          "type": "address"
        }
      ],
      "name": "rescueAllTokens",
      "outputs": [],
      "stateMutability": "nonpayable",
      "type": "function"
    },
    {
      "inputs": [
        {
          "internalType": "address payable",
          "name": "to",
          "type": "address"
        },
        {
          "internalType": "uint256",
          "name": "amount",
          "type": "uint256"
        }
      ],
      "name": "rescueNativeToken",
      "outputs": [],
      "stateMutability": "nonpayable",
      "type": "function"
    },
    {
      "inputs": [
        {
          "internalType": "address",
          "name": "token",
          "type": "address"
        },
        {
          "internalType": "address",
          "name": "to",
          "type": "address"
        },
        {
          "internalType": "uint256",
          "name": "amount",
          "type": "uint256"
        }
      ],
      "name": "rescueTokens",
      "outputs": [],
      "stateMutability": "nonpayable",
      "type": "function"
    },
    {
      "inputs": [
        {
          "internalType": "uint256",
          "name": "limit",
          "type": "uint256"
        }
      ],
      "name": "setAutoMintMaxLimit",
      "outputs": [],
      "stateMutability": "nonpayable",
      "type": "function"
    },
    {
      "inputs": [],
      "name": "symbol",
      "outputs": [
        {
          "internalType": "string",
          "name": "",
          "type": "string"
        }
      ],
      "stateMutability": "view",
      "type": "function"
    },
    {
      "inputs": [],
      "name": "totalSupply",
      "outputs": [
        {
          "internalType": "uint256",
          "name": "",
          "type": "uint256"
        }
      ],
      "stateMutability": "view",
      "type": "function"
    },
    {
      "inputs": [
        {
          "internalType": "address",
          "name": "to",
          "type": "address"
        },
        {
          "internalType": "uint256",
          "name": "amount",
          "type": "uint256"
        }
      ],
      "name": "transfer",
      "outputs": [
        {
          "internalType": "bool",
          "name": "",
          "type": "bool"
        }
      ],
      "stateMutability": "nonpayable",
      "type": "function"
    },
    {
      "inputs": [
        {
          "internalType": "address",
          "name": "_newAutoOwner",
          "type": "address"
        }
      ],
      "name": "transferAutoOwnership",
      "outputs": [],
      "stateMutability": "nonpayable",
      "type": "function"
    },
    {
      "inputs": [
        {
          "internalType": "address",
          "name": "from",
          "type": "address"
        },
        {
          "internalType": "address",
          "name": "to",
          "type": "address"
        },
        {
          "internalType": "uint256",
          "name": "amount",
          "type": "uint256"
        }
      ],
      "name": "transferFrom",
      "outputs": [
        {
          "internalType": "bool",
          "name": "",
          "type": "bool"
        }
      ],
      "stateMutability": "nonpayable",
      "type": "function"
    },
    {
      "inputs": [
        {
          "internalType": "address",
          "name": "newOwner",
          "type": "address"
        }
      ],
      "name": "transferOwnership",
      "outputs": [],
      "stateMutability": "nonpayable",
      "type": "function"
    },
    {
      "inputs": [
        {
          "internalType": "address",
          "name": "account",
          "type": "address"
        }
      ],
      "name": "unfreezeAccount",
      "outputs": [],
      "stateMutability": "nonpayable",
      "type": "function"
    },
    {
      "inputs": [],
      "name": "unpause",
      "outputs": [],
      "stateMutability": "nonpayable",
      "type": "function"
    },
    {
      "stateMutability": "payable",
      "type": "receive"
    }
  ],
  "bytecode": "0x6080604052348015600e575f80fd5b50d380156019575f80fd5b50d280156024575f80fd5b50602b602f565b60df565b7ff0c57e16840df040f15088dc2f81fe391c3923bec73e23a9662efc9c229c6a00805468010000000000000000900460ff1615607e5760405163f92ee8a960e01b815260040160405180910390fd5b80546001600160401b039081161460dc5780546001600160401b0319166001600160401b0390811782556040519081527fc7f505b2f371ae2175ee4913f4499e1f2633a7b5936321eed1cdaeb6115181d29060200160405180910390a15b50565b613110806100ec5f395ff3fe608060405260043610610247575f3560e01c806379ba509711610137578063affed0e0116100af578063df63d46a11610076578063df63d46a14610a28578063dfdcfc3714610a5f578063e30c397814610a96578063f26c159f14610ac2578063f2fde38b14610af9578063fdc86aa014610b3057005b8063affed0e014610910578063cea9d26f1461093d578063d051665014610974578063d505accf146109ba578063dd62ed3e146109f157005b80638da5cb5b116100fe5780638da5cb5b146107d957806395d89b411461081d5780639a8a0592146108495780639dcc9d2a14610876578063a0712d68146108a2578063a9059cbb146108d957005b806379ba5097146106e15780637ecebe001461070d5780638456cb591461074457806384b0196e1461077057806388a9d554146107af57005b8063313ce567116101ca57806342966c681161019157806342966c681461059e5780635c975abb146105d55780635d5c52d01461061057806370a0823114610647578063715018a61461067e578063788649ea146106aa57005b8063313ce567146104a55780633644e515146104d85780633aecd0e3146105045780633f4ba83a1461053b57806340c10f191461056757005b806318160ddd1161020e57806318160ddd1461037e57806323b872dd146103d3578063268cbc271461040a5780632959b545146104375780632a04b4181461046e57005b806306fdde0314610250578063077f224a1461029257806307c81df0146102c9578063095ea7b3146103005780630bde6c761461034757005b3661024e57005b005b34801561025b575f80fd5b50d38015610267575f80fd5b50d28015610273575f80fd5b5061027c610b67565b6040516102899190612aa4565b60405180910390f35b34801561029d575f80fd5b50d380156102a9575f80fd5b50d280156102b5575f80fd5b5061024e6102c4366004612b6e565b610c0c565b3480156102d4575f80fd5b50d380156102e0575f80fd5b50d280156102ec575f80fd5b5061024e6102fb366004612beb565b610d37565b34801561030b575f80fd5b50d38015610317575f80fd5b50d28015610323575f80fd5b50610337610332366004612c02565b610d80565b6040519015158152602001610289565b348015610352575f80fd5b50d3801561035e575f80fd5b50d2801561036a575f80fd5b5061024e610379366004612c35565b610e27565b348015610389575f80fd5b50d38015610395575f80fd5b50d280156103a1575f80fd5b507f52c63247e1f47db19d5ce0460030c497f067ca4cebf71ba98eeadabe20bace02545b604051908152602001610289565b3480156103de575f80fd5b50d380156103ea575f80fd5b50d280156103f6575f80fd5b50610337610405366004612c60565b610f60565b348015610415575f80fd5b50d38015610421575f80fd5b50d2801561042d575f80fd5b506103c560045481565b348015610442575f80fd5b50d3801561044e575f80fd5b50d2801561045a575f80fd5b50610337610469366004612cab565b611019565b348015610479575f80fd5b50d38015610485575f80fd5b50d28015610491575f80fd5b5061024e6104a0366004612c02565b6111e8565b3480156104b0575f80fd5b50d380156104bc575f80fd5b50d280156104c8575f80fd5b5060405160128152602001610289565b3480156104e3575f80fd5b50d380156104ef575f80fd5b50d280156104fb575f80fd5b506103c5611288565b34801561050f575f80fd5b50d3801561051b575f80fd5b50d28015610527575f80fd5b506103c5610536366004612c35565b611296565b348015610546575f80fd5b50d38015610552575f80fd5b50d2801561055e575f80fd5b5061024e611318565b348015610572575f80fd5b50d3801561057e575f80fd5b50d2801561058a575f80fd5b50610337610599366004612c02565b61132a565b3480156105a9575f80fd5b50d380156105b5575f80fd5b50d280156105c1575f80fd5b506103376105d0366004612beb565b6113cc565b3480156105e0575f80fd5b50d380156105ec575f80fd5b50d280156105f8575f80fd5b505f805160206130bb8339815191525460ff16610337565b34801561061b575f80fd5b50d38015610627575f80fd5b50d28015610633575f80fd5b5061024e610642366004612cec565b61141f565b348015610652575f80fd5b50d3801561065e575f80fd5b50d2801561066a575f80fd5b506103c5610679366004612c35565b611641565b348015610689575f80fd5b50d38015610695575f80fd5b50d280156106a1575f80fd5b5061024e611671565b3480156106b5575f80fd5b50d380156106c1575f80fd5b50d280156106cd575f80fd5b5061024e6106dc366004612c35565b6116af565b3480156106ec575f80fd5b50d380156106f8575f80fd5b50d28015610704575f80fd5b5061024e611700565b348015610718575f80fd5b50d38015610724575f80fd5b50d28015610730575f80fd5b506103c561073f366004612c35565b611748565b34801561074f575f80fd5b50d3801561075b575f80fd5b50d28015610767575f80fd5b5061024e611752565b34801561077b575f80fd5b50d38015610787575f80fd5b50d28015610793575f80fd5b5061079c611762565b6040516102899796959493929190612d30565b3480156107ba575f80fd5b50d380156107c6575f80fd5b50d280156107d2575f80fd5b50476103c5565b3480156107e4575f80fd5b50d380156107f0575f80fd5b50d280156107fc575f80fd5b5061080561180b565b6040516001600160a01b039091168152602001610289565b348015610828575f80fd5b50d38015610834575f80fd5b50d28015610840575f80fd5b5061027c61183f565b348015610854575f80fd5b50d38015610860575f80fd5b50d2801561086c575f80fd5b506103c560025481565b348015610881575f80fd5b50d3801561088d575f80fd5b50d28015610899575f80fd5b5061024e61187d565b3480156108ad575f80fd5b50d380156108b9575f80fd5b50d280156108c5575f80fd5b506103376108d4366004612beb565b6118ce565b3480156108e4575f80fd5b50d380156108f0575f80fd5b50d280156108fc575f80fd5b5061033761090b366004612c02565b611915565b34801561091b575f80fd5b50d38015610927575f80fd5b50d28015610933575f80fd5b506103c560015481565b348015610948575f80fd5b50d38015610954575f80fd5b50d28015610960575f80fd5b5061024e61096f366004612c60565b6119ab565b34801561097f575f80fd5b50d3801561098b575f80fd5b50d28015610997575f80fd5b506103376109a6366004612c35565b5f6020819052908152604090205460ff1681565b3480156109c5575f80fd5b50d380156109d1575f80fd5b50d280156109dd575f80fd5b5061024e6109ec366004612dc7565b611b53565b3480156109fc575f80fd5b50d38015610a08575f80fd5b50d28015610a14575f80fd5b506103c5610a23366004612cec565b611ca8565b348015610a33575f80fd5b50d38015610a3f575f80fd5b50d28015610a4b575f80fd5b50610337610a5a366004612e45565b611cf1565b348015610a6a575f80fd5b50d38015610a76575f80fd5b50d28015610a82575f80fd5b50600354610805906001600160a01b031681565b348015610aa1575f80fd5b50d38015610aad575f80fd5b50d28015610ab9575f80fd5b50610805611e53565b348015610acd575f80fd5b50d38015610ad9575f80fd5b50d28015610ae5575f80fd5b5061024e610af4366004612c35565b611e7b565b348015610b04575f80fd5b50d38015610b10575f80fd5b50d28015610b1c575f80fd5b5061024e610b2b366004612c35565b611ee4565b348015610b3b575f80fd5b50d38015610b47575f80fd5b50d28015610b53575f80fd5b5061024e610b62366004612c35565b611f69565b60605f5f8051602061307b8339815191525b9050806003018054610b8a90612e6e565b80601f0160208091040260200160405190810160405280929190818152602001828054610bb690612e6e565b8015610c015780601f10610bd857610100808354040283529160200191610c01565b820191905f5260205f20905b815481529060010190602001808311610be457829003601f168201915b505050505091505090565b5f610c15611ffe565b805490915060ff600160401b820416159067ffffffffffffffff165f81158015610c3c5750825b90505f8267ffffffffffffffff166001148015610c585750303b155b905081158015610c66575080155b15610c845760405163f92ee8a960e01b815260040160405180910390fd5b845467ffffffffffffffff191660011785558315610cae57845460ff60401b1916600160401b1785555b610cb6612026565b610cc0888861202e565b610cc988612044565b610cd28661206f565b610cda612026565b610ce386612080565b466002558315610d2d57845460ff60401b19168555604051600181527fc7f505b2f371ae2175ee4913f4499e1f2633a7b5936321eed1cdaeb6115181d29060200160405180910390a15b5050505050505050565b610d3f612088565b60045460408051918252602082018390527f7a50a7cdd0cb8b1a12f7b5a18d811b9c8b415e05a60a875a6f917c2f465e97a8910160405180910390a1600455565b5f610d896120ba565b335f8181526020819052604090205460ff1615610dc957604051631d6e3c0160e21b81526001600160a01b03821660048201526024015b60405180910390fd5b6001600160a01b0384165f90815260208190526040902054849060ff1615610e0f57604051631d6e3c0160e21b81526001600160a01b0382166004820152602401610dc0565b33610e1b8187876120ea565b50600195945050505050565b610e2f6120fc565b6001600160a01b0316336001600160a01b031614610e5f5760405162461bcd60e51b8152600401610dc090612ea6565b6001600160a01b038116610e865760405163d92e233d60e01b815260040160405180910390fd5b475f819003610ea857604051631f2a200560e01b815260040160405180910390fd5b5f826001600160a01b0316826040515f6040518083038185875af1925050503d805f8114610ef1576040519150601f19603f3d011682016040523d82523d5f602084013e610ef6565b606091505b5050905080610f1857604051633f63173b60e11b815260040160405180910390fd5b826001600160a01b03167fa07a7c96cc7406722ea78961a08db3748f6d383d3add2983880f56deb26ccf4a83604051610f5391815260200190565b60405180910390a2505050565b5f610f696120ba565b6001600160a01b0384165f90815260208190526040902054849060ff1615610faf57604051631d6e3c0160e21b81526001600160a01b0382166004820152602401610dc0565b6001600160a01b0384165f90815260208190526040902054849060ff1615610ff557604051631d6e3c0160e21b81526001600160a01b0382166004820152602401610dc0565b33611001878287612105565b61100c878787612169565b5060019695505050505050565b5f6110226120ba565b6001600160a01b0385165f90815260208190526040902054859060ff161561106857604051631d6e3c0160e21b81526001600160a01b0382166004820152602401610dc0565b6003546001600160a01b0316331461109557604051635c0d8a7360e01b8152336004820152602401610dc0565b60015484146110ba57604051632c4dce9b60e21b815260048101859052602401610dc0565b60025483146110df5760405163331003b360e01b815260048101849052602401610dc0565b845f0361110257604051633728b83d60e01b815260048101869052602401610dc0565b600454851115611130576004805460405163494d91e960e01b81529182018790526024820152604401610dc0565b60018054905f61113f83612f01565b919050555061114e86866121c6565b6040518581526001600160a01b0387169033907fab8530f87dc9b59234c4623bf917212bb2536d647574c8e7e5da92c2ede0c9f89060200160405180910390a3836001600160a01b038716336001600160a01b03167fecc1c2abe0b9e5b2981c11ea4430f5223ef5082cc28f017c458dbb273aed8e12886040516111d491815260200190565b60405180910390a450600195945050505050565b6111f06120fc565b6001600160a01b0316336001600160a01b0316146112205760405162461bcd60e51b8152600401610dc090612ea6565b6001600160a01b0382166112475760405163d92e233d60e01b815260040160405180910390fd5b805f0361126757604051631f2a200560e01b815260040160405180910390fd5b80471015610ea857604051633f63173b60e11b815260040160405180910390fd5b5f6112916121fa565b905090565b5f6001600160a01b0382166112ac57505f919050565b6040516370a0823160e01b81523060048201526001600160a01b038316906370a0823190602401602060405180830381865afa1580156112ee573d5f803e3d5ffd5b505050506040513d601f19601f820116820180604052508101906113129190612f19565b92915050565b611320612088565b611328612203565b565b6001600160a01b0382165f90815260208190526040812054839060ff161561137057604051631d6e3c0160e21b81526001600160a01b0382166004820152602401610dc0565b611378612088565b61138284846121c6565b6040518381526001600160a01b0385169033907fab8530f87dc9b59234c4623bf917212bb2536d647574c8e7e5da92c2ede0c9f89060200160405180910390a35060019392505050565b5f6113d5612088565b6113df3383612262565b604051828152339081907fbac40739b0d4ca32fa2d82fc91630465ba3eddd1598da6fca393b26fb63b9453906020015b60405180910390a3506001919050565b6114276120fc565b6001600160a01b0316336001600160a01b0316146114575760405162461bcd60e51b8152600401610dc090612ea6565b6001600160a01b03821661147e5760405163d92e233d60e01b815260040160405180910390fd5b6001600160a01b0381166114a55760405163d92e233d60e01b815260040160405180910390fd5b306001600160a01b038316036114ce5760405163ddacedeb60e01b815260040160405180910390fd5b6040516370a0823160e01b815230600482015282905f906001600160a01b038316906370a0823190602401602060405180830381865afa158015611514573d5f803e3d5ffd5b505050506040513d601f19601f820116820180604052508101906115389190612f19565b9050805f0361155a57604051631f2a200560e01b815260040160405180910390fd5b60405163a9059cbb60e01b81526001600160a01b038481166004830152602482018390525f919084169063a9059cbb906044016020604051808303815f875af11580156115a9573d5f803e3d5ffd5b505050506040513d601f19601f820116820180604052508101906115cd9190612f30565b9050806115ed57604051633f63173b60e11b815260040160405180910390fd5b836001600160a01b0316856001600160a01b03167f77023e19c7343ad491fd706c36335ca0e738340a91f29b1fd81e2673d44896c48460405161163291815260200190565b60405180910390a35050505050565b5f805f8051602061307b8339815191525b6001600160a01b039093165f9081526020939093525050604090205490565b611679612088565b60405162461bcd60e51b815260206004820152600b60248201526a155b9cdd5c1c1bdc9d195960aa1b6044820152606401610dc0565b6116b7612088565b6001600160a01b0381165f81815260208190526040808220805460ff191690555133917f4f3ab9ff0cc4f039268532098e01239544b0420171876e36889d01c62c784c7991a350565b338061170a611e53565b6001600160a01b03161461173c5760405163118cdaa760e01b81526001600160a01b0382166004820152602401610dc0565b61174581612296565b50565b5f611312826122ce565b61175a612088565b6113286122f6565b5f60608082808083815f8051602061309b833981519152805490915015801561178d57506001810154155b6117d15760405162461bcd60e51b81526020600482015260156024820152741152540dcc4c8e88155b9a5b9a5d1a585b1a5e9959605a1b6044820152606401610dc0565b6117d961233e565b6117e161237c565b604080515f80825260208201909252600f60f81b9c939b5091995046985030975095509350915050565b5f807f9016d09d72d40fdae2fd8ceac6b6234c7706214fd39c1cd1e609a0528c1993005b546001600160a01b031692915050565b7f52c63247e1f47db19d5ce0460030c497f067ca4cebf71ba98eeadabe20bace0480546060915f8051602061307b83398151915291610b8a90612e6e565b611885612088565b6003546040515f916001600160a01b0316907f4dcfbb802c3ce803612559160f5d70539a491b5d0064b0d4d326788f0dec2730908390a3600380546001600160a01b0319169055565b5f6118d7612088565b6118e133836121c6565b604051828152339081907fab8530f87dc9b59234c4623bf917212bb2536d647574c8e7e5da92c2ede0c9f89060200161140f565b5f61191e6120ba565b335f8181526020819052604090205460ff161561195957604051631d6e3c0160e21b81526001600160a01b0382166004820152602401610dc0565b6001600160a01b0384165f90815260208190526040902054849060ff161561199f57604051631d6e3c0160e21b81526001600160a01b0382166004820152602401610dc0565b33610e1b818787612169565b6119b36120fc565b6001600160a01b0316336001600160a01b0316146119e35760405162461bcd60e51b8152600401610dc090612ea6565b6001600160a01b038316611a0a5760405163d92e233d60e01b815260040160405180910390fd5b6001600160a01b038216611a315760405163d92e233d60e01b815260040160405180910390fd5b805f03611a5157604051631f2a200560e01b815260040160405180910390fd5b306001600160a01b03841603611a7a5760405163ddacedeb60e01b815260040160405180910390fd5b60405163a9059cbb60e01b81526001600160a01b0383811660048301526024820183905284915f9183169063a9059cbb906044016020604051808303815f875af1158015611aca573d5f803e3d5ffd5b505050506040513d601f19601f82011682018060405250810190611aee9190612f30565b905080611b0e57604051633f63173b60e11b815260040160405180910390fd5b836001600160a01b0316856001600160a01b03167f77023e19c7343ad491fd706c36335ca0e738340a91f29b1fd81e2673d44896c48560405161163291815260200190565b83421115611b775760405163313c898160e11b815260048101859052602401610dc0565b5f7f6e71edae12b1b97f4d1f60370fef10105fa2faae0126114a169c64845d6126c9888888611be18c6001600160a01b03165f9081527f5ab42ced628888259c08ac98db1eb0cf702fc1501344311d8b100cd1bfe4bb006020526040902080546001810190915590565b6040805160208101969096526001600160a01b0394851690860152929091166060840152608083015260a082015260c0810186905260e0016040516020818303038152906040528051906020012090505f611c3b82612392565b90505f611c4a828787876123be565b9050896001600160a01b0316816001600160a01b031614611c91576040516325c0072360e11b81526001600160a01b0380831660048301528b166024820152604401610dc0565b611c9c8a8a8a6120ea565b50505050505050505050565b6001600160a01b039182165f9081527f52c63247e1f47db19d5ce0460030c497f067ca4cebf71ba98eeadabe20bace016020908152604080832093909416825291909152205490565b5f611cfa6120ba565b6003546001600160a01b03163314611d2757604051635c0d8a7360e01b8152336004820152602401610dc0565b6001548314611d4c57604051632c4dce9b60e21b815260048101849052602401610dc0565b6002548214611d715760405163331003b360e01b815260048101839052602401610dc0565b835f03611d9457604051633728b83d60e01b815260048101859052602401610dc0565b60018054905f611da383612f01565b91905055505f611db161180b565b9050611dbd8186612262565b6003546040518681526001600160a01b038381169216907fbac40739b0d4ca32fa2d82fc91630465ba3eddd1598da6fca393b26fb63b94539060200160405180910390a360035460405186815285916001600160a01b03848116929116907f9a38373a0903562b0424db0a574e0d2fe56b79cc9e0f488a89d7bd3f28082bd49060200160405180910390a4506001949350505050565b5f807f237e158222e3e6968b72b9db0d8043aacf074ad9f650f0d1606b4d82ee432c0061182f565b611e83612088565b6001600160a01b0381165f818152602081905260409020805460ff19166001179055611eac3390565b6001600160a01b03167f51d18786e9cb144f87d46e7b796309ea84c7c687d91e09c97f051eacf59bc52860405160405180910390a350565b611eec612088565b7f237e158222e3e6968b72b9db0d8043aacf074ad9f650f0d1606b4d82ee432c0080546001600160a01b0319166001600160a01b0383169081178255611f3061180b565b6001600160a01b03167f38d16b8cac22d99fc7c124b9cd0de2d3fa1faef420bfe791d8c362d765e2270060405160405180910390a35050565b611f71612088565b6001600160a01b038116611fa3576040516303d0181b60e31b81526001600160a01b0382166004820152602401610dc0565b6003546040516001600160a01b038084169216907f4dcfbb802c3ce803612559160f5d70539a491b5d0064b0d4d326788f0dec2730905f90a3600380546001600160a01b0319166001600160a01b0392909216919091179055565b5f807ff0c57e16840df040f15088dc2f81fe391c3923bec73e23a9662efc9c229c6a00611312565b6113286123ea565b6120366123ea565b612040828261240f565b5050565b61204c6123ea565b61174581604051806040016040528060018152602001603160f81b81525061245f565b6120776123ea565b611745816124be565b611f716123ea565b3361209161180b565b6001600160a01b0316146113285760405163118cdaa760e01b8152336004820152602401610dc0565b5f805160206130bb8339815191525460ff16156113285760405163d93c066560e01b815260040160405180910390fd5b6120f783838360016124ef565b505050565b5f61129161180b565b5f6121108484611ca8565b90505f19811015612163578181101561215557604051637dc7a0d960e11b81526001600160a01b03841660048201526024810182905260448101839052606401610dc0565b61216384848484035f6124ef565b50505050565b6001600160a01b03831661219257604051634b637e8f60e11b81525f6004820152602401610dc0565b6001600160a01b0382166121bb5760405163ec442f0560e01b81525f6004820152602401610dc0565b6120f78383836125ca565b6001600160a01b0382166121ef5760405163ec442f0560e01b81525f6004820152602401610dc0565b6120405f83836125ca565b5f6112916125d5565b61220b612648565b5f805160206130bb833981519152805460ff191681557f5db9ee0a495bf2e6ff9c91a7834c1ba4fdd244a5e8aa4e537bd38aeae4b073aa335b6040516001600160a01b03909116815260200160405180910390a150565b6001600160a01b03821661228b57604051634b637e8f60e11b81525f6004820152602401610dc0565b612040825f836125ca565b7f237e158222e3e6968b72b9db0d8043aacf074ad9f650f0d1606b4d82ee432c0080546001600160a01b031916815561204082612677565b5f807f5ab42ced628888259c08ac98db1eb0cf702fc1501344311d8b100cd1bfe4bb00611652565b6122fe6120ba565b5f805160206130bb833981519152805460ff191660011781557f62e78cea01bee320cd4e420270b5ea74000d11b0c9f74754ebdbfc544b05a25833612244565b7fa16a46d94261c7517cc8ff89f61c0ce93598e3c849801011dee649a6a557d10280546060915f8051602061309b83398151915291610b8a90612e6e565b60605f5f8051602061309b833981519152610b79565b5f61131261239e6121fa565b8360405161190160f01b8152600281019290925260228201526042902090565b5f805f806123ce888888886126e7565b9250925092506123de82826127af565b50909695505050505050565b6123f2612867565b61132857604051631afcd79f60e31b815260040160405180910390fd5b6124176123ea565b5f8051602061307b8339815191527f52c63247e1f47db19d5ce0460030c497f067ca4cebf71ba98eeadabe20bace036124508482612f93565b50600481016121638382612f93565b6124676123ea565b5f8051602061309b8339815191527fa16a46d94261c7517cc8ff89f61c0ce93598e3c849801011dee649a6a557d1026124a08482612f93565b50600381016124af8382612f93565b505f8082556001909101555050565b6124c66123ea565b6001600160a01b03811661173c57604051631e4fbdf760e01b81525f6004820152602401610dc0565b5f8051602061307b8339815191526001600160a01b0385166125265760405163e602df0560e01b81525f6004820152602401610dc0565b6001600160a01b03841661254f57604051634a1406b160e11b81525f6004820152602401610dc0565b6001600160a01b038086165f908152600183016020908152604080832093881683529290522083905581156125c357836001600160a01b0316856001600160a01b03167f8c5be1e5ebec7d5bd14f71427d1e84f3dd0314c0f7b2291e5b200ac8c7c3b9258560405161163291815260200190565b5050505050565b6120f7838383612880565b5f7f8b73c3c69bb8fe3d512ecc4cf759cc79239f7b179b0ffacaa9a75d522b39400f6125ff612893565b6126076128fb565b60408051602081019490945283019190915260608201524660808201523060a082015260c00160405160208183030381529060405280519060200120905090565b5f805160206130bb8339815191525460ff1661132857604051638dfc202b60e01b815260040160405180910390fd5b7f9016d09d72d40fdae2fd8ceac6b6234c7706214fd39c1cd1e609a0528c19930080546001600160a01b031981166001600160a01b03848116918217845560405192169182907f8be0079c531659141344cd1fd0a4f28419497f9722a3daafe3b4186f6b6457e0905f90a3505050565b5f80807f7fffffffffffffffffffffffffffffff5d576e7357a4501ddfe92f46681b20a084111561272057505f915060039050826127a5565b604080515f808252602082018084528a905260ff891692820192909252606081018790526080810186905260019060a0016020604051602081039080840390855afa158015612771573d5f803e3d5ffd5b5050604051601f1901519150506001600160a01b03811661279c57505f9250600191508290506127a5565b92505f91508190505b9450945094915050565b5f8260038111156127c2576127c2613053565b036127cb575050565b60018260038111156127df576127df613053565b036127fd5760405163f645eedf60e01b815260040160405180910390fd5b600282600381111561281157612811613053565b036128325760405163fce698f760e01b815260048101829052602401610dc0565b600382600381111561284657612846613053565b03612040576040516335e2f38360e21b815260048101829052602401610dc0565b5f612870611ffe565b54600160401b900460ff16919050565b6128886120ba565b6120f783838361293d565b5f5f8051602061309b833981519152816128ab61233e565b8051909150156128c357805160209091012092915050565b815480156128d2579392505050565b7fc5d2460186f7233c927e7db2dcc703c0e500b653ca82273b7bfad8045d85a470935050505090565b5f5f8051602061309b8339815191528161291361237c565b80519091501561292b57805160209091012092915050565b600182015480156128d2579392505050565b5f8051602061307b8339815191526001600160a01b0384166129775781816002015f82825461296c9190613067565b909155506129e79050565b6001600160a01b0384165f90815260208290526040902054828110156129c95760405163391434e360e21b81526001600160a01b03861660048201526024810182905260448101849052606401610dc0565b6001600160a01b0385165f9081526020839052604090209083900390555b6001600160a01b038316612a05576002810180548390039055612a23565b6001600160a01b0383165f9081526020829052604090208054830190555b826001600160a01b0316846001600160a01b03167fddf252ad1be2c89b69c2b068fc378daa952ba7f163c4a11628f55a4df523b3ef84604051612a6891815260200190565b60405180910390a350505050565b5f81518084528060208401602086015e5f602082860101526020601f19601f83011685010191505092915050565b602081525f612ab66020830184612a76565b9392505050565b634e487b7160e01b5f52604160045260245ffd5b5f82601f830112612ae0575f80fd5b813567ffffffffffffffff80821115612afb57612afb612abd565b604051601f8301601f19908116603f01168101908282118183101715612b2357612b23612abd565b81604052838152866020858801011115612b3b575f80fd5b836020870160208301375f602085830101528094505050505092915050565b6001600160a81b0381168114611745575f80fd5b5f805f60608486031215612b80575f80fd5b833567ffffffffffffffff80821115612b97575f80fd5b612ba387838801612ad1565b94506020860135915080821115612bb8575f80fd5b50612bc586828701612ad1565b9250506040840135612bd681612b5a565b9295919450506001600160a01b039091169150565b5f60208284031215612bfb575f80fd5b5035919050565b5f8060408385031215612c13575f80fd5b8235612c1e81612b5a565b6001600160a01b0316946020939093013593505050565b5f60208284031215612c45575f80fd5b8135612c5081612b5a565b6001600160a01b03169392505050565b5f805f60608486031215612c72575f80fd5b8335612c7d81612b5a565b6001600160a01b039081169350602085013590612c9982612b5a565b93969316945050506040919091013590565b5f805f8060808587031215612cbe575f80fd5b8435612cc981612b5a565b6001600160a01b0316966020860135965060408601359560600135945092505050565b5f8060408385031215612cfd575f80fd5b8235612d0881612b5a565b6001600160a01b039081169250602084013590612d2482612b5a565b92959216935090915050565b60ff60f81b881681525f602060e06020840152612d5060e084018a612a76565b8381036040850152612d62818a612a76565b606085018990526001600160a01b038816608086015260a0850187905284810360c0860152855180825260208088019350909101905f5b81811015612db557835183529284019291840191600101612d99565b50909c9b505050505050505050505050565b5f805f805f805f60e0888a031215612ddd575f80fd5b8735612de881612b5a565b6001600160a01b039081169750602089013590612e0482612b5a565b1695506040880135945060608801359350608088013560ff81168114612e28575f80fd5b9699959850939692959460a0840135945060c09093013592915050565b5f805f60608486031215612e57575f80fd5b505081359360208301359350604090920135919050565b600181811c90821680612e8257607f821691505b602082108103612ea057634e487b7160e01b5f52602260045260245ffd5b50919050565b60208082526027908201527f526573637561626c65546f6b656e3a2063616c6c6572206973206e6f74207468604082015266329037bbb732b960c91b606082015260800190565b634e487b7160e01b5f52601160045260245ffd5b5f60018201612f1257612f12612eed565b5060010190565b5f60208284031215612f29575f80fd5b5051919050565b5f60208284031215612f40575f80fd5b81518015158114612ab6575f80fd5b601f8211156120f757805f5260205f20601f840160051c81016020851015612f745750805b601f840160051c820191505b818110156125c3575f8155600101612f80565b815167ffffffffffffffff811115612fad57612fad612abd565b612fc181612fbb8454612e6e565b84612f4f565b602080601f831160018114612ff4575f8415612fdd5750858301515b5f19600386901b1c1916600185901b17855561304b565b5f85815260208120601f198616915b8281101561302257888601518255948401946001909101908401613003565b508582101561303f57878501515f19600388901b60f8161c191681555b505060018460011b0185555b505050505050565b634e487b7160e01b5f52602160045260245ffd5b8082018082111561131257611312612eed56fe52c63247e1f47db19d5ce0460030c497f067ca4cebf71ba98eeadabe20bace00a16a46d94261c7517cc8ff89f61c0ce93598e3c849801011dee649a6a557d100cd5ed15c6e187e77e9aee88184c21f4f2182ab5827cb3b7e07fbedcd63f03300a26474726f6e58221220e0ab373d32b91854d5cabd928274d710de3dc4cff7f150bef1d4b29e78783a6964736f6c63430008190033",
  "source": "// SPDX-License-Identifier: MIT\n\npragma solidity ^0.8.25;\n\nimport \"./RescuableToken.sol\";\nimport \"@openzeppelin/contracts-upgradeable/token/ERC20/extensions/ERC20PermitUpgradeable.sol\";\nimport \"@openzeppelin/contracts-upgradeable/access/Ownable2StepUpgradeable.sol\";\nimport \"@openzeppelin/contracts-upgradeable/token/ERC20/extensions/ERC20PausableUpgradeable.sol\";\n\ncontract Stablecoin is RescuableToken, ERC20PermitUpgradeable, Ownable2StepUpgradeable, ERC20PausableUpgradeable {\n\n    error CallerNotAutoOwner(address caller);\n    error NotAllowedAddress(address addr);\n    error FrozenAddress(address addr);\n    error InvalidNonce(uint256 nonce);\n    error InvalidChainId(uint256 chainId);\n    error InvalidAmount(uint256 amount);\n    error MintLimitExceeded(uint256 amount, uint256 limit);\n   \n    event Mint(address indexed caller, address indexed to, uint256 amount);\n    event AutoMint(address indexed caller, address indexed to, uint256 indexed seq, uint256 amount);\n    event Burn(address indexed caller, address indexed from, uint256 amount);\n    event AutoBurn(address indexed caller, address indexed from, uint256 indexed seq, uint256 amount);\n    event Freeze(address indexed caller, address indexed account);\n    event Unfreeze(address indexed caller, address indexed account);\n    event AutoOwnerTransferred(address indexed previousOwner, address indexed newOwner);\n    event SetAutoMintMaxLimit(uint256 previousLimit, uint256 newLimit);\n\n    mapping(address => bool) public frozen;\n\n    uint256 public nonce;\n    uint256 public chainId;\n    address public autoOwner;\n    uint256 public autoMintMaxLimit;\n\n    modifier onlyAutoOwner(){\n        if(msg.sender != autoOwner) revert CallerNotAutoOwner(msg.sender);\n        _;\n    }\n\n   /**\n     * @dev Constructor\n     */\n    constructor() {\n        _disableInitializers();\n    }\n\n   /**\n     * @dev Initializer method\n     */\n    function initialize(string memory _name, string memory _symbol, address _initOwner) public initializer {\n        __Context_init();\n        __ERC20_init(_name, _symbol);\n        __ERC20Permit_init(_name);\n        __Ownable_init(_initOwner); // v5 requires initial owner address\n        __Pausable_init();\n        __AutoOwnerInit(_initOwner);\n\n        chainId = block.chainid;\n    }\n\n   /**\n     * @dev Implementation of RescuableToken's _getRescueOwner\n     * Returns the contract owner from Ownable2StepUpgradeable\n     */\n    function _getRescueOwner() internal view override returns (address) {\n        return owner();\n    }\n\n   /**\n     * @dev Init auto owner\n     */\n    function __AutoOwnerInit(address _autoOwner) internal onlyInitializing {\n        if(_autoOwner == address(0)) revert NotAllowedAddress(_autoOwner);\n        emit AutoOwnerTransferred(autoOwner, _autoOwner);\n        autoOwner = _autoOwner;\n    }\n    \n    /**\n     * @dev Transfer auto owner\n     * @param _newAutoOwner new auto owner address\n     */\n    function transferAutoOwnership(address _newAutoOwner) external onlyOwner {\n        if(_newAutoOwner == address(0)) revert NotAllowedAddress(_newAutoOwner);\n        emit AutoOwnerTransferred(autoOwner, _newAutoOwner);\n        autoOwner = _newAutoOwner;\n    }\n\n    \n    /**\n     * @dev Rennounce auto owner\n     */\n    function renounceAutoOwnership() external onlyOwner {\n        emit AutoOwnerTransferred(autoOwner, address(0));\n        autoOwner = address(0);\n    }\n\n    /**\n     * @dev Throws if account is frozen.\n     */\n    modifier notFrozen(address account) {\n        if(frozen[account]) revert FrozenAddress(account);\n        _;\n    }\n\n    /**\n    *  @dev set auto mint max limit\n     * @param limit auto mint max limit\n     * Can only be called by the auto owner.\n     */\n    function setAutoMintMaxLimit(uint256 limit) external onlyOwner {\n        emit SetAutoMintMaxLimit(autoMintMaxLimit, limit);\n        autoMintMaxLimit = limit;\n    }\n\n    /** \n     * @dev See {ERC20-_mint}.\n     * @param amount Mint amount\n     * @return True if successful\n     * Can only be called by the current owner.\n     */\n    function mint(uint256 amount) external onlyOwner returns (bool) {\n        _mint(_msgSender(), amount);\n        emit Mint(_msgSender(), _msgSender(), amount);\n        return true;\n    }\n\n    /** \n     * @dev See {ERC20-_mint}.\n     * @param to Mint to address\n     * @param amount Mint amount\n     * @return True if successful\n     * Can only be called by the current owner.\n     */\n    function mint(address to, uint256 amount) external notFrozen(to) onlyOwner returns (bool) {\n        _mint(to, amount);\n        emit Mint(_msgSender(), to, amount);\n        return true;\n    }\n\n    /**\n     * @dev See {ERC20-_mint}.\n     * @param to Destination address\n     * @param amount Mint amount\n     * @param seq nonce\n     * @param chainIdParam chain id\n     * @return True if successful\n     * Can only be called by the current auto owner.\n     */\n    function autoMint(address to, uint256 amount, uint256 seq, uint256 chainIdParam) external whenNotPaused() notFrozen(to) onlyAutoOwner returns (bool) {\n        if(seq != nonce) revert InvalidNonce(seq);\n        if(chainIdParam != chainId) revert InvalidChainId(chainIdParam);\n        if(amount == 0) revert InvalidAmount(amount);\n        if(amount > autoMintMaxLimit) revert MintLimitExceeded(amount, autoMintMaxLimit);\n        nonce++;\n        _mint(to, amount);\n        emit Mint(_msgSender(), to, amount);\n        emit AutoMint(_msgSender(), to, seq, amount);\n        return true;\n    }\n\n    /**\n     * @dev See {ERC20-_burn}.\n     * @param amount Burn amount\n     * @return True if successful\n     * Can only be called by the current owner.\n     */\n    function burn(uint256 amount) external onlyOwner returns (bool) {\n        _burn(_msgSender(), amount);\n        emit Burn(_msgSender(), _msgSender(), amount);\n        return true;\n    }\n\n    /**\n     * @dev See {ERC20-_burn}.\n     * @param amount Burn amount\n     * @param seq nonce\n     * @param chainIdParam chain id\n     * @return True if successful\n     * Can only be called by the current auto owner.\n     */\n    function autoBurn(uint256 amount, uint256 seq, uint256 chainIdParam) external whenNotPaused() onlyAutoOwner returns (bool) {\n        if(seq != nonce) revert InvalidNonce(seq);\n        if(chainIdParam != chainId) revert InvalidChainId(chainIdParam);\n        if(amount == 0) revert InvalidAmount(amount);  \n        nonce++;\n        address owner = owner();\n        _burn(owner, amount);\n        emit Burn(autoOwner, owner, amount);\n        emit AutoBurn(autoOwner,owner, seq, amount);\n        return true;\n    }\n    \n    /**\n     * @dev Adds account to frozen state.\n     * Can only be called by the current owner.\n     */\n    function freezeAccount(address account) external onlyOwner {\n        frozen[account] = true;\n        emit Freeze(_msgSender(), account);\n    }\n\n    /**\n     * @dev Removes account from frozen state.\n     * Can only be called by the current owner.\n     */\n    function unfreezeAccount(address account) external onlyOwner {\n        delete frozen[account];\n        emit Unfreeze(_msgSender(), account);\n    }\n\n    /**\n     * @dev Triggers stopped state.\n     * Can only be called by the current owner.\n     */\n    function pause() external onlyOwner {\n        _pause();\n    }\n\n    /**\n     * @dev Returns to normal state.\n     * Can only be called by the current owner.\n     */\n    function unpause() external onlyOwner {\n        _unpause();\n    }\n\n    /**\n     * @dev Unsupported. Leaves the contract without owner.\n     */\n    function renounceOwnership() public view override onlyOwner {\n        revert(\"Unsupported\");\n    }\n\n    /**\n     * @dev See {ERC20-_transfer}.\n     * @param to Destination address\n     * @param amount Transfer amount\n     */\n    function transfer(address to, uint256 amount) public override whenNotPaused notFrozen(_msgSender()) notFrozen(to) returns (bool) {\n        address owner = _msgSender();\n        _transfer(owner, to, amount);\n        return true;\n    }\n\n\n    /**\n     * @dev See {ERC20-_approve}.\n     * @param spender Spender's address\n     * @param amount Allowance amount\n     */\n    function approve(address spender, uint256 amount) public override whenNotPaused notFrozen(_msgSender()) notFrozen(spender) returns (bool){\n        address owner = _msgSender();\n        _approve(owner, spender, amount);\n        return true;\n    }\n\n    /**\n     * @dev See {ERC20-_transferFrom}.\n     * @param from Source address\n     * @param to Destination address\n     * @param amount Transfer amount\n     */\n    function transferFrom(address from, address to, uint256 amount) public override whenNotPaused notFrozen(from) notFrozen(to) returns (bool) {\n        address spender = _msgSender();\n        _spendAllowance(from, spender, amount);\n        _transfer(from, to, amount);\n        return true;\n    }\n\n    /**\n     * @dev Hook that is called before any transfer of tokens.\n     * This includes minting and burning.\n     * Must override to resolve conflict between ERC20Upgradeable and ERC20PausableUpgradeable\n     */\n    function _update(address from, address to, uint256 value) internal virtual override(ERC20Upgradeable, ERC20PausableUpgradeable) {\n        super._update(from, to, value);\n    }\n\n}\n",
  "sourcePath": "contracts/Stablecoin.sol",
  "compiler": {
    "name": "solc",
    "version": "0.8.25+commit.77bd169f.Emscripten.clang"
  },
  "schemaVersion": "2.0.1",
  "updatedAt": "2026-01-04T08:40:22.929Z"
}