{
  "contractName": "StablecoinV2",
  "abi": [
    {
      "inputs": [
        {
          "internalType": "address",
          "name": "caller",
          "type": "address"
        }
      ],
      "name": "CallerNotAutoOwner",
      "type": "error"
    },
    {
      "inputs": [],
      "name": "CannotRescueOwnToken",
      "type": "error"
    },
    {
      "inputs": [],
      "name": "ECDSAInvalidSignature",
      "type": "error"
    },
    {
      "inputs": [
        {
          "internalType": "uint256",
          "name": "length",
          "type": "uint256"
        }
      ],
      "name": "ECDSAInvalidSignatureLength",
      "type": "error"
    },
    {
      "inputs": [
        {
          "internalType": "bytes32",
          "name": "s",
          "type": "bytes32"
        }
      ],
      "name": "ECDSAInvalidSignatureS",
      "type": "error"
    },
    {
      "inputs": [
        {
          "internalType": "address",
          "name": "spender",
          "type": "address"
        },
        {
          "internalType": "uint256",
          "name": "allowance",
          "type": "uint256"
        },
        {
          "internalType": "uint256",
          "name": "needed",
          "type": "uint256"
        }
      ],
      "name": "ERC20InsufficientAllowance",
      "type": "error"
    },
    {
      "inputs": [
        {
          "internalType": "address",
          "name": "sender",
          "type": "address"
        },
        {
          "internalType": "uint256",
          "name": "balance",
          "type": "uint256"
        },
        {
          "internalType": "uint256",
          "name": "needed",
          "type": "uint256"
        }
      ],
      "name": "ERC20InsufficientBalance",
      "type": "error"
    },
    {
      "inputs": [
        {
          "internalType": "address",
          "name": "approver",
          "type": "address"
        }
      ],
      "name": "ERC20InvalidApprover",
      "type": "error"
    },
    {
      "inputs": [
        {
          "internalType": "address",
          "name": "receiver",
          "type": "address"
        }
      ],
      "name": "ERC20InvalidReceiver",
      "type": "error"
    },
    {
      "inputs": [
        {
          "internalType": "address",
          "name": "sender",
          "type": "address"
        }
      ],
      "name": "ERC20InvalidSender",
      "type": "error"
    },
    {
      "inputs": [
        {
          "internalType": "address",
          "name": "spender",
          "type": "address"
        }
      ],
      "name": "ERC20InvalidSpender",
      "type": "error"
    },
    {
      "inputs": [
        {
          "internalType": "uint256",
          "name": "deadline",
          "type": "uint256"
        }
      ],
      "name": "ERC2612ExpiredSignature",
      "type": "error"
    },
    {
      "inputs": [
        {
          "internalType": "address",
          "name": "signer",
          "type": "address"
        },
        {
          "internalType": "address",
          "name": "owner",
          "type": "address"
        }
      ],
      "name": "ERC2612InvalidSigner",
      "type": "error"
    },
    {
      "inputs": [],
      "name": "EnforcedPause",
      "type": "error"
    },
    {
      "inputs": [],
      "name": "ExpectedPause",
      "type": "error"
    },
    {
      "inputs": [
        {
          "internalType": "address",
          "name": "addr",
          "type": "address"
        }
      ],
      "name": "FrozenAddress",
      "type": "error"
    },
    {
      "inputs": [
        {
          "internalType": "address",
          "name": "account",
          "type": "address"
        },
        {
          "internalType": "uint256",
          "name": "currentNonce",
          "type": "uint256"
        }
      ],
      "name": "InvalidAccountNonce",
      "type": "error"
    },
    {
      "inputs": [
        {
          "internalType": "uint256",
          "name": "amount",
          "type": "uint256"
        }
      ],
      "name": "InvalidAmount",
      "type": "error"
    },
    {
      "inputs": [
        {
          "internalType": "uint256",
          "name": "chainId",
          "type": "uint256"
        }
      ],
      "name": "InvalidChainId",
      "type": "error"
    },
    {
      "inputs": [],
      "name": "InvalidInitialization",
      "type": "error"
    },
    {
      "inputs": [
        {
          "internalType": "uint256",
          "name": "nonce",
          "type": "uint256"
        }
      ],
      "name": "InvalidNonce",
      "type": "error"
    },
    {
      "inputs": [
        {
          "internalType": "uint256",
          "name": "amount",
          "type": "uint256"
        },
        {
          "internalType": "uint256",
          "name": "limit",
          "type": "uint256"
        }
      ],
      "name": "MintLimitExceeded",
      "type": "error"
    },
    {
      "inputs": [
        {
          "internalType": "address",
          "name": "addr",
          "type": "address"
        }
      ],
      "name": "NotAllowedAddress",
      "type": "error"
    },
    {
      "inputs": [],
      "name": "NotInitializing",
      "type": "error"
    },
    {
      "inputs": [
        {
          "internalType": "address",
          "name": "owner",
          "type": "address"
        }
      ],
      "name": "OwnableInvalidOwner",
      "type": "error"
    },
    {
      "inputs": [
        {
          "internalType": "address",
          "name": "account",
          "type": "address"
        }
      ],
      "name": "OwnableUnauthorizedAccount",
      "type": "error"
    },
    {
      "inputs": [],
      "name": "RescueTransferFailed",
      "type": "error"
    },
    {
      "inputs": [],
      "name": "ZeroAddress",
      "type": "error"
    },
    {
      "inputs": [],
      "name": "ZeroAmount",
      "type": "error"
    },
    {
      "anonymous": false,
      "inputs": [
        {
          "indexed": true,
          "internalType": "address",
          "name": "owner",
          "type": "address"
        },
        {
          "indexed": true,
          "internalType": "address",
          "name": "spender",
          "type": "address"
        },
        {
          "indexed": false,
          "internalType": "uint256",
          "name": "value",
          "type": "uint256"
        }
      ],
      "name": "Approval",
      "type": "event"
    },
    {
      "anonymous": false,
      "inputs": [
        {
          "indexed": true,
          "internalType": "address",
          "name": "caller",
          "type": "address"
        },
        {
          "indexed": true,
          "internalType": "address",
          "name": "from",
          "type": "address"
        },
        {
          "indexed": true,
          "internalType": "uint256",
          "name": "seq",
          "type": "uint256"
        },
        {
          "indexed": false,
          "internalType": "uint256",
          "name": "amount",
          "type": "uint256"
        }
      ],
      "name": "AutoBurn",
      "type": "event"
    },
    {
      "anonymous": false,
      "inputs": [
        {
          "indexed": true,
          "internalType": "address",
          "name": "caller",
          "type": "address"
        },
        {
          "indexed": true,
          "internalType": "address",
          "name": "to",
          "type": "address"
        },
        {
          "indexed": true,
          "internalType": "uint256",
          "name": "seq",
          "type": "uint256"
        },
        {
          "indexed": false,
          "internalType": "uint256",
          "name": "amount",
          "type": "uint256"
        }
      ],
      "name": "AutoMint",
      "type": "event"
    },
    {
      "anonymous": false,
      "inputs": [
        {
          "indexed": true,
          "internalType": "address",
          "name": "previousOwner",
          "type": "address"
        },
        {
          "indexed": true,
          "internalType": "address",
          "name": "newOwner",
          "type": "address"
        }
      ],
      "name": "AutoOwnerTransferred",
      "type": "event"
    },
    {
      "anonymous": false,
      "inputs": [
        {
          "indexed": true,
          "internalType": "address",
          "name": "caller",
          "type": "address"
        },
        {
          "indexed": true,
          "internalType": "address",
          "name": "from",
          "type": "address"
        },
        {
          "indexed": false,
          "internalType": "uint256",
          "name": "amount",
          "type": "uint256"
        }
      ],
      "name": "Burn",
      "type": "event"
    },
    {
      "anonymous": false,
      "inputs": [],
      "name": "EIP712DomainChanged",
      "type": "event"
    },
    {
      "anonymous": false,
      "inputs": [
        {
          "indexed": true,
          "internalType": "address",
          "name": "caller",
          "type": "address"
        },
        {
          "indexed": true,
          "internalType": "address",
          "name": "account",
          "type": "address"
        }
      ],
      "name": "Freeze",
      "type": "event"
    },
    {
      "anonymous": false,
      "inputs": [
        {
          "indexed": false,
          "internalType": "uint64",
          "name": "version",
          "type": "uint64"
        }
      ],
      "name": "Initialized",
      "type": "event"
    },
    {
      "anonymous": false,
      "inputs": [
        {
          "indexed": true,
          "internalType": "address",
          "name": "caller",
          "type": "address"
        },
        {
          "indexed": true,
          "internalType": "address",
          "name": "to",
          "type": "address"
        },
        {
          "indexed": false,
          "internalType": "uint256",
          "name": "amount",
          "type": "uint256"
        }
      ],
      "name": "Mint",
      "type": "event"
    },
    {
      "anonymous": false,
      "inputs": [
        {
          "indexed": true,
          "internalType": "address",
          "name": "to",
          "type": "address"
        },
        {
          "indexed": false,
          "internalType": "uint256",
          "name": "amount",
          "type": "uint256"
        }
      ],
      "name": "NativeTokenRescued",
      "type": "event"
    },
    {
      "anonymous": false,
      "inputs": [
        {
          "indexed": true,
          "internalType": "address",
          "name": "previousOwner",
          "type": "address"
        },
        {
          "indexed": true,
          "internalType": "address",
          "name": "newOwner",
          "type": "address"
        }
      ],
      "name": "OwnershipTransferStarted",
      "type": "event"
    },
    {
      "anonymous": false,
      "inputs": [
        {
          "indexed": true,
          "internalType": "address",
          "name": "previousOwner",
          "type": "address"
        },
        {
          "indexed": true,
          "internalType": "address",
          "name": "newOwner",
          "type": "address"
        }
      ],
      "name": "OwnershipTransferred",
      "type": "event"
    },
    {
      "anonymous": false,
      "inputs": [
        {
          "indexed": false,
          "internalType": "address",
          "name": "account",
          "type": "address"
        }
      ],
      "name": "Paused",
      "type": "event"
    },
    {
      "anonymous": false,
      "inputs": [
        {
          "indexed": false,
          "internalType": "uint256",
          "name": "previousLimit",
          "type": "uint256"
        },
        {
          "indexed": false,
          "internalType": "uint256",
          "name": "newLimit",
          "type": "uint256"
        }
      ],
      "name": "SetAutoMintMaxLimit",
      "type": "event"
    },
    {
      "anonymous": false,
      "inputs": [
        {
          "indexed": true,
          "internalType": "address",
          "name": "token",
          "type": "address"
        },
        {
          "indexed": true,
          "internalType": "address",
          "name": "to",
          "type": "address"
        },
        {
          "indexed": false,
          "internalType": "uint256",
          "name": "amount",
          "type": "uint256"
        }
      ],
      "name": "TokensRescued",
      "type": "event"
    },
    {
      "anonymous": false,
      "inputs": [
        {
          "indexed": true,
          "internalType": "address",
          "name": "from",
          "type": "address"
        },
        {
          "indexed": true,
          "internalType": "address",
          "name": "to",
          "type": "address"
        },
        {
          "indexed": false,
          "internalType": "uint256",
          "name": "value",
          "type": "uint256"
        }
      ],
      "name": "Transfer",
      "type": "event"
    },
    {
      "anonymous": false,
      "inputs": [
        {
          "indexed": true,
          "internalType": "address",
          "name": "caller",
          "type": "address"
        },
        {
          "indexed": true,
          "internalType": "address",
          "name": "account",
          "type": "address"
        }
      ],
      "name": "Unfreeze",
      "type": "event"
    },
    {
      "anonymous": false,
      "inputs": [
        {
          "indexed": false,
          "internalType": "address",
          "name": "account",
          "type": "address"
        }
      ],
      "name": "Unpaused",
      "type": "event"
    },
    {
      "stateMutability": "payable",
      "type": "fallback"
    },
    {
      "inputs": [],
      "name": "DOMAIN_SEPARATOR",
      "outputs": [
        {
          "internalType": "bytes32",
          "name": "",
          "type": "bytes32"
        }
      ],
      "stateMutability": "view",
      "type": "function"
    },
    {
      "inputs": [],
      "name": "acceptOwnership",
      "outputs": [],
      "stateMutability": "nonpayable",
      "type": "function"
    },
    {
      "inputs": [
        {
          "internalType": "address",
          "name": "owner",
          "type": "address"
        },
        {
          "internalType": "address",
          "name": "spender",
          "type": "address"
        }
      ],
      "name": "allowance",
      "outputs": [
        {
          "internalType": "uint256",
          "name": "",
          "type": "uint256"
        }
      ],
      "stateMutability": "view",
      "type": "function"
    },
    {
      "inputs": [
        {
          "internalType": "address",
          "name": "spender",
          "type": "address"
        },
        {
          "internalType": "uint256",
          "name": "amount",
          "type": "uint256"
        }
      ],
      "name": "approve",
      "outputs": [
        {
          "internalType": "bool",
          "name": "",
          "type": "bool"
        }
      ],
      "stateMutability": "nonpayable",
      "type": "function"
    },
    {
      "inputs": [
        {
          "internalType": "uint256",
          "name": "amount",
          "type": "uint256"
        },
        {
          "internalType": "uint256",
          "name": "seq",
          "type": "uint256"
        },
        {
          "internalType": "uint256",
          "name": "chainIdParam",
          "type": "uint256"
        }
      ],
      "name": "autoBurn",
      "outputs": [
        {
          "internalType": "bool",
          "name": "",
          "type": "bool"
        }
      ],
      "stateMutability": "nonpayable",
      "type": "function"
    },
    {
      "inputs": [
        {
          "internalType": "address",
          "name": "to",
          "type": "address"
        },
        {
          "internalType": "uint256",
          "name": "amount",
          "type": "uint256"
        },
        {
          "internalType": "uint256",
          "name": "seq",
          "type": "uint256"
        },
        {
          "internalType": "uint256",
          "name": "chainIdParam",
          "type": "uint256"
        }
      ],
      "name": "autoMint",
      "outputs": [
        {
          "internalType": "bool",
          "name": "",
          "type": "bool"
        }
      ],
      "stateMutability": "nonpayable",
      "type": "function"
    },
    {
      "inputs": [],
      "name": "autoMintMaxLimit",
      "outputs": [
        {
          "internalType": "uint256",
          "name": "",
          "type": "uint256"
        }
      ],
      "stateMutability": "view",
      "type": "function"
    },
    {
      "inputs": [],
      "name": "autoOwner",
      "outputs": [
        {
          "internalType": "address",
          "name": "",
          "type": "address"
        }
      ],
      "stateMutability": "view",
      "type": "function"
    },
    {
      "inputs": [
        {
          "internalType": "address",
          "name": "account",
          "type": "address"
        }
      ],
      "name": "balanceOf",
      "outputs": [
        {
          "internalType": "uint256",
          "name": "",
          "type": "uint256"
        }
      ],
      "stateMutability": "view",
      "type": "function"
    },
    {
      "inputs": [
        {
          "internalType": "uint256",
          "name": "amount",
          "type": "uint256"
        }
      ],
      "name": "burn",
      "outputs": [
        {
          "internalType": "bool",
          "name": "",
          "type": "bool"
        }
      ],
      "stateMutability": "nonpayable",
      "type": "function"
    },
    {
      "inputs": [],
      "name": "chainId",
      "outputs": [
        {
          "internalType": "uint256",
          "name": "",
          "type": "uint256"
        }
      ],
      "stateMutability": "view",
      "type": "function"
    },
    {
      "inputs": [],
      "name": "decimals",
      "outputs": [
        {
          "internalType": "uint8",
          "name": "",
          "type": "uint8"
        }
      ],
      "stateMutability": "view",
      "type": "function"
    },
    {
      "inputs": [],
      "name": "eip712Domain",
      "outputs": [
        {
          "internalType": "bytes1",
          "name": "fields",
          "type": "bytes1"
        },
        {
          "internalType": "string",
          "name": "name",
          "type": "string"
        },
        {
          "internalType": "string",
          "name": "version",
          "type": "string"
        },
        {
          "internalType": "uint256",
          "name": "chainId",
          "type": "uint256"
        },
        {
          "internalType": "address",
          "name": "verifyingContract",
          "type": "address"
        },
        {
          "internalType": "bytes32",
          "name": "salt",
          "type": "bytes32"
        },
        {
          "internalType": "uint256[]",
          "name": "extensions",
          "type": "uint256[]"
        }
      ],
      "stateMutability": "view",
      "type": "function"
    },
    {
      "inputs": [
        {
          "internalType": "address",
          "name": "account",
          "type": "address"
        }
      ],
      "name": "freezeAccount",
      "outputs": [],
      "stateMutability": "nonpayable",
      "type": "function"
    },
    {
      "inputs": [
        {
          "internalType": "address",
          "name": "",
          "type": "address"
        }
      ],
      "name": "frozen",
      "outputs": [
        {
          "internalType": "bool",
          "name": "",
          "type": "bool"
        }
      ],
      "stateMutability": "view",
      "type": "function"
    },
    {
      "inputs": [],
      "name": "getNativeBalance",
      "outputs": [
        {
          "internalType": "uint256",
          "name": "",
          "type": "uint256"
        }
      ],
      "stateMutability": "view",
      "type": "function"
    },
    {
      "inputs": [
        {
          "internalType": "address",
          "name": "token",
          "type": "address"
        }
      ],
      "name": "getTokenBalance",
      "outputs": [
        {
          "internalType": "uint256",
          "name": "",
          "type": "uint256"
        }
      ],
      "stateMutability": "view",
      "type": "function"
    },
    {
      "inputs": [
        {
          "internalType": "string",
          "name": "_name",
          "type": "string"
        },
        {
          "internalType": "string",
          "name": "_symbol",
          "type": "string"
        },
        {
          "internalType": "address",
          "name": "_initOwner",
          "type": "address"
        }
      ],
      "name": "initialize",
      "outputs": [],
      "stateMutability": "nonpayable",
      "type": "function"
    },
    {
      "inputs": [
        {
          "internalType": "address",
          "name": "to",
          "type": "address"
        },
        {
          "internalType": "uint256",
          "name": "amount",
          "type": "uint256"
        }
      ],
      "name": "mint",
      "outputs": [
        {
          "internalType": "bool",
          "name": "",
          "type": "bool"
        }
      ],
      "stateMutability": "nonpayable",
      "type": "function"
    },
    {
      "inputs": [
        {
          "internalType": "uint256",
          "name": "amount",
          "type": "uint256"
        }
      ],
      "name": "mint",
      "outputs": [
        {
          "internalType": "bool",
          "name": "",
          "type": "bool"
        }
      ],
      "stateMutability": "nonpayable",
      "type": "function"
    },
    {
      "inputs": [],
      "name": "name",
      "outputs": [
        {
          "internalType": "string",
          "name": "",
          "type": "string"
        }
      ],
      "stateMutability": "view",
      "type": "function"
    },
    {
      "inputs": [],
      "name": "nonce",
      "outputs": [
        {
          "internalType": "uint256",
          "name": "",
          "type": "uint256"
        }
      ],
      "stateMutability": "view",
      "type": "function"
    },
    {
      "inputs": [
        {
          "internalType": "address",
          "name": "owner",
          "type": "address"
        }
      ],
      "name": "nonces",
      "outputs": [
        {
          "internalType": "uint256",
          "name": "",
          "type": "uint256"
        }
      ],
      "stateMutability": "view",
      "type": "function"
    },
    {
      "inputs": [],
      "name": "owner",
      "outputs": [
        {
          "internalType": "address",
          "name": "",
          "type": "address"
        }
      ],
      "stateMutability": "view",
      "type": "function"
    },
    {
      "inputs": [],
      "name": "pause",
      "outputs": [],
      "stateMutability": "nonpayable",
      "type": "function"
    },
    {
      "inputs": [],
      "name": "paused",
      "outputs": [
        {
          "internalType": "bool",
          "name": "",
          "type": "bool"
        }
      ],
      "stateMutability": "view",
      "type": "function"
    },
    {
      "inputs": [],
      "name": "pendingOwner",
      "outputs": [
        {
          "internalType": "address",
          "name": "",
          "type": "address"
        }
      ],
      "stateMutability": "view",
      "type": "function"
    },
    {
      "inputs": [
        {
          "internalType": "address",
          "name": "owner",
          "type": "address"
        },
        {
          "internalType": "address",
          "name": "spender",
          "type": "address"
        },
        {
          "internalType": "uint256",
          "name": "value",
          "type": "uint256"
        },
        {
          "internalType": "uint256",
          "name": "deadline",
          "type": "uint256"
        },
        {
          "internalType": "uint8",
          "name": "v",
          "type": "uint8"
        },
        {
          "internalType": "bytes32",
          "name": "r",
          "type": "bytes32"
        },
        {
          "internalType": "bytes32",
          "name": "s",
          "type": "bytes32"
        }
      ],
      "name": "permit",
      "outputs": [],
      "stateMutability": "nonpayable",
      "type": "function"
    },
    {
      "inputs": [],
      "name": "renounceAutoOwnership",
      "outputs": [],
      "stateMutability": "nonpayable",
      "type": "function"
    },
    {
      "inputs": [],
      "name": "renounceOwnership",
      "outputs": [],
      "stateMutability": "view",
      "type": "function"
    },
    {
      "inputs": [
        {
          "internalType": "address payable",
          "name": "to",
          "type": "address"
        }
      ],
      "name": "rescueAllNativeToken",
      "outputs": [],
      "stateMutability": "nonpayable",
      "type": "function"
    },
    {
      "inputs": [
        {
          "internalType": "address",
          "name": "token",
          "type": "address"
        },
        {
          "internalType": "address",
          "name": "to",
          "type": "address"
        }
      ],
      "name": "rescueAllTokens",
      "outputs": [],
      "stateMutability": "nonpayable",
      "type": "function"
    },
    {
      "inputs": [
        {
          "internalType": "address payable",
          "name": "to",
          "type": "address"
        },
        {
          "internalType": "uint256",
          "name": "amount",
          "type": "uint256"
        }
      ],
      "name": "rescueNativeToken",
      "outputs": [],
      "stateMutability": "nonpayable",
      "type": "function"
    },
    {
      "inputs": [
        {
          "internalType": "address",
          "name": "token",
          "type": "address"
        },
        {
          "internalType": "address",
          "name": "to",
          "type": "address"
        },
        {
          "internalType": "uint256",
          "name": "amount",
          "type": "uint256"
        }
      ],
      "name": "rescueTokens",
      "outputs": [],
      "stateMutability": "nonpayable",
      "type": "function"
    },
    {
      "inputs": [
        {
          "internalType": "uint256",
          "name": "limit",
          "type": "uint256"
        }
      ],
      "name": "setAutoMintMaxLimit",
      "outputs": [],
      "stateMutability": "nonpayable",
      "type": "function"
    },
    {
      "inputs": [],
      "name": "symbol",
      "outputs": [
        {
          "internalType": "string",
          "name": "",
          "type": "string"
        }
      ],
      "stateMutability": "view",
      "type": "function"
    },
    {
      "inputs": [],
      "name": "totalSupply",
      "outputs": [
        {
          "internalType": "uint256",
          "name": "",
          "type": "uint256"
        }
      ],
      "stateMutability": "view",
      "type": "function"
    },
    {
      "inputs": [
        {
          "internalType": "address",
          "name": "to",
          "type": "address"
        },
        {
          "internalType": "uint256",
          "name": "amount",
          "type": "uint256"
        }
      ],
      "name": "transfer",
      "outputs": [
        {
          "internalType": "bool",
          "name": "",
          "type": "bool"
        }
      ],
      "stateMutability": "nonpayable",
      "type": "function"
    },
    {
      "inputs": [
        {
          "internalType": "address",
          "name": "_newAutoOwner",
          "type": "address"
        }
      ],
      "name": "transferAutoOwnership",
      "outputs": [],
      "stateMutability": "nonpayable",
      "type": "function"
    },
    {
      "inputs": [
        {
          "internalType": "address",
          "name": "from",
          "type": "address"
        },
        {
          "internalType": "address",
          "name": "to",
          "type": "address"
        },
        {
          "internalType": "uint256",
          "name": "amount",
          "type": "uint256"
        }
      ],
      "name": "transferFrom",
      "outputs": [
        {
          "internalType": "bool",
          "name": "",
          "type": "bool"
        }
      ],
      "stateMutability": "nonpayable",
      "type": "function"
    },
    {
      "inputs": [
        {
          "internalType": "address",
          "name": "newOwner",
          "type": "address"
        }
      ],
      "name": "transferOwnership",
      "outputs": [],
      "stateMutability": "nonpayable",
      "type": "function"
    },
    {
      "inputs": [
        {
          "internalType": "address",
          "name": "account",
          "type": "address"
        }
      ],
      "name": "unfreezeAccount",
      "outputs": [],
      "stateMutability": "nonpayable",
      "type": "function"
    },
    {
      "inputs": [],
      "name": "unpause",
      "outputs": [],
      "stateMutability": "nonpayable",
      "type": "function"
    },
    {
      "inputs": [],
      "name": "versionV2",
      "outputs": [
        {
          "internalType": "string",
          "name": "",
          "type": "string"
        }
      ],
      "stateMutability": "pure",
      "type": "function"
    },
    {
      "stateMutability": "payable",
      "type": "receive"
    }
  ],
  "bytecode": "0x6080604052348015600e575f80fd5b50d380156019575f80fd5b50d280156024575f80fd5b50602b602f565b60df565b7ff0c57e16840df040f15088dc2f81fe391c3923bec73e23a9662efc9c229c6a00805468010000000000000000900460ff1615607e5760405163f92ee8a960e01b815260040160405180910390fd5b80546001600160401b039081161460dc5780546001600160401b0319166001600160401b0390811782556040519081527fc7f505b2f371ae2175ee4913f4499e1f2633a7b5936321eed1cdaeb6115181d29060200160405180910390a15b50565b61315d806100ec5f395ff3fe608060405260043610610252575f3560e01c80637ecebe0011610137578063cea9d26f116100af578063df63d46a11610076578063df63d46a14610a75578063dfdcfc3714610aac578063e30c397814610ae3578063f26c159f14610b0f578063f2fde38b14610b46578063fdc86aa014610b7d57005b8063cea9d26f14610948578063d05166501461097f578063d505accf146109c5578063dd62ed3e146109fc578063dd6926f914610a3357005b806395d89b41116100fe57806395d89b41146108285780639a8a0592146108545780639dcc9d2a14610881578063a0712d68146108ad578063a9059cbb146108e4578063affed0e01461091b57005b80637ecebe00146107185780638456cb591461074f57806384b0196e1461077b57806388a9d554146107ba5780638da5cb5b146107e457005b80633644e515116101ca5780635c975abb116101915780635c975abb146105e05780635d5c52d01461061b57806370a0823114610652578063715018a614610689578063788649ea146106b557806379ba5097146106ec57005b80633644e515146104e35780633aecd0e31461050f5780633f4ba83a1461054657806340c10f191461057257806342966c68146105a957005b806318160ddd1161021957806318160ddd1461038957806323b872dd146103de578063268cbc27146104155780632959b545146104425780632a04b41814610479578063313ce567146104b057005b806306fdde031461025b578063077f224a1461029d57806307c81df0146102d4578063095ea7b31461030b5780630bde6c761461035257005b3661025957005b005b348015610266575f80fd5b50d38015610272575f80fd5b50d2801561027e575f80fd5b50610287610bb4565b6040516102949190612af1565b60405180910390f35b3480156102a8575f80fd5b50d380156102b4575f80fd5b50d280156102c0575f80fd5b506102596102cf366004612bbb565b610c59565b3480156102df575f80fd5b50d380156102eb575f80fd5b50d280156102f7575f80fd5b50610259610306366004612c38565b610d84565b348015610316575f80fd5b50d38015610322575f80fd5b50d2801561032e575f80fd5b5061034261033d366004612c4f565b610dcd565b6040519015158152602001610294565b34801561035d575f80fd5b50d38015610369575f80fd5b50d28015610375575f80fd5b50610259610384366004612c82565b610e74565b348015610394575f80fd5b50d380156103a0575f80fd5b50d280156103ac575f80fd5b507f52c63247e1f47db19d5ce0460030c497f067ca4cebf71ba98eeadabe20bace02545b604051908152602001610294565b3480156103e9575f80fd5b50d380156103f5575f80fd5b50d28015610401575f80fd5b50610342610410366004612cad565b610fad565b348015610420575f80fd5b50d3801561042c575f80fd5b50d28015610438575f80fd5b506103d060045481565b34801561044d575f80fd5b50d38015610459575f80fd5b50d28015610465575f80fd5b50610342610474366004612cf8565b611066565b348015610484575f80fd5b50d38015610490575f80fd5b50d2801561049c575f80fd5b506102596104ab366004612c4f565b611235565b3480156104bb575f80fd5b50d380156104c7575f80fd5b50d280156104d3575f80fd5b5060405160128152602001610294565b3480156104ee575f80fd5b50d380156104fa575f80fd5b50d28015610506575f80fd5b506103d06112d5565b34801561051a575f80fd5b50d38015610526575f80fd5b50d28015610532575f80fd5b506103d0610541366004612c82565b6112e3565b348015610551575f80fd5b50d3801561055d575f80fd5b50d28015610569575f80fd5b50610259611365565b34801561057d575f80fd5b50d38015610589575f80fd5b50d28015610595575f80fd5b506103426105a4366004612c4f565b611377565b3480156105b4575f80fd5b50d380156105c0575f80fd5b50d280156105cc575f80fd5b506103426105db366004612c38565b611419565b3480156105eb575f80fd5b50d380156105f7575f80fd5b50d28015610603575f80fd5b505f805160206131088339815191525460ff16610342565b348015610626575f80fd5b50d38015610632575f80fd5b50d2801561063e575f80fd5b5061025961064d366004612d39565b61146c565b34801561065d575f80fd5b50d38015610669575f80fd5b50d28015610675575f80fd5b506103d0610684366004612c82565b61168e565b348015610694575f80fd5b50d380156106a0575f80fd5b50d280156106ac575f80fd5b506102596116be565b3480156106c0575f80fd5b50d380156106cc575f80fd5b50d280156106d8575f80fd5b506102596106e7366004612c82565b6116fc565b3480156106f7575f80fd5b50d38015610703575f80fd5b50d2801561070f575f80fd5b5061025961174d565b348015610723575f80fd5b50d3801561072f575f80fd5b50d2801561073b575f80fd5b506103d061074a366004612c82565b611795565b34801561075a575f80fd5b50d38015610766575f80fd5b50d28015610772575f80fd5b5061025961179f565b348015610786575f80fd5b50d38015610792575f80fd5b50d2801561079e575f80fd5b506107a76117af565b6040516102949796959493929190612d7d565b3480156107c5575f80fd5b50d380156107d1575f80fd5b50d280156107dd575f80fd5b50476103d0565b3480156107ef575f80fd5b50d380156107fb575f80fd5b50d28015610807575f80fd5b50610810611858565b6040516001600160a01b039091168152602001610294565b348015610833575f80fd5b50d3801561083f575f80fd5b50d2801561084b575f80fd5b5061028761188c565b34801561085f575f80fd5b50d3801561086b575f80fd5b50d28015610877575f80fd5b506103d060025481565b34801561088c575f80fd5b50d38015610898575f80fd5b50d280156108a4575f80fd5b506102596118ca565b3480156108b8575f80fd5b50d380156108c4575f80fd5b50d280156108d0575f80fd5b506103426108df366004612c38565b61191b565b3480156108ef575f80fd5b50d380156108fb575f80fd5b50d28015610907575f80fd5b50610342610916366004612c4f565b611962565b348015610926575f80fd5b50d38015610932575f80fd5b50d2801561093e575f80fd5b506103d060015481565b348015610953575f80fd5b50d3801561095f575f80fd5b50d2801561096b575f80fd5b5061025961097a366004612cad565b6119f8565b34801561098a575f80fd5b50d38015610996575f80fd5b50d280156109a2575f80fd5b506103426109b1366004612c82565b5f6020819052908152604090205460ff1681565b3480156109d0575f80fd5b50d380156109dc575f80fd5b50d280156109e8575f80fd5b506102596109f7366004612e14565b611ba0565b348015610a07575f80fd5b50d38015610a13575f80fd5b50d28015610a1f575f80fd5b506103d0610a2e366004612d39565b611cf5565b348015610a3e575f80fd5b50d38015610a4a575f80fd5b50d28015610a56575f80fd5b506040805180820190915260028152613b1960f11b6020820152610287565b348015610a80575f80fd5b50d38015610a8c575f80fd5b50d28015610a98575f80fd5b50610342610aa7366004612e92565b611d3e565b348015610ab7575f80fd5b50d38015610ac3575f80fd5b50d28015610acf575f80fd5b50600354610810906001600160a01b031681565b348015610aee575f80fd5b50d38015610afa575f80fd5b50d28015610b06575f80fd5b50610810611ea0565b348015610b1a575f80fd5b50d38015610b26575f80fd5b50d28015610b32575f80fd5b50610259610b41366004612c82565b611ec8565b348015610b51575f80fd5b50d38015610b5d575f80fd5b50d28015610b69575f80fd5b50610259610b78366004612c82565b611f31565b348015610b88575f80fd5b50d38015610b94575f80fd5b50d28015610ba0575f80fd5b50610259610baf366004612c82565b611fb6565b60605f5f805160206130c88339815191525b9050806003018054610bd790612ebb565b80601f0160208091040260200160405190810160405280929190818152602001828054610c0390612ebb565b8015610c4e5780601f10610c2557610100808354040283529160200191610c4e565b820191905f5260205f20905b815481529060010190602001808311610c3157829003601f168201915b505050505091505090565b5f610c6261204b565b805490915060ff600160401b820416159067ffffffffffffffff165f81158015610c895750825b90505f8267ffffffffffffffff166001148015610ca55750303b155b905081158015610cb3575080155b15610cd15760405163f92ee8a960e01b815260040160405180910390fd5b845467ffffffffffffffff191660011785558315610cfb57845460ff60401b1916600160401b1785555b610d03612073565b610d0d888861207b565b610d1688612091565b610d1f866120bc565b610d27612073565b610d30866120cd565b466002558315610d7a57845460ff60401b19168555604051600181527fc7f505b2f371ae2175ee4913f4499e1f2633a7b5936321eed1cdaeb6115181d29060200160405180910390a15b5050505050505050565b610d8c6120d5565b60045460408051918252602082018390527f7a50a7cdd0cb8b1a12f7b5a18d811b9c8b415e05a60a875a6f917c2f465e97a8910160405180910390a1600455565b5f610dd6612107565b335f8181526020819052604090205460ff1615610e1657604051631d6e3c0160e21b81526001600160a01b03821660048201526024015b60405180910390fd5b6001600160a01b0384165f90815260208190526040902054849060ff1615610e5c57604051631d6e3c0160e21b81526001600160a01b0382166004820152602401610e0d565b33610e68818787612137565b50600195945050505050565b610e7c612149565b6001600160a01b0316336001600160a01b031614610eac5760405162461bcd60e51b8152600401610e0d90612ef3565b6001600160a01b038116610ed35760405163d92e233d60e01b815260040160405180910390fd5b475f819003610ef557604051631f2a200560e01b815260040160405180910390fd5b5f826001600160a01b0316826040515f6040518083038185875af1925050503d805f8114610f3e576040519150601f19603f3d011682016040523d82523d5f602084013e610f43565b606091505b5050905080610f6557604051633f63173b60e11b815260040160405180910390fd5b826001600160a01b03167fa07a7c96cc7406722ea78961a08db3748f6d383d3add2983880f56deb26ccf4a83604051610fa091815260200190565b60405180910390a2505050565b5f610fb6612107565b6001600160a01b0384165f90815260208190526040902054849060ff1615610ffc57604051631d6e3c0160e21b81526001600160a01b0382166004820152602401610e0d565b6001600160a01b0384165f90815260208190526040902054849060ff161561104257604051631d6e3c0160e21b81526001600160a01b0382166004820152602401610e0d565b3361104e878287612152565b6110598787876121b6565b5060019695505050505050565b5f61106f612107565b6001600160a01b0385165f90815260208190526040902054859060ff16156110b557604051631d6e3c0160e21b81526001600160a01b0382166004820152602401610e0d565b6003546001600160a01b031633146110e257604051635c0d8a7360e01b8152336004820152602401610e0d565b600154841461110757604051632c4dce9b60e21b815260048101859052602401610e0d565b600254831461112c5760405163331003b360e01b815260048101849052602401610e0d565b845f0361114f57604051633728b83d60e01b815260048101869052602401610e0d565b60045485111561117d576004805460405163494d91e960e01b81529182018790526024820152604401610e0d565b60018054905f61118c83612f4e565b919050555061119b8686612213565b6040518581526001600160a01b0387169033907fab8530f87dc9b59234c4623bf917212bb2536d647574c8e7e5da92c2ede0c9f89060200160405180910390a3836001600160a01b038716336001600160a01b03167fecc1c2abe0b9e5b2981c11ea4430f5223ef5082cc28f017c458dbb273aed8e128860405161122191815260200190565b60405180910390a450600195945050505050565b61123d612149565b6001600160a01b0316336001600160a01b03161461126d5760405162461bcd60e51b8152600401610e0d90612ef3565b6001600160a01b0382166112945760405163d92e233d60e01b815260040160405180910390fd5b805f036112b457604051631f2a200560e01b815260040160405180910390fd5b80471015610ef557604051633f63173b60e11b815260040160405180910390fd5b5f6112de612247565b905090565b5f6001600160a01b0382166112f957505f919050565b6040516370a0823160e01b81523060048201526001600160a01b038316906370a0823190602401602060405180830381865afa15801561133b573d5f803e3d5ffd5b505050506040513d601f19601f8201168201806040525081019061135f9190612f66565b92915050565b61136d6120d5565b611375612250565b565b6001600160a01b0382165f90815260208190526040812054839060ff16156113bd57604051631d6e3c0160e21b81526001600160a01b0382166004820152602401610e0d565b6113c56120d5565b6113cf8484612213565b6040518381526001600160a01b0385169033907fab8530f87dc9b59234c4623bf917212bb2536d647574c8e7e5da92c2ede0c9f89060200160405180910390a35060019392505050565b5f6114226120d5565b61142c33836122af565b604051828152339081907fbac40739b0d4ca32fa2d82fc91630465ba3eddd1598da6fca393b26fb63b9453906020015b60405180910390a3506001919050565b611474612149565b6001600160a01b0316336001600160a01b0316146114a45760405162461bcd60e51b8152600401610e0d90612ef3565b6001600160a01b0382166114cb5760405163d92e233d60e01b815260040160405180910390fd5b6001600160a01b0381166114f25760405163d92e233d60e01b815260040160405180910390fd5b306001600160a01b0383160361151b5760405163ddacedeb60e01b815260040160405180910390fd5b6040516370a0823160e01b815230600482015282905f906001600160a01b038316906370a0823190602401602060405180830381865afa158015611561573d5f803e3d5ffd5b505050506040513d601f19601f820116820180604052508101906115859190612f66565b9050805f036115a757604051631f2a200560e01b815260040160405180910390fd5b60405163a9059cbb60e01b81526001600160a01b038481166004830152602482018390525f919084169063a9059cbb906044016020604051808303815f875af11580156115f6573d5f803e3d5ffd5b505050506040513d601f19601f8201168201806040525081019061161a9190612f7d565b90508061163a57604051633f63173b60e11b815260040160405180910390fd5b836001600160a01b0316856001600160a01b03167f77023e19c7343ad491fd706c36335ca0e738340a91f29b1fd81e2673d44896c48460405161167f91815260200190565b60405180910390a35050505050565b5f805f805160206130c88339815191525b6001600160a01b039093165f9081526020939093525050604090205490565b6116c66120d5565b60405162461bcd60e51b815260206004820152600b60248201526a155b9cdd5c1c1bdc9d195960aa1b6044820152606401610e0d565b6117046120d5565b6001600160a01b0381165f81815260208190526040808220805460ff191690555133917f4f3ab9ff0cc4f039268532098e01239544b0420171876e36889d01c62c784c7991a350565b3380611757611ea0565b6001600160a01b0316146117895760405163118cdaa760e01b81526001600160a01b0382166004820152602401610e0d565b611792816122e3565b50565b5f61135f8261231b565b6117a76120d5565b611375612343565b5f60608082808083815f805160206130e883398151915280549091501580156117da57506001810154155b61181e5760405162461bcd60e51b81526020600482015260156024820152741152540dcc4c8e88155b9a5b9a5d1a585b1a5e9959605a1b6044820152606401610e0d565b61182661238b565b61182e6123c9565b604080515f80825260208201909252600f60f81b9c939b5091995046985030975095509350915050565b5f807f9016d09d72d40fdae2fd8ceac6b6234c7706214fd39c1cd1e609a0528c1993005b546001600160a01b031692915050565b7f52c63247e1f47db19d5ce0460030c497f067ca4cebf71ba98eeadabe20bace0480546060915f805160206130c883398151915291610bd790612ebb565b6118d26120d5565b6003546040515f916001600160a01b0316907f4dcfbb802c3ce803612559160f5d70539a491b5d0064b0d4d326788f0dec2730908390a3600380546001600160a01b0319169055565b5f6119246120d5565b61192e3383612213565b604051828152339081907fab8530f87dc9b59234c4623bf917212bb2536d647574c8e7e5da92c2ede0c9f89060200161145c565b5f61196b612107565b335f8181526020819052604090205460ff16156119a657604051631d6e3c0160e21b81526001600160a01b0382166004820152602401610e0d565b6001600160a01b0384165f90815260208190526040902054849060ff16156119ec57604051631d6e3c0160e21b81526001600160a01b0382166004820152602401610e0d565b33610e688187876121b6565b611a00612149565b6001600160a01b0316336001600160a01b031614611a305760405162461bcd60e51b8152600401610e0d90612ef3565b6001600160a01b038316611a575760405163d92e233d60e01b815260040160405180910390fd5b6001600160a01b038216611a7e5760405163d92e233d60e01b815260040160405180910390fd5b805f03611a9e57604051631f2a200560e01b815260040160405180910390fd5b306001600160a01b03841603611ac75760405163ddacedeb60e01b815260040160405180910390fd5b60405163a9059cbb60e01b81526001600160a01b0383811660048301526024820183905284915f9183169063a9059cbb906044016020604051808303815f875af1158015611b17573d5f803e3d5ffd5b505050506040513d601f19601f82011682018060405250810190611b3b9190612f7d565b905080611b5b57604051633f63173b60e11b815260040160405180910390fd5b836001600160a01b0316856001600160a01b03167f77023e19c7343ad491fd706c36335ca0e738340a91f29b1fd81e2673d44896c48560405161167f91815260200190565b83421115611bc45760405163313c898160e11b815260048101859052602401610e0d565b5f7f6e71edae12b1b97f4d1f60370fef10105fa2faae0126114a169c64845d6126c9888888611c2e8c6001600160a01b03165f9081527f5ab42ced628888259c08ac98db1eb0cf702fc1501344311d8b100cd1bfe4bb006020526040902080546001810190915590565b6040805160208101969096526001600160a01b0394851690860152929091166060840152608083015260a082015260c0810186905260e0016040516020818303038152906040528051906020012090505f611c88826123df565b90505f611c978287878761240b565b9050896001600160a01b0316816001600160a01b031614611cde576040516325c0072360e11b81526001600160a01b0380831660048301528b166024820152604401610e0d565b611ce98a8a8a612137565b50505050505050505050565b6001600160a01b039182165f9081527f52c63247e1f47db19d5ce0460030c497f067ca4cebf71ba98eeadabe20bace016020908152604080832093909416825291909152205490565b5f611d47612107565b6003546001600160a01b03163314611d7457604051635c0d8a7360e01b8152336004820152602401610e0d565b6001548314611d9957604051632c4dce9b60e21b815260048101849052602401610e0d565b6002548214611dbe5760405163331003b360e01b815260048101839052602401610e0d565b835f03611de157604051633728b83d60e01b815260048101859052602401610e0d565b60018054905f611df083612f4e565b91905055505f611dfe611858565b9050611e0a81866122af565b6003546040518681526001600160a01b038381169216907fbac40739b0d4ca32fa2d82fc91630465ba3eddd1598da6fca393b26fb63b94539060200160405180910390a360035460405186815285916001600160a01b03848116929116907f9a38373a0903562b0424db0a574e0d2fe56b79cc9e0f488a89d7bd3f28082bd49060200160405180910390a4506001949350505050565b5f807f237e158222e3e6968b72b9db0d8043aacf074ad9f650f0d1606b4d82ee432c0061187c565b611ed06120d5565b6001600160a01b0381165f818152602081905260409020805460ff19166001179055611ef93390565b6001600160a01b03167f51d18786e9cb144f87d46e7b796309ea84c7c687d91e09c97f051eacf59bc52860405160405180910390a350565b611f396120d5565b7f237e158222e3e6968b72b9db0d8043aacf074ad9f650f0d1606b4d82ee432c0080546001600160a01b0319166001600160a01b0383169081178255611f7d611858565b6001600160a01b03167f38d16b8cac22d99fc7c124b9cd0de2d3fa1faef420bfe791d8c362d765e2270060405160405180910390a35050565b611fbe6120d5565b6001600160a01b038116611ff0576040516303d0181b60e31b81526001600160a01b0382166004820152602401610e0d565b6003546040516001600160a01b038084169216907f4dcfbb802c3ce803612559160f5d70539a491b5d0064b0d4d326788f0dec2730905f90a3600380546001600160a01b0319166001600160a01b0392909216919091179055565b5f807ff0c57e16840df040f15088dc2f81fe391c3923bec73e23a9662efc9c229c6a0061135f565b611375612437565b612083612437565b61208d828261245c565b5050565b612099612437565b61179281604051806040016040528060018152602001603160f81b8152506124ac565b6120c4612437565b6117928161250b565b611fbe612437565b336120de611858565b6001600160a01b0316146113755760405163118cdaa760e01b8152336004820152602401610e0d565b5f805160206131088339815191525460ff16156113755760405163d93c066560e01b815260040160405180910390fd5b612144838383600161253c565b505050565b5f6112de611858565b5f61215d8484611cf5565b90505f198110156121b057818110156121a257604051637dc7a0d960e11b81526001600160a01b03841660048201526024810182905260448101839052606401610e0d565b6121b084848484035f61253c565b50505050565b6001600160a01b0383166121df57604051634b637e8f60e11b81525f6004820152602401610e0d565b6001600160a01b0382166122085760405163ec442f0560e01b81525f6004820152602401610e0d565b612144838383612617565b6001600160a01b03821661223c5760405163ec442f0560e01b81525f6004820152602401610e0d565b61208d5f8383612617565b5f6112de612622565b612258612695565b5f80516020613108833981519152805460ff191681557f5db9ee0a495bf2e6ff9c91a7834c1ba4fdd244a5e8aa4e537bd38aeae4b073aa335b6040516001600160a01b03909116815260200160405180910390a150565b6001600160a01b0382166122d857604051634b637e8f60e11b81525f6004820152602401610e0d565b61208d825f83612617565b7f237e158222e3e6968b72b9db0d8043aacf074ad9f650f0d1606b4d82ee432c0080546001600160a01b031916815561208d826126c4565b5f807f5ab42ced628888259c08ac98db1eb0cf702fc1501344311d8b100cd1bfe4bb0061169f565b61234b612107565b5f80516020613108833981519152805460ff191660011781557f62e78cea01bee320cd4e420270b5ea74000d11b0c9f74754ebdbfc544b05a25833612291565b7fa16a46d94261c7517cc8ff89f61c0ce93598e3c849801011dee649a6a557d10280546060915f805160206130e883398151915291610bd790612ebb565b60605f5f805160206130e8833981519152610bc6565b5f61135f6123eb612247565b8360405161190160f01b8152600281019290925260228201526042902090565b5f805f8061241b88888888612734565b92509250925061242b82826127fc565b50909695505050505050565b61243f6128b4565b61137557604051631afcd79f60e31b815260040160405180910390fd5b612464612437565b5f805160206130c88339815191527f52c63247e1f47db19d5ce0460030c497f067ca4cebf71ba98eeadabe20bace0361249d8482612fe0565b50600481016121b08382612fe0565b6124b4612437565b5f805160206130e88339815191527fa16a46d94261c7517cc8ff89f61c0ce93598e3c849801011dee649a6a557d1026124ed8482612fe0565b50600381016124fc8382612fe0565b505f8082556001909101555050565b612513612437565b6001600160a01b03811661178957604051631e4fbdf760e01b81525f6004820152602401610e0d565b5f805160206130c88339815191526001600160a01b0385166125735760405163e602df0560e01b81525f6004820152602401610e0d565b6001600160a01b03841661259c57604051634a1406b160e11b81525f6004820152602401610e0d565b6001600160a01b038086165f9081526001830160209081526040808320938816835292905220839055811561261057836001600160a01b0316856001600160a01b03167f8c5be1e5ebec7d5bd14f71427d1e84f3dd0314c0f7b2291e5b200ac8c7c3b9258560405161167f91815260200190565b5050505050565b6121448383836128cd565b5f7f8b73c3c69bb8fe3d512ecc4cf759cc79239f7b179b0ffacaa9a75d522b39400f61264c6128e0565b612654612948565b60408051602081019490945283019190915260608201524660808201523060a082015260c00160405160208183030381529060405280519060200120905090565b5f805160206131088339815191525460ff1661137557604051638dfc202b60e01b815260040160405180910390fd5b7f9016d09d72d40fdae2fd8ceac6b6234c7706214fd39c1cd1e609a0528c19930080546001600160a01b031981166001600160a01b03848116918217845560405192169182907f8be0079c531659141344cd1fd0a4f28419497f9722a3daafe3b4186f6b6457e0905f90a3505050565b5f80807f7fffffffffffffffffffffffffffffff5d576e7357a4501ddfe92f46681b20a084111561276d57505f915060039050826127f2565b604080515f808252602082018084528a905260ff891692820192909252606081018790526080810186905260019060a0016020604051602081039080840390855afa1580156127be573d5f803e3d5ffd5b5050604051601f1901519150506001600160a01b0381166127e957505f9250600191508290506127f2565b92505f91508190505b9450945094915050565b5f82600381111561280f5761280f6130a0565b03612818575050565b600182600381111561282c5761282c6130a0565b0361284a5760405163f645eedf60e01b815260040160405180910390fd5b600282600381111561285e5761285e6130a0565b0361287f5760405163fce698f760e01b815260048101829052602401610e0d565b6003826003811115612893576128936130a0565b0361208d576040516335e2f38360e21b815260048101829052602401610e0d565b5f6128bd61204b565b54600160401b900460ff16919050565b6128d5612107565b61214483838361298a565b5f5f805160206130e8833981519152816128f861238b565b80519091501561291057805160209091012092915050565b8154801561291f579392505050565b7fc5d2460186f7233c927e7db2dcc703c0e500b653ca82273b7bfad8045d85a470935050505090565b5f5f805160206130e8833981519152816129606123c9565b80519091501561297857805160209091012092915050565b6001820154801561291f579392505050565b5f805160206130c88339815191526001600160a01b0384166129c45781816002015f8282546129b991906130b4565b90915550612a349050565b6001600160a01b0384165f9081526020829052604090205482811015612a165760405163391434e360e21b81526001600160a01b03861660048201526024810182905260448101849052606401610e0d565b6001600160a01b0385165f9081526020839052604090209083900390555b6001600160a01b038316612a52576002810180548390039055612a70565b6001600160a01b0383165f9081526020829052604090208054830190555b826001600160a01b0316846001600160a01b03167fddf252ad1be2c89b69c2b068fc378daa952ba7f163c4a11628f55a4df523b3ef84604051612ab591815260200190565b60405180910390a350505050565b5f81518084528060208401602086015e5f602082860101526020601f19601f83011685010191505092915050565b602081525f612b036020830184612ac3565b9392505050565b634e487b7160e01b5f52604160045260245ffd5b5f82601f830112612b2d575f80fd5b813567ffffffffffffffff80821115612b4857612b48612b0a565b604051601f8301601f19908116603f01168101908282118183101715612b7057612b70612b0a565b81604052838152866020858801011115612b88575f80fd5b836020870160208301375f602085830101528094505050505092915050565b6001600160a81b0381168114611792575f80fd5b5f805f60608486031215612bcd575f80fd5b833567ffffffffffffffff80821115612be4575f80fd5b612bf087838801612b1e565b94506020860135915080821115612c05575f80fd5b50612c1286828701612b1e565b9250506040840135612c2381612ba7565b9295919450506001600160a01b039091169150565b5f60208284031215612c48575f80fd5b5035919050565b5f8060408385031215612c60575f80fd5b8235612c6b81612ba7565b6001600160a01b0316946020939093013593505050565b5f60208284031215612c92575f80fd5b8135612c9d81612ba7565b6001600160a01b03169392505050565b5f805f60608486031215612cbf575f80fd5b8335612cca81612ba7565b6001600160a01b039081169350602085013590612ce682612ba7565b93969316945050506040919091013590565b5f805f8060808587031215612d0b575f80fd5b8435612d1681612ba7565b6001600160a01b0316966020860135965060408601359560600135945092505050565b5f8060408385031215612d4a575f80fd5b8235612d5581612ba7565b6001600160a01b039081169250602084013590612d7182612ba7565b92959216935090915050565b60ff60f81b881681525f602060e06020840152612d9d60e084018a612ac3565b8381036040850152612daf818a612ac3565b606085018990526001600160a01b038816608086015260a0850187905284810360c0860152855180825260208088019350909101905f5b81811015612e0257835183529284019291840191600101612de6565b50909c9b505050505050505050505050565b5f805f805f805f60e0888a031215612e2a575f80fd5b8735612e3581612ba7565b6001600160a01b039081169750602089013590612e5182612ba7565b1695506040880135945060608801359350608088013560ff81168114612e75575f80fd5b9699959850939692959460a0840135945060c09093013592915050565b5f805f60608486031215612ea4575f80fd5b505081359360208301359350604090920135919050565b600181811c90821680612ecf57607f821691505b602082108103612eed57634e487b7160e01b5f52602260045260245ffd5b50919050565b60208082526027908201527f526573637561626c65546f6b656e3a2063616c6c6572206973206e6f74207468604082015266329037bbb732b960c91b606082015260800190565b634e487b7160e01b5f52601160045260245ffd5b5f60018201612f5f57612f5f612f3a565b5060010190565b5f60208284031215612f76575f80fd5b5051919050565b5f60208284031215612f8d575f80fd5b81518015158114612b03575f80fd5b601f82111561214457805f5260205f20601f840160051c81016020851015612fc15750805b601f840160051c820191505b81811015612610575f8155600101612fcd565b815167ffffffffffffffff811115612ffa57612ffa612b0a565b61300e816130088454612ebb565b84612f9c565b602080601f831160018114613041575f841561302a5750858301515b5f19600386901b1c1916600185901b178555613098565b5f85815260208120601f198616915b8281101561306f57888601518255948401946001909101908401613050565b508582101561308c57878501515f19600388901b60f8161c191681555b505060018460011b0185555b505050505050565b634e487b7160e01b5f52602160045260245ffd5b8082018082111561135f5761135f612f3a56fe52c63247e1f47db19d5ce0460030c497f067ca4cebf71ba98eeadabe20bace00a16a46d94261c7517cc8ff89f61c0ce93598e3c849801011dee649a6a557d100cd5ed15c6e187e77e9aee88184c21f4f2182ab5827cb3b7e07fbedcd63f03300a26474726f6e5822122058356ef3f55a4ea6b5be9053281644cefe83d89a90e2841e904848f4eed8714464736f6c63430008190033",
  "source": "// SPDX-License-Identifier: MIT\n\npragma solidity ^0.8.25;\n\nimport \"./Stablecoin.sol\";\n\n/**\n * @title StablecoinV2\n * @dev This is a placeholder, which is only used for testing upgrades feature currently.\n */\ncontract StablecoinV2 is Stablecoin {\n\n    function versionV2() public pure returns (string memory) {\n        return \"v2\";\n    }\n\n}\n",
  "sourcePath": "contracts/StablecoinV2.sol",
  "compiler": {
    "name": "solc",
    "version": "0.8.25+commit.77bd169f.Emscripten.clang"
  },
  "schemaVersion": "2.0.1",
  "updatedAt": "2026-01-04T08:40:22.953Z"
}