{
  "contractName": "StablecoinV2",
  "abi": [
    {
      "inputs": [
        {
          "internalType": "address",
          "name": "caller",
          "type": "address"
        }
      ],
      "name": "CallerNotAutoOwner",
      "type": "error"
    },
    {
      "inputs": [
        {
          "internalType": "address",
          "name": "spender",
          "type": "address"
        },
        {
          "internalType": "uint256",
          "name": "allowance",
          "type": "uint256"
        },
        {
          "internalType": "uint256",
          "name": "needed",
          "type": "uint256"
        }
      ],
      "name": "ERC20InsufficientAllowance",
      "type": "error"
    },
    {
      "inputs": [
        {
          "internalType": "address",
          "name": "sender",
          "type": "address"
        },
        {
          "internalType": "uint256",
          "name": "balance",
          "type": "uint256"
        },
        {
          "internalType": "uint256",
          "name": "needed",
          "type": "uint256"
        }
      ],
      "name": "ERC20InsufficientBalance",
      "type": "error"
    },
    {
      "inputs": [
        {
          "internalType": "address",
          "name": "approver",
          "type": "address"
        }
      ],
      "name": "ERC20InvalidApprover",
      "type": "error"
    },
    {
      "inputs": [
        {
          "internalType": "address",
          "name": "receiver",
          "type": "address"
        }
      ],
      "name": "ERC20InvalidReceiver",
      "type": "error"
    },
    {
      "inputs": [
        {
          "internalType": "address",
          "name": "sender",
          "type": "address"
        }
      ],
      "name": "ERC20InvalidSender",
      "type": "error"
    },
    {
      "inputs": [
        {
          "internalType": "address",
          "name": "spender",
          "type": "address"
        }
      ],
      "name": "ERC20InvalidSpender",
      "type": "error"
    },
    {
      "inputs": [],
      "name": "EnforcedPause",
      "type": "error"
    },
    {
      "inputs": [],
      "name": "ExpectedPause",
      "type": "error"
    },
    {
      "inputs": [
        {
          "internalType": "address",
          "name": "addr",
          "type": "address"
        }
      ],
      "name": "FrozenAddress",
      "type": "error"
    },
    {
      "inputs": [
        {
          "internalType": "uint256",
          "name": "amount",
          "type": "uint256"
        }
      ],
      "name": "InvalidAmount",
      "type": "error"
    },
    {
      "inputs": [],
      "name": "InvalidInitialization",
      "type": "error"
    },
    {
      "inputs": [
        {
          "internalType": "uint256",
          "name": "nonce",
          "type": "uint256"
        }
      ],
      "name": "InvalidNonce",
      "type": "error"
    },
    {
      "inputs": [
        {
          "internalType": "uint256",
          "name": "amount",
          "type": "uint256"
        },
        {
          "internalType": "uint256",
          "name": "limit",
          "type": "uint256"
        }
      ],
      "name": "MintLimitExceeded",
      "type": "error"
    },
    {
      "inputs": [
        {
          "internalType": "address",
          "name": "addr",
          "type": "address"
        }
      ],
      "name": "NotAllowedAddress",
      "type": "error"
    },
    {
      "inputs": [],
      "name": "NotInitializing",
      "type": "error"
    },
    {
      "inputs": [
        {
          "internalType": "address",
          "name": "owner",
          "type": "address"
        }
      ],
      "name": "OwnableInvalidOwner",
      "type": "error"
    },
    {
      "inputs": [
        {
          "internalType": "address",
          "name": "account",
          "type": "address"
        }
      ],
      "name": "OwnableUnauthorizedAccount",
      "type": "error"
    },
    {
      "anonymous": false,
      "inputs": [
        {
          "indexed": true,
          "internalType": "address",
          "name": "owner",
          "type": "address"
        },
        {
          "indexed": true,
          "internalType": "address",
          "name": "spender",
          "type": "address"
        },
        {
          "indexed": false,
          "internalType": "uint256",
          "name": "value",
          "type": "uint256"
        }
      ],
      "name": "Approval",
      "type": "event"
    },
    {
      "anonymous": false,
      "inputs": [
        {
          "indexed": true,
          "internalType": "address",
          "name": "caller",
          "type": "address"
        },
        {
          "indexed": true,
          "internalType": "address",
          "name": "from",
          "type": "address"
        },
        {
          "indexed": true,
          "internalType": "uint256",
          "name": "seq",
          "type": "uint256"
        },
        {
          "indexed": false,
          "internalType": "uint256",
          "name": "amount",
          "type": "uint256"
        }
      ],
      "name": "AutoBurn",
      "type": "event"
    },
    {
      "anonymous": false,
      "inputs": [
        {
          "indexed": true,
          "internalType": "address",
          "name": "caller",
          "type": "address"
        },
        {
          "indexed": true,
          "internalType": "address",
          "name": "to",
          "type": "address"
        },
        {
          "indexed": true,
          "internalType": "uint256",
          "name": "seq",
          "type": "uint256"
        },
        {
          "indexed": false,
          "internalType": "uint256",
          "name": "amount",
          "type": "uint256"
        }
      ],
      "name": "AutoMint",
      "type": "event"
    },
    {
      "anonymous": false,
      "inputs": [
        {
          "indexed": true,
          "internalType": "address",
          "name": "previousOwner",
          "type": "address"
        },
        {
          "indexed": true,
          "internalType": "address",
          "name": "newOwner",
          "type": "address"
        }
      ],
      "name": "AutoOwnerTransferred",
      "type": "event"
    },
    {
      "anonymous": false,
      "inputs": [
        {
          "indexed": true,
          "internalType": "address",
          "name": "caller",
          "type": "address"
        },
        {
          "indexed": true,
          "internalType": "address",
          "name": "from",
          "type": "address"
        },
        {
          "indexed": false,
          "internalType": "uint256",
          "name": "amount",
          "type": "uint256"
        }
      ],
      "name": "Burn",
      "type": "event"
    },
    {
      "anonymous": false,
      "inputs": [
        {
          "indexed": true,
          "internalType": "address",
          "name": "caller",
          "type": "address"
        },
        {
          "indexed": true,
          "internalType": "address",
          "name": "account",
          "type": "address"
        }
      ],
      "name": "Freeze",
      "type": "event"
    },
    {
      "anonymous": false,
      "inputs": [
        {
          "indexed": false,
          "internalType": "uint64",
          "name": "version",
          "type": "uint64"
        }
      ],
      "name": "Initialized",
      "type": "event"
    },
    {
      "anonymous": false,
      "inputs": [
        {
          "indexed": true,
          "internalType": "address",
          "name": "caller",
          "type": "address"
        },
        {
          "indexed": true,
          "internalType": "address",
          "name": "to",
          "type": "address"
        },
        {
          "indexed": false,
          "internalType": "uint256",
          "name": "amount",
          "type": "uint256"
        }
      ],
      "name": "Mint",
      "type": "event"
    },
    {
      "anonymous": false,
      "inputs": [
        {
          "indexed": true,
          "internalType": "address",
          "name": "previousOwner",
          "type": "address"
        },
        {
          "indexed": true,
          "internalType": "address",
          "name": "newOwner",
          "type": "address"
        }
      ],
      "name": "OwnershipTransferStarted",
      "type": "event"
    },
    {
      "anonymous": false,
      "inputs": [
        {
          "indexed": true,
          "internalType": "address",
          "name": "previousOwner",
          "type": "address"
        },
        {
          "indexed": true,
          "internalType": "address",
          "name": "newOwner",
          "type": "address"
        }
      ],
      "name": "OwnershipTransferred",
      "type": "event"
    },
    {
      "anonymous": false,
      "inputs": [
        {
          "indexed": false,
          "internalType": "address",
          "name": "account",
          "type": "address"
        }
      ],
      "name": "Paused",
      "type": "event"
    },
    {
      "anonymous": false,
      "inputs": [
        {
          "indexed": false,
          "internalType": "uint256",
          "name": "previousLimit",
          "type": "uint256"
        },
        {
          "indexed": false,
          "internalType": "uint256",
          "name": "newLimit",
          "type": "uint256"
        }
      ],
      "name": "SetAutoMintMaxLimit",
      "type": "event"
    },
    {
      "anonymous": false,
      "inputs": [
        {
          "indexed": true,
          "internalType": "address",
          "name": "from",
          "type": "address"
        },
        {
          "indexed": true,
          "internalType": "address",
          "name": "to",
          "type": "address"
        },
        {
          "indexed": false,
          "internalType": "uint256",
          "name": "value",
          "type": "uint256"
        }
      ],
      "name": "Transfer",
      "type": "event"
    },
    {
      "anonymous": false,
      "inputs": [
        {
          "indexed": true,
          "internalType": "address",
          "name": "caller",
          "type": "address"
        },
        {
          "indexed": true,
          "internalType": "address",
          "name": "account",
          "type": "address"
        }
      ],
      "name": "Unfreeze",
      "type": "event"
    },
    {
      "anonymous": false,
      "inputs": [
        {
          "indexed": false,
          "internalType": "address",
          "name": "account",
          "type": "address"
        }
      ],
      "name": "Unpaused",
      "type": "event"
    },
    {
      "inputs": [],
      "name": "acceptOwnership",
      "outputs": [],
      "stateMutability": "nonpayable",
      "type": "function"
    },
    {
      "inputs": [
        {
          "internalType": "address",
          "name": "owner",
          "type": "address"
        },
        {
          "internalType": "address",
          "name": "spender",
          "type": "address"
        }
      ],
      "name": "allowance",
      "outputs": [
        {
          "internalType": "uint256",
          "name": "",
          "type": "uint256"
        }
      ],
      "stateMutability": "view",
      "type": "function"
    },
    {
      "inputs": [
        {
          "internalType": "address",
          "name": "spender",
          "type": "address"
        },
        {
          "internalType": "uint256",
          "name": "amount",
          "type": "uint256"
        }
      ],
      "name": "approve",
      "outputs": [
        {
          "internalType": "bool",
          "name": "",
          "type": "bool"
        }
      ],
      "stateMutability": "nonpayable",
      "type": "function"
    },
    {
      "inputs": [
        {
          "internalType": "uint256",
          "name": "amount",
          "type": "uint256"
        },
        {
          "internalType": "uint256",
          "name": "seq",
          "type": "uint256"
        }
      ],
      "name": "autoBurn",
      "outputs": [
        {
          "internalType": "bool",
          "name": "",
          "type": "bool"
        }
      ],
      "stateMutability": "nonpayable",
      "type": "function"
    },
    {
      "inputs": [
        {
          "internalType": "address",
          "name": "to",
          "type": "address"
        },
        {
          "internalType": "uint256",
          "name": "amount",
          "type": "uint256"
        },
        {
          "internalType": "uint256",
          "name": "seq",
          "type": "uint256"
        }
      ],
      "name": "autoMint",
      "outputs": [
        {
          "internalType": "bool",
          "name": "",
          "type": "bool"
        }
      ],
      "stateMutability": "nonpayable",
      "type": "function"
    },
    {
      "inputs": [],
      "name": "autoMintMaxLimit",
      "outputs": [
        {
          "internalType": "uint256",
          "name": "",
          "type": "uint256"
        }
      ],
      "stateMutability": "view",
      "type": "function"
    },
    {
      "inputs": [],
      "name": "autoOwner",
      "outputs": [
        {
          "internalType": "address",
          "name": "",
          "type": "address"
        }
      ],
      "stateMutability": "view",
      "type": "function"
    },
    {
      "inputs": [
        {
          "internalType": "address",
          "name": "account",
          "type": "address"
        }
      ],
      "name": "balanceOf",
      "outputs": [
        {
          "internalType": "uint256",
          "name": "",
          "type": "uint256"
        }
      ],
      "stateMutability": "view",
      "type": "function"
    },
    {
      "inputs": [
        {
          "internalType": "uint256",
          "name": "amount",
          "type": "uint256"
        }
      ],
      "name": "burn",
      "outputs": [
        {
          "internalType": "bool",
          "name": "",
          "type": "bool"
        }
      ],
      "stateMutability": "nonpayable",
      "type": "function"
    },
    {
      "inputs": [],
      "name": "decimals",
      "outputs": [
        {
          "internalType": "uint8",
          "name": "",
          "type": "uint8"
        }
      ],
      "stateMutability": "view",
      "type": "function"
    },
    {
      "inputs": [
        {
          "internalType": "address",
          "name": "account",
          "type": "address"
        }
      ],
      "name": "freezeAccount",
      "outputs": [],
      "stateMutability": "nonpayable",
      "type": "function"
    },
    {
      "inputs": [
        {
          "internalType": "address",
          "name": "",
          "type": "address"
        }
      ],
      "name": "frozen",
      "outputs": [
        {
          "internalType": "bool",
          "name": "",
          "type": "bool"
        }
      ],
      "stateMutability": "view",
      "type": "function"
    },
    {
      "inputs": [
        {
          "internalType": "string",
          "name": "_name",
          "type": "string"
        },
        {
          "internalType": "string",
          "name": "_symbol",
          "type": "string"
        },
        {
          "internalType": "address",
          "name": "_initOwner",
          "type": "address"
        }
      ],
      "name": "initialize",
      "outputs": [],
      "stateMutability": "nonpayable",
      "type": "function"
    },
    {
      "inputs": [
        {
          "internalType": "address",
          "name": "to",
          "type": "address"
        },
        {
          "internalType": "uint256",
          "name": "amount",
          "type": "uint256"
        }
      ],
      "name": "mint",
      "outputs": [
        {
          "internalType": "bool",
          "name": "",
          "type": "bool"
        }
      ],
      "stateMutability": "nonpayable",
      "type": "function"
    },
    {
      "inputs": [
        {
          "internalType": "uint256",
          "name": "amount",
          "type": "uint256"
        }
      ],
      "name": "mint",
      "outputs": [
        {
          "internalType": "bool",
          "name": "",
          "type": "bool"
        }
      ],
      "stateMutability": "nonpayable",
      "type": "function"
    },
    {
      "inputs": [],
      "name": "name",
      "outputs": [
        {
          "internalType": "string",
          "name": "",
          "type": "string"
        }
      ],
      "stateMutability": "view",
      "type": "function"
    },
    {
      "inputs": [],
      "name": "nonce",
      "outputs": [
        {
          "internalType": "uint256",
          "name": "",
          "type": "uint256"
        }
      ],
      "stateMutability": "view",
      "type": "function"
    },
    {
      "inputs": [],
      "name": "owner",
      "outputs": [
        {
          "internalType": "address",
          "name": "",
          "type": "address"
        }
      ],
      "stateMutability": "view",
      "type": "function"
    },
    {
      "inputs": [],
      "name": "pause",
      "outputs": [],
      "stateMutability": "nonpayable",
      "type": "function"
    },
    {
      "inputs": [],
      "name": "paused",
      "outputs": [
        {
          "internalType": "bool",
          "name": "",
          "type": "bool"
        }
      ],
      "stateMutability": "view",
      "type": "function"
    },
    {
      "inputs": [],
      "name": "pendingOwner",
      "outputs": [
        {
          "internalType": "address",
          "name": "",
          "type": "address"
        }
      ],
      "stateMutability": "view",
      "type": "function"
    },
    {
      "inputs": [],
      "name": "renounceAutoOwnership",
      "outputs": [],
      "stateMutability": "nonpayable",
      "type": "function"
    },
    {
      "inputs": [],
      "name": "renounceOwnership",
      "outputs": [],
      "stateMutability": "view",
      "type": "function"
    },
    {
      "inputs": [
        {
          "internalType": "uint256",
          "name": "limit",
          "type": "uint256"
        }
      ],
      "name": "setAutoMintMaxLimit",
      "outputs": [],
      "stateMutability": "nonpayable",
      "type": "function"
    },
    {
      "inputs": [],
      "name": "symbol",
      "outputs": [
        {
          "internalType": "string",
          "name": "",
          "type": "string"
        }
      ],
      "stateMutability": "view",
      "type": "function"
    },
    {
      "inputs": [],
      "name": "totalSupply",
      "outputs": [
        {
          "internalType": "uint256",
          "name": "",
          "type": "uint256"
        }
      ],
      "stateMutability": "view",
      "type": "function"
    },
    {
      "inputs": [
        {
          "internalType": "address",
          "name": "to",
          "type": "address"
        },
        {
          "internalType": "uint256",
          "name": "amount",
          "type": "uint256"
        }
      ],
      "name": "transfer",
      "outputs": [
        {
          "internalType": "bool",
          "name": "",
          "type": "bool"
        }
      ],
      "stateMutability": "nonpayable",
      "type": "function"
    },
    {
      "inputs": [
        {
          "internalType": "address",
          "name": "_newAutoOwner",
          "type": "address"
        }
      ],
      "name": "transferAutoOwnership",
      "outputs": [],
      "stateMutability": "nonpayable",
      "type": "function"
    },
    {
      "inputs": [
        {
          "internalType": "address",
          "name": "from",
          "type": "address"
        },
        {
          "internalType": "address",
          "name": "to",
          "type": "address"
        },
        {
          "internalType": "uint256",
          "name": "amount",
          "type": "uint256"
        }
      ],
      "name": "transferFrom",
      "outputs": [
        {
          "internalType": "bool",
          "name": "",
          "type": "bool"
        }
      ],
      "stateMutability": "nonpayable",
      "type": "function"
    },
    {
      "inputs": [
        {
          "internalType": "address",
          "name": "newOwner",
          "type": "address"
        }
      ],
      "name": "transferOwnership",
      "outputs": [],
      "stateMutability": "nonpayable",
      "type": "function"
    },
    {
      "inputs": [
        {
          "internalType": "address",
          "name": "account",
          "type": "address"
        }
      ],
      "name": "unfreezeAccount",
      "outputs": [],
      "stateMutability": "nonpayable",
      "type": "function"
    },
    {
      "inputs": [],
      "name": "unpause",
      "outputs": [],
      "stateMutability": "nonpayable",
      "type": "function"
    },
    {
      "inputs": [],
      "name": "versionV2",
      "outputs": [
        {
          "internalType": "string",
          "name": "",
          "type": "string"
        }
      ],
      "stateMutability": "pure",
      "type": "function"
    }
  ],
  "bytecode": "0x608060405234801561000f575f80fd5b50d3801561001b575f80fd5b50d28015610027575f80fd5b50610030610035565b6100e7565b7ff0c57e16840df040f15088dc2f81fe391c3923bec73e23a9662efc9c229c6a00805468010000000000000000900460ff16156100855760405163f92ee8a960e01b815260040160405180910390fd5b80546001600160401b03908116146100e45780546001600160401b0319166001600160401b0390811782556040519081527fc7f505b2f371ae2175ee4913f4499e1f2633a7b5936321eed1cdaeb6115181d29060200160405180910390a15b50565b611b9680620000f55f395ff3fe608060405234801561000f575f80fd5b50d3801561001b575f80fd5b50d28015610027575f80fd5b506004361061020a575f3560e01c806379ba50971161012c578063d0516650116100c1578063e30c397811610091578063e30c39781461044f578063e76784bf14610457578063f26c159f1461046a578063f2fde38b1461047d578063fdc86aa014610490575f80fd5b8063d0516650146103e9578063dd62ed3e1461040b578063dd6926f91461041e578063dfdcfc371461043c575f80fd5b80639dcc9d2a116100fc5780639dcc9d2a146103b2578063a0712d68146103ba578063a9059cbb146103cd578063affed0e0146103e0575f80fd5b806379ba50971461037a5780638456cb59146103825780638da5cb5b1461038a57806395d89b41146103aa575f80fd5b80633f4ba83a116101a25780636ca9e202116101725780636ca9e2021461031857806370a082311461032b578063715018a61461035f578063788649ea14610367575f80fd5b80633f4ba83a146102d357806340c10f19146102db57806342966c68146102ee5780635c975abb14610301575f80fd5b806318160ddd116101dd57806318160ddd1461027757806323b872dd146102a8578063268cbc27146102bb578063313ce567146102c4575f80fd5b806306fdde031461020e578063077f224a1461022c57806307c81df014610241578063095ea7b314610254575b5f80fd5b6102166104a3565b604051610223919061170e565b60405180910390f35b61023f61023a36600461181d565b610563565b005b61023f61024f36600461188c565b610681565b6102676102623660046118a3565b6106ca565b6040519015158152602001610223565b7f52c63247e1f47db19d5ce0460030c497f067ca4cebf71ba98eeadabe20bace02545b604051908152602001610223565b6102676102b63660046118cb565b610771565b61029a60035481565b60405160128152602001610223565b61023f61082a565b6102676102e93660046118a3565b61083c565b6102676102fc36600461188c565b6108e7565b5f80516020611b418339815191525460ff16610267565b610267610326366004611904565b61093a565b61029a610339366004611934565b6001600160a01b03165f9081525f80516020611b21833981519152602052604090205490565b61023f610ae6565b61023f610375366004611934565b610b24565b61023f610b75565b61023f610bbd565b610392610bcd565b6040516001600160a01b039091168152602001610223565b610216610c01565b61023f610c3f565b6102676103c836600461188c565b610c90565b6102676103db3660046118a3565b610cd7565b61029a60015481565b6102676103f7366004611934565b5f6020819052908152604090205460ff1681565b61029a610419366004611954565b610d6d565b6040805180820190915260028152613b1960f11b6020820152610216565b600254610392906001600160a01b031681565b610392610db8565b610267610465366004611985565b610de0565b61023f610478366004611934565b610f1c565b61023f61048b366004611934565b610f85565b61023f61049e366004611934565b61100a565b7f52c63247e1f47db19d5ce0460030c497f067ca4cebf71ba98eeadabe20bace0380546060915f80516020611b21833981519152916104e1906119a5565b80601f016020809104026020016040519081016040528092919081815260200182805461050d906119a5565b80156105585780601f1061052f57610100808354040283529160200191610558565b820191905f5260205f20905b81548152906001019060200180831161053b57829003601f168201915b505050505091505090565b5f61056c61109f565b805490915060ff600160401b820416159067ffffffffffffffff165f811580156105935750825b90505f8267ffffffffffffffff1660011480156105af5750303b155b9050811580156105bd575080155b156105db5760405163f92ee8a960e01b815260040160405180910390fd5b845467ffffffffffffffff19166001178555831561060557845460ff60401b1916600160401b1785555b61060d6110c7565b61061788886110cf565b610620866110e5565b6106286110c7565b610631866110f6565b831561067757845460ff60401b19168555604051600181527fc7f505b2f371ae2175ee4913f4499e1f2633a7b5936321eed1cdaeb6115181d29060200160405180910390a15b5050505050505050565b6106896110fe565b60035460408051918252602082018390527f7a50a7cdd0cb8b1a12f7b5a18d811b9c8b415e05a60a875a6f917c2f465e97a8910160405180910390a1600355565b5f6106d3611130565b335f8181526020819052604090205460ff161561071357604051631d6e3c0160e21b81526001600160a01b03821660048201526024015b60405180910390fd5b6001600160a01b0384165f90815260208190526040902054849060ff161561075957604051631d6e3c0160e21b81526001600160a01b038216600482015260240161070a565b33610765818787611160565b50600195945050505050565b5f61077a611130565b6001600160a01b0384165f90815260208190526040902054849060ff16156107c057604051631d6e3c0160e21b81526001600160a01b038216600482015260240161070a565b6001600160a01b0384165f90815260208190526040902054849060ff161561080657604051631d6e3c0160e21b81526001600160a01b038216600482015260240161070a565b33610812878287611172565b61081d8787876111d6565b5060019695505050505050565b6108326110fe565b61083a611233565b565b5f610845611130565b6001600160a01b0383165f90815260208190526040902054839060ff161561088b57604051631d6e3c0160e21b81526001600160a01b038216600482015260240161070a565b6108936110fe565b61089d8484611292565b6040518381526001600160a01b0385169033907fab8530f87dc9b59234c4623bf917212bb2536d647574c8e7e5da92c2ede0c9f89060200160405180910390a35060019392505050565b5f6108f06110fe565b6108fa33836112c6565b604051828152339081907fbac40739b0d4ca32fa2d82fc91630465ba3eddd1598da6fca393b26fb63b9453906020015b60405180910390a3506001919050565b5f610943611130565b6001600160a01b0384165f90815260208190526040902054849060ff161561098957604051631d6e3c0160e21b81526001600160a01b038216600482015260240161070a565b6002546001600160a01b031633146109b657604051635c0d8a7360e01b815233600482015260240161070a565b60015483146109db57604051632c4dce9b60e21b81526004810184905260240161070a565b835f036109fe57604051633728b83d60e01b81526004810185905260240161070a565b836003541015610a2f5760035460405163494d91e960e01b815261070a918691600401918252602082015260400190565b60018054905f610a3e836119f1565b9190505550610a4d8585611292565b6040518481526001600160a01b0386169033907fab8530f87dc9b59234c4623bf917212bb2536d647574c8e7e5da92c2ede0c9f89060200160405180910390a3826001600160a01b038616336001600160a01b03167fecc1c2abe0b9e5b2981c11ea4430f5223ef5082cc28f017c458dbb273aed8e1287604051610ad391815260200190565b60405180910390a4506001949350505050565b610aee6110fe565b60405162461bcd60e51b815260206004820152600b60248201526a155b9cdd5c1c1bdc9d195960aa1b604482015260640161070a565b610b2c6110fe565b6001600160a01b0381165f81815260208190526040808220805460ff191690555133917f4f3ab9ff0cc4f039268532098e01239544b0420171876e36889d01c62c784c7991a350565b3380610b7f610db8565b6001600160a01b031614610bb15760405163118cdaa760e01b81526001600160a01b038216600482015260240161070a565b610bba816112fa565b50565b610bc56110fe565b61083a611332565b5f807f9016d09d72d40fdae2fd8ceac6b6234c7706214fd39c1cd1e609a0528c1993005b546001600160a01b031692915050565b7f52c63247e1f47db19d5ce0460030c497f067ca4cebf71ba98eeadabe20bace0480546060915f80516020611b21833981519152916104e1906119a5565b610c476110fe565b6002546040515f916001600160a01b0316907f4dcfbb802c3ce803612559160f5d70539a491b5d0064b0d4d326788f0dec2730908390a3600280546001600160a01b0319169055565b5f610c996110fe565b610ca33383611292565b604051828152339081907fab8530f87dc9b59234c4623bf917212bb2536d647574c8e7e5da92c2ede0c9f89060200161092a565b5f610ce0611130565b335f8181526020819052604090205460ff1615610d1b57604051631d6e3c0160e21b81526001600160a01b038216600482015260240161070a565b6001600160a01b0384165f90815260208190526040902054849060ff1615610d6157604051631d6e3c0160e21b81526001600160a01b038216600482015260240161070a565b336107658187876111d6565b6001600160a01b038281165f9081527f52c63247e1f47db19d5ce0460030c497f067ca4cebf71ba98eeadabe20bace0160209081526040808320938516835292905220545b92915050565b5f807f237e158222e3e6968b72b9db0d8043aacf074ad9f650f0d1606b4d82ee432c00610bf1565b5f610de9611130565b6002546001600160a01b03163314610e1657604051635c0d8a7360e01b815233600482015260240161070a565b6001548214610e3b57604051632c4dce9b60e21b81526004810183905260240161070a565b825f03610e5e57604051633728b83d60e01b81526004810184905260240161070a565b60018054905f610e6d836119f1565b91905055505f610e7b610bcd565b9050610e8781856112c6565b6002546040518581526001600160a01b038381169216907fbac40739b0d4ca32fa2d82fc91630465ba3eddd1598da6fca393b26fb63b94539060200160405180910390a360025460405185815284916001600160a01b03848116929116907f9a38373a0903562b0424db0a574e0d2fe56b79cc9e0f488a89d7bd3f28082bd49060200160405180910390a45060019392505050565b610f246110fe565b6001600160a01b0381165f818152602081905260409020805460ff19166001179055610f4d3390565b6001600160a01b03167f51d18786e9cb144f87d46e7b796309ea84c7c687d91e09c97f051eacf59bc52860405160405180910390a350565b610f8d6110fe565b7f237e158222e3e6968b72b9db0d8043aacf074ad9f650f0d1606b4d82ee432c0080546001600160a01b0319166001600160a01b0383169081178255610fd1610bcd565b6001600160a01b03167f38d16b8cac22d99fc7c124b9cd0de2d3fa1faef420bfe791d8c362d765e2270060405160405180910390a35050565b6110126110fe565b6001600160a01b038116611044576040516303d0181b60e31b81526001600160a01b038216600482015260240161070a565b6002546040516001600160a01b038084169216907f4dcfbb802c3ce803612559160f5d70539a491b5d0064b0d4d326788f0dec2730905f90a3600280546001600160a01b0319166001600160a01b0392909216919091179055565b5f807ff0c57e16840df040f15088dc2f81fe391c3923bec73e23a9662efc9c229c6a00610db2565b61083a61137a565b6110d761137a565b6110e1828261139f565b5050565b6110ed61137a565b610bba816113ef565b61101261137a565b33611107610bcd565b6001600160a01b03161461083a5760405163118cdaa760e01b815233600482015260240161070a565b5f80516020611b418339815191525460ff161561083a5760405163d93c066560e01b815260040160405180910390fd5b61116d8383836001611420565b505050565b5f61117d8484610d6d565b90505f198110156111d057818110156111c257604051637dc7a0d960e11b81526001600160a01b0384166004820152602481018290526044810183905260640161070a565b6111d084848484035f611420565b50505050565b6001600160a01b0383166111ff57604051634b637e8f60e11b81525f600482015260240161070a565b6001600160a01b0382166112285760405163ec442f0560e01b81525f600482015260240161070a565b61116d838383611504565b61123b61150f565b5f80516020611b41833981519152805460ff191681557f5db9ee0a495bf2e6ff9c91a7834c1ba4fdd244a5e8aa4e537bd38aeae4b073aa335b6040516001600160a01b03909116815260200160405180910390a150565b6001600160a01b0382166112bb5760405163ec442f0560e01b81525f600482015260240161070a565b6110e15f8383611504565b6001600160a01b0382166112ef57604051634b637e8f60e11b81525f600482015260240161070a565b6110e1825f83611504565b7f237e158222e3e6968b72b9db0d8043aacf074ad9f650f0d1606b4d82ee432c0080546001600160a01b03191681556110e18261153e565b61133a611130565b5f80516020611b41833981519152805460ff191660011781557f62e78cea01bee320cd4e420270b5ea74000d11b0c9f74754ebdbfc544b05a25833611274565b6113826115ae565b61083a57604051631afcd79f60e31b815260040160405180910390fd5b6113a761137a565b5f80516020611b218339815191527f52c63247e1f47db19d5ce0460030c497f067ca4cebf71ba98eeadabe20bace036113e08482611a4d565b50600481016111d08382611a4d565b6113f761137a565b6001600160a01b038116610bb157604051631e4fbdf760e01b81525f600482015260240161070a565b5f80516020611b218339815191526001600160a01b0385166114575760405163e602df0560e01b81525f600482015260240161070a565b6001600160a01b03841661148057604051634a1406b160e11b81525f600482015260240161070a565b6001600160a01b038086165f908152600183016020908152604080832093881683529290522083905581156114fd57836001600160a01b0316856001600160a01b03167f8c5be1e5ebec7d5bd14f71427d1e84f3dd0314c0f7b2291e5b200ac8c7c3b925856040516114f491815260200190565b60405180910390a35b5050505050565b61116d8383836115c7565b5f80516020611b418339815191525460ff1661083a57604051638dfc202b60e01b815260040160405180910390fd5b7f9016d09d72d40fdae2fd8ceac6b6234c7706214fd39c1cd1e609a0528c19930080546001600160a01b031981166001600160a01b03848116918217845560405192169182907f8be0079c531659141344cd1fd0a4f28419497f9722a3daafe3b4186f6b6457e0905f90a3505050565b5f6115b761109f565b54600160401b900460ff16919050565b6115cf611130565b61116d8383835f80516020611b218339815191526001600160a01b03841661160f5781816002015f8282546116049190611b0d565b9091555061167f9050565b6001600160a01b0384165f90815260208290526040902054828110156116615760405163391434e360e21b81526001600160a01b0386166004820152602481018290526044810184905260640161070a565b6001600160a01b0385165f9081526020839052604090209083900390555b6001600160a01b03831661169d5760028101805483900390556116bb565b6001600160a01b0383165f9081526020829052604090208054830190555b826001600160a01b0316846001600160a01b03167fddf252ad1be2c89b69c2b068fc378daa952ba7f163c4a11628f55a4df523b3ef8460405161170091815260200190565b60405180910390a350505050565b5f602080835283518060208501525f5b8181101561173a5785810183015185820160400152820161171e565b505f604082860101526040601f19601f8301168501019250505092915050565b634e487b7160e01b5f52604160045260245ffd5b5f82601f83011261177d575f80fd5b813567ffffffffffffffff808211156117985761179861175a565b604051601f8301601f19908116603f011681019082821181831017156117c0576117c061175a565b816040528381528660208588010111156117d8575f80fd5b836020870160208301375f602085830101528094505050505092915050565b5f81356001600160a81b038116811461180e575f80fd5b6001600160a01b031692915050565b5f805f6060848603121561182f575f80fd5b833567ffffffffffffffff80821115611846575f80fd5b6118528783880161176e565b94506020860135915080821115611867575f80fd5b506118748682870161176e565b925050611883604085016117f7565b90509250925092565b5f6020828403121561189c575f80fd5b5035919050565b5f80604083850312156118b4575f80fd5b6118bd836117f7565b946020939093013593505050565b5f805f606084860312156118dd575f80fd5b6118e6846117f7565b92506118f4602085016117f7565b9150604084013590509250925092565b5f805f60608486031215611916575f80fd5b61191f846117f7565b95602085013595506040909401359392505050565b5f60208284031215611944575f80fd5b61194d826117f7565b9392505050565b5f8060408385031215611965575f80fd5b61196e836117f7565b915061197c602084016117f7565b90509250929050565b5f8060408385031215611996575f80fd5b50508035926020909101359150565b600181811c908216806119b957607f821691505b6020821081036119d757634e487b7160e01b5f52602260045260245ffd5b50919050565b634e487b7160e01b5f52601160045260245ffd5b5f60018201611a0257611a026119dd565b5060010190565b601f82111561116d57805f5260205f20601f840160051c81016020851015611a2e5750805b601f840160051c820191505b818110156114fd575f8155600101611a3a565b815167ffffffffffffffff811115611a6757611a6761175a565b611a7b81611a7584546119a5565b84611a09565b602080601f831160018114611aae575f8415611a975750858301515b5f19600386901b1c1916600185901b178555611b05565b5f85815260208120601f198616915b82811015611adc57888601518255948401946001909101908401611abd565b5085821015611af957878501515f19600388901b60f8161c191681555b505060018460011b0185555b505050505050565b80820180821115610db257610db26119dd56fe52c63247e1f47db19d5ce0460030c497f067ca4cebf71ba98eeadabe20bace00cd5ed15c6e187e77e9aee88184c21f4f2182ab5827cb3b7e07fbedcd63f03300a26474726f6e58221220209b70fc8c20893ee9eea8f844487b4ef71bb2a294fbd9183ef38b89c0faa51164736f6c63430008160033",
  "source": "// SPDX-License-Identifier: MIT\n\npragma solidity ^0.8.22;\n\nimport \"./Stablecoin.sol\";\n\n/**\n * @title StablecoinV2\n * @dev This is a placeholder, which is only used for testing upgrades feature currently.\n */\ncontract StablecoinV2 is Stablecoin {\n\n    function versionV2() public pure returns (string memory) {\n        return \"v2\";\n    }\n\n}\n",
  "sourcePath": "contracts/StablecoinV2.sol",
  "compiler": {
    "name": "solc",
    "version": "0.8.22+commit.5ed3e10f.Emscripten.clang"
  },
  "schemaVersion": "2.0.1",
  "updatedAt": "2025-12-28T14:36:22.250Z"
}